{
	"2.TimeAuction.sol": {
		"TimeAuction": {
			"abi": [
				{
					"inputs": [],
					"stateMutability": "nonpayable",
					"type": "constructor"
				},
				{
					"anonymous": false,
					"inputs": [
						{
							"indexed": true,
							"internalType": "address",
							"name": "sender",
							"type": "address"
						},
						{
							"indexed": false,
							"internalType": "uint256",
							"name": "amount",
							"type": "uint256"
						},
						{
							"indexed": false,
							"internalType": "uint256",
							"name": "timestamp",
							"type": "uint256"
						}
					],
					"name": "Bid",
					"type": "event"
				},
				{
					"anonymous": false,
					"inputs": [
						{
							"indexed": false,
							"internalType": "address",
							"name": "bidder",
							"type": "address"
						},
						{
							"indexed": false,
							"internalType": "uint256",
							"name": "bid",
							"type": "uint256"
						}
					],
					"name": "GetCurrentHighest",
					"type": "event"
				},
				{
					"inputs": [],
					"name": "bid",
					"outputs": [],
					"stateMutability": "payable",
					"type": "function"
				},
				{
					"inputs": [],
					"name": "claim",
					"outputs": [],
					"stateMutability": "nonpayable",
					"type": "function"
				},
				{
					"inputs": [],
					"name": "getCurrentHightest",
					"outputs": [],
					"stateMutability": "nonpayable",
					"type": "function"
				},
				{
					"inputs": [],
					"name": "getHighestBid",
					"outputs": [
						{
							"internalType": "uint256",
							"name": "",
							"type": "uint256"
						}
					],
					"stateMutability": "view",
					"type": "function"
				},
				{
					"inputs": [],
					"name": "getHighestBidder",
					"outputs": [
						{
							"internalType": "address",
							"name": "",
							"type": "address"
						}
					],
					"stateMutability": "view",
					"type": "function"
				},
				{
					"inputs": [],
					"name": "withdraw",
					"outputs": [],
					"stateMutability": "nonpayable",
					"type": "function"
				}
			],
			"devdoc": {
				"kind": "dev",
				"methods": {},
				"version": 1
			},
			"evm": {
				"assembly": "    /* \"2.TimeAuction.sol\":57:1878  contract TimeAuction {... */\n  mstore(0x40, 0x80)\n    /* \"2.TimeAuction.sol\":337:423  constructor() {... */\n  callvalue\n  dup1\n  iszero\n  tag_1\n  jumpi\n  0x00\n  dup1\n  revert\ntag_1:\n  pop\n    /* \"2.TimeAuction.sol\":369:379  msg.sender */\n  caller\n    /* \"2.TimeAuction.sol\":361:366  owner */\n  0x04\n  0x00\n    /* \"2.TimeAuction.sol\":361:379  owner = msg.sender */\n  0x0100\n  exp\n  dup2\n  sload\n  dup2\n  0xffffffffffffffffffffffffffffffffffffffff\n  mul\n  not\n  and\n  swap1\n  dup4\n  0xffffffffffffffffffffffffffffffffffffffff\n  and\n  mul\n  or\n  swap1\n  sstore\n  pop\n    /* \"2.TimeAuction.sol\":401:416  block.timestamp */\n  timestamp\n    /* \"2.TimeAuction.sol\":389:398  startTime */\n  0x05\n    /* \"2.TimeAuction.sol\":389:416  startTime = block.timestamp */\n  dup2\n  swap1\n  sstore\n  pop\n    /* \"2.TimeAuction.sol\":57:1878  contract TimeAuction {... */\n  dataSize(sub_0)\n  dup1\n  dataOffset(sub_0)\n  0x00\n  codecopy\n  0x00\n  return\nstop\n\nsub_0: assembly {\n        /* \"2.TimeAuction.sol\":57:1878  contract TimeAuction {... */\n      mstore(0x40, 0x80)\n      jumpi(tag_1, lt(calldatasize, 0x04))\n      shr(0xe0, calldataload(0x00))\n      dup1\n      0x3495a4\n      eq\n      tag_2\n      jumpi\n      dup1\n      0x1998aeef\n      eq\n      tag_3\n      jumpi\n      dup1\n      0x2b5e3883\n      eq\n      tag_4\n      jumpi\n      dup1\n      0x3ccfd60b\n      eq\n      tag_5\n      jumpi\n      dup1\n      0x4979440a\n      eq\n      tag_6\n      jumpi\n      dup1\n      0x4e71d92d\n      eq\n      tag_7\n      jumpi\n    tag_1:\n      0x00\n      dup1\n      revert\n        /* \"2.TimeAuction.sol\":1510:1605  function getHighestBidder() public view returns (address) {... */\n    tag_2:\n      callvalue\n      dup1\n      iszero\n      tag_8\n      jumpi\n      0x00\n      dup1\n      revert\n    tag_8:\n      pop\n      tag_9\n      tag_10\n      jump\t// in\n    tag_9:\n      mload(0x40)\n      tag_11\n      swap2\n      swap1\n      tag_12\n      jump\t// in\n    tag_11:\n      mload(0x40)\n      dup1\n      swap2\n      sub\n      swap1\n      return\n        /* \"2.TimeAuction.sol\":429:821  function bid() external payable {... */\n    tag_3:\n      tag_13\n      tag_14\n      jump\t// in\n    tag_13:\n      stop\n        /* \"2.TimeAuction.sol\":1670:1876  function getCurrentHightest() public {... */\n    tag_4:\n      callvalue\n      dup1\n      iszero\n      tag_15\n      jumpi\n      0x00\n      dup1\n      revert\n    tag_15:\n      pop\n      tag_16\n      tag_17\n      jump\t// in\n    tag_16:\n      stop\n        /* \"2.TimeAuction.sol\":827:1091  function withdraw() public {... */\n    tag_5:\n      callvalue\n      dup1\n      iszero\n      tag_18\n      jumpi\n      0x00\n      dup1\n      revert\n    tag_18:\n      pop\n      tag_19\n      tag_20\n      jump\t// in\n    tag_19:\n      stop\n        /* \"2.TimeAuction.sol\":1415:1504  function getHighestBid() public view returns (uint256) {... */\n    tag_6:\n      callvalue\n      dup1\n      iszero\n      tag_21\n      jumpi\n      0x00\n      dup1\n      revert\n    tag_21:\n      pop\n      tag_22\n      tag_23\n      jump\t// in\n    tag_22:\n      mload(0x40)\n      tag_24\n      swap2\n      swap1\n      tag_25\n      jump\t// in\n    tag_24:\n      mload(0x40)\n      dup1\n      swap2\n      sub\n      swap1\n      return\n        /* \"2.TimeAuction.sol\":1097:1409  function claim() public {... */\n    tag_7:\n      callvalue\n      dup1\n      iszero\n      tag_26\n      jumpi\n      0x00\n      dup1\n      revert\n    tag_26:\n      pop\n      tag_27\n      tag_28\n      jump\t// in\n    tag_27:\n      stop\n        /* \"2.TimeAuction.sol\":1510:1605  function getHighestBidder() public view returns (address) {... */\n    tag_10:\n        /* \"2.TimeAuction.sol\":1559:1566  address */\n      0x00\n        /* \"2.TimeAuction.sol\":1585:1598  highestBidder */\n      dup1\n      0x00\n      swap1\n      sload\n      swap1\n      0x0100\n      exp\n      swap1\n      div\n      0xffffffffffffffffffffffffffffffffffffffff\n      and\n        /* \"2.TimeAuction.sol\":1578:1598  return highestBidder */\n      swap1\n      pop\n        /* \"2.TimeAuction.sol\":1510:1605  function getHighestBidder() public view returns (address) {... */\n      swap1\n      jump\t// out\n        /* \"2.TimeAuction.sol\":429:821  function bid() external payable {... */\n    tag_14:\n        /* \"2.TimeAuction.sol\":509:518  5 minutes */\n      0x012c\n        /* \"2.TimeAuction.sol\":497:506  startTime */\n      sload(0x05)\n        /* \"2.TimeAuction.sol\":479:494  block.timestamp */\n      timestamp\n        /* \"2.TimeAuction.sol\":479:506  block.timestamp - startTime */\n      tag_31\n      swap2\n      swap1\n      tag_32\n      jump\t// in\n    tag_31:\n        /* \"2.TimeAuction.sol\":479:518  block.timestamp - startTime < 5 minutes */\n      lt\n        /* \"2.TimeAuction.sol\":471:538  require(block.timestamp - startTime < 5 minutes, \"auction is over\") */\n      tag_33\n      jumpi\n      mload(0x40)\n      0x08c379a000000000000000000000000000000000000000000000000000000000\n      dup2\n      mstore\n      0x04\n      add\n      tag_34\n      swap1\n      tag_35\n      jump\t// in\n    tag_34:\n      mload(0x40)\n      dup1\n      swap2\n      sub\n      swap1\n      revert\n    tag_33:\n        /* \"2.TimeAuction.sol\":568:578  highestBid */\n      sload(0x01)\n        /* \"2.TimeAuction.sol\":556:565  msg.value */\n      callvalue\n        /* \"2.TimeAuction.sol\":556:578  msg.value > highestBid */\n      gt\n        /* \"2.TimeAuction.sol\":548:597  require(msg.value > highestBid, \"bid is too low\") */\n      tag_36\n      jumpi\n      mload(0x40)\n      0x08c379a000000000000000000000000000000000000000000000000000000000\n      dup2\n      mstore\n      0x04\n      add\n      tag_37\n      swap1\n      tag_38\n      jump\t// in\n    tag_37:\n      mload(0x40)\n      dup1\n      swap2\n      sub\n      swap1\n      revert\n    tag_36:\n        /* \"2.TimeAuction.sol\":634:644  highestBid */\n      sload(0x01)\n        /* \"2.TimeAuction.sol\":608:615  oldBids */\n      0x02\n        /* \"2.TimeAuction.sol\":608:630  oldBids[highestBidder] */\n      0x00\n        /* \"2.TimeAuction.sol\":616:629  highestBidder */\n      dup1\n      0x00\n      swap1\n      sload\n      swap1\n      0x0100\n      exp\n      swap1\n      div\n      0xffffffffffffffffffffffffffffffffffffffff\n      and\n        /* \"2.TimeAuction.sol\":608:630  oldBids[highestBidder] */\n      0xffffffffffffffffffffffffffffffffffffffff\n      and\n      0xffffffffffffffffffffffffffffffffffffffff\n      and\n      dup2\n      mstore\n      0x20\n      add\n      swap1\n      dup2\n      mstore\n      0x20\n      add\n      0x00\n      keccak256\n      0x00\n        /* \"2.TimeAuction.sol\":608:644  oldBids[highestBidder] += highestBid */\n      dup3\n      dup3\n      sload\n      tag_39\n      swap2\n      swap1\n      tag_40\n      jump\t// in\n    tag_39:\n      swap3\n      pop\n      pop\n      dup2\n      swap1\n      sstore\n      pop\n        /* \"2.TimeAuction.sol\":677:687  highestBid */\n      sload(0x01)\n        /* \"2.TimeAuction.sol\":654:673  totalWithdrableBids */\n      0x03\n      0x00\n        /* \"2.TimeAuction.sol\":654:687  totalWithdrableBids += highestBid */\n      dup3\n      dup3\n      sload\n      tag_41\n      swap2\n      swap1\n      tag_40\n      jump\t// in\n    tag_41:\n      swap3\n      pop\n      pop\n      dup2\n      swap1\n      sstore\n      pop\n        /* \"2.TimeAuction.sol\":714:724  msg.sender */\n      caller\n        /* \"2.TimeAuction.sol\":698:711  highestBidder */\n      0x00\n      dup1\n        /* \"2.TimeAuction.sol\":698:724  highestBidder = msg.sender */\n      0x0100\n      exp\n      dup2\n      sload\n      dup2\n      0xffffffffffffffffffffffffffffffffffffffff\n      mul\n      not\n      and\n      swap1\n      dup4\n      0xffffffffffffffffffffffffffffffffffffffff\n      and\n      mul\n      or\n      swap1\n      sstore\n      pop\n        /* \"2.TimeAuction.sol\":747:756  msg.value */\n      callvalue\n        /* \"2.TimeAuction.sol\":734:744  highestBid */\n      0x01\n        /* \"2.TimeAuction.sol\":734:756  highestBid = msg.value */\n      dup2\n      swap1\n      sstore\n      pop\n        /* \"2.TimeAuction.sol\":775:785  msg.sender */\n      caller\n        /* \"2.TimeAuction.sol\":771:814  Bid(msg.sender, msg.value, block.timestamp) */\n      0xffffffffffffffffffffffffffffffffffffffff\n      and\n      0x19421268847f42dd61705778018ddfc43bcdce8517e7a630acb12f122c709481\n        /* \"2.TimeAuction.sol\":787:796  msg.value */\n      callvalue\n        /* \"2.TimeAuction.sol\":798:813  block.timestamp */\n      timestamp\n        /* \"2.TimeAuction.sol\":771:814  Bid(msg.sender, msg.value, block.timestamp) */\n      mload(0x40)\n      tag_42\n      swap3\n      swap2\n      swap1\n      tag_43\n      jump\t// in\n    tag_42:\n      mload(0x40)\n      dup1\n      swap2\n      sub\n      swap1\n      log2\n        /* \"2.TimeAuction.sol\":429:821  function bid() external payable {... */\n      jump\t// out\n        /* \"2.TimeAuction.sol\":1670:1876  function getCurrentHightest() public {... */\n    tag_17:\n        /* \"2.TimeAuction.sol\":1717:1739  address _highestBidder */\n      0x00\n        /* \"2.TimeAuction.sol\":1742:1760  getHighestBidder() */\n      tag_45\n        /* \"2.TimeAuction.sol\":1742:1758  getHighestBidder */\n      tag_10\n        /* \"2.TimeAuction.sol\":1742:1760  getHighestBidder() */\n      jump\t// in\n    tag_45:\n        /* \"2.TimeAuction.sol\":1717:1760  address _highestBidder = getHighestBidder() */\n      swap1\n      pop\n        /* \"2.TimeAuction.sol\":1770:1789  uint256 _highestBid */\n      0x00\n        /* \"2.TimeAuction.sol\":1792:1807  getHighestBid() */\n      tag_46\n        /* \"2.TimeAuction.sol\":1792:1805  getHighestBid */\n      tag_23\n        /* \"2.TimeAuction.sol\":1792:1807  getHighestBid() */\n      jump\t// in\n    tag_46:\n        /* \"2.TimeAuction.sol\":1770:1807  uint256 _highestBid = getHighestBid() */\n      swap1\n      pop\n        /* \"2.TimeAuction.sol\":1823:1869  GetCurrentHighest(_highestBidder, _highestBid) */\n      0x9dbb402ff86f3c1e6fe41dd5896a95da44e9f0cee5ec20c6c6fc98fa2c3a788e\n        /* \"2.TimeAuction.sol\":1841:1855  _highestBidder */\n      dup3\n        /* \"2.TimeAuction.sol\":1857:1868  _highestBid */\n      dup3\n        /* \"2.TimeAuction.sol\":1823:1869  GetCurrentHighest(_highestBidder, _highestBid) */\n      mload(0x40)\n      tag_47\n      swap3\n      swap2\n      swap1\n      tag_48\n      jump\t// in\n    tag_47:\n      mload(0x40)\n      dup1\n      swap2\n      sub\n      swap1\n      log1\n        /* \"2.TimeAuction.sol\":1707:1876  {... */\n      pop\n      pop\n        /* \"2.TimeAuction.sol\":1670:1876  function getCurrentHightest() public {... */\n      jump\t// out\n        /* \"2.TimeAuction.sol\":827:1091  function withdraw() public {... */\n    tag_20:\n        /* \"2.TimeAuction.sol\":864:878  uint256 amount */\n      0x00\n        /* \"2.TimeAuction.sol\":881:888  oldBids */\n      0x02\n        /* \"2.TimeAuction.sol\":881:900  oldBids[msg.sender] */\n      0x00\n        /* \"2.TimeAuction.sol\":889:899  msg.sender */\n      caller\n        /* \"2.TimeAuction.sol\":881:900  oldBids[msg.sender] */\n      0xffffffffffffffffffffffffffffffffffffffff\n      and\n      0xffffffffffffffffffffffffffffffffffffffff\n      and\n      dup2\n      mstore\n      0x20\n      add\n      swap1\n      dup2\n      mstore\n      0x20\n      add\n      0x00\n      keccak256\n      sload\n        /* \"2.TimeAuction.sol\":864:900  uint256 amount = oldBids[msg.sender] */\n      swap1\n      pop\n        /* \"2.TimeAuction.sol\":932:933  0 */\n      0x00\n        /* \"2.TimeAuction.sol\":910:917  oldBids */\n      0x02\n        /* \"2.TimeAuction.sol\":910:929  oldBids[msg.sender] */\n      0x00\n        /* \"2.TimeAuction.sol\":918:928  msg.sender */\n      caller\n        /* \"2.TimeAuction.sol\":910:929  oldBids[msg.sender] */\n      0xffffffffffffffffffffffffffffffffffffffff\n      and\n      0xffffffffffffffffffffffffffffffffffffffff\n      and\n      dup2\n      mstore\n      0x20\n      add\n      swap1\n      dup2\n      mstore\n      0x20\n      add\n      0x00\n      keccak256\n        /* \"2.TimeAuction.sol\":910:933  oldBids[msg.sender] = 0 */\n      dup2\n      swap1\n      sstore\n      pop\n        /* \"2.TimeAuction.sol\":966:972  amount */\n      dup1\n        /* \"2.TimeAuction.sol\":943:962  totalWithdrableBids */\n      0x03\n      0x00\n        /* \"2.TimeAuction.sol\":943:972  totalWithdrableBids -= amount */\n      dup3\n      dup3\n      sload\n      tag_50\n      swap2\n      swap1\n      tag_32\n      jump\t// in\n    tag_50:\n      swap3\n      pop\n      pop\n      dup2\n      swap1\n      sstore\n      pop\n        /* \"2.TimeAuction.sol\":984:993  bool sent */\n      0x00\n        /* \"2.TimeAuction.sol\":1007:1017  msg.sender */\n      caller\n        /* \"2.TimeAuction.sol\":999:1023  payable(msg.sender).call */\n      0xffffffffffffffffffffffffffffffffffffffff\n      and\n        /* \"2.TimeAuction.sol\":1031:1037  amount */\n      dup3\n        /* \"2.TimeAuction.sol\":999:1042  payable(msg.sender).call{value: amount}(\"\") */\n      mload(0x40)\n      tag_51\n      swap1\n      tag_52\n      jump\t// in\n    tag_51:\n      0x00\n      mload(0x40)\n      dup1\n      dup4\n      sub\n      dup2\n      dup6\n      dup8\n      gas\n      call\n      swap3\n      pop\n      pop\n      pop\n      returndatasize\n      dup1\n      0x00\n      dup2\n      eq\n      tag_55\n      jumpi\n      mload(0x40)\n      swap2\n      pop\n      and(add(returndatasize, 0x3f), not(0x1f))\n      dup3\n      add\n      0x40\n      mstore\n      returndatasize\n      dup3\n      mstore\n      returndatasize\n      0x00\n      0x20\n      dup5\n      add\n      returndatacopy\n      jump(tag_54)\n    tag_55:\n      0x60\n      swap2\n      pop\n    tag_54:\n      pop\n        /* \"2.TimeAuction.sol\":983:1042  (bool sent, ) = payable(msg.sender).call{value: amount}(\"\") */\n      pop\n      swap1\n      pop\n        /* \"2.TimeAuction.sol\":1060:1064  sent */\n      dup1\n        /* \"2.TimeAuction.sol\":1052:1084  require(sent, \"transfer failed\") */\n      tag_56\n      jumpi\n      mload(0x40)\n      0x08c379a000000000000000000000000000000000000000000000000000000000\n      dup2\n      mstore\n      0x04\n      add\n      tag_57\n      swap1\n      tag_58\n      jump\t// in\n    tag_57:\n      mload(0x40)\n      dup1\n      swap2\n      sub\n      swap1\n      revert\n    tag_56:\n        /* \"2.TimeAuction.sol\":854:1091  {... */\n      pop\n      pop\n        /* \"2.TimeAuction.sol\":827:1091  function withdraw() public {... */\n      jump\t// out\n        /* \"2.TimeAuction.sol\":1415:1504  function getHighestBid() public view returns (uint256) {... */\n    tag_23:\n        /* \"2.TimeAuction.sol\":1461:1468  uint256 */\n      0x00\n        /* \"2.TimeAuction.sol\":1487:1497  highestBid */\n      sload(0x01)\n        /* \"2.TimeAuction.sol\":1480:1497  return highestBid */\n      swap1\n      pop\n        /* \"2.TimeAuction.sol\":1415:1504  function getHighestBid() public view returns (uint256) {... */\n      swap1\n      jump\t// out\n        /* \"2.TimeAuction.sol\":1097:1409  function claim() public {... */\n    tag_28:\n        /* \"2.TimeAuction.sol\":1153:1158  owner */\n      0x04\n      0x00\n      swap1\n      sload\n      swap1\n      0x0100\n      exp\n      swap1\n      div\n      0xffffffffffffffffffffffffffffffffffffffff\n      and\n        /* \"2.TimeAuction.sol\":1139:1158  msg.sender == owner */\n      0xffffffffffffffffffffffffffffffffffffffff\n      and\n        /* \"2.TimeAuction.sol\":1139:1149  msg.sender */\n      caller\n        /* \"2.TimeAuction.sol\":1139:1158  msg.sender == owner */\n      0xffffffffffffffffffffffffffffffffffffffff\n      and\n      eq\n        /* \"2.TimeAuction.sol\":1131:1184  require(msg.sender == owner, \"you are not the onwer\") */\n      tag_61\n      jumpi\n      mload(0x40)\n      0x08c379a000000000000000000000000000000000000000000000000000000000\n      dup2\n      mstore\n      0x04\n      add\n      tag_62\n      swap1\n      tag_63\n      jump\t// in\n    tag_62:\n      mload(0x40)\n      dup1\n      swap2\n      sub\n      swap1\n      revert\n    tag_61:\n        /* \"2.TimeAuction.sol\":1233:1242  5 minutes */\n      0x012c\n        /* \"2.TimeAuction.sol\":1220:1229  startTime */\n      sload(0x05)\n        /* \"2.TimeAuction.sol\":1202:1217  block.timestamp */\n      timestamp\n        /* \"2.TimeAuction.sol\":1202:1229  block.timestamp - startTime */\n      tag_64\n      swap2\n      swap1\n      tag_32\n      jump\t// in\n    tag_64:\n        /* \"2.TimeAuction.sol\":1202:1242  block.timestamp - startTime >= 5 minutes */\n      lt\n      iszero\n        /* \"2.TimeAuction.sol\":1194:1276  require(block.timestamp - startTime >= 5 minutes, \"auction has not completed yet\") */\n      tag_65\n      jumpi\n      mload(0x40)\n      0x08c379a000000000000000000000000000000000000000000000000000000000\n      dup2\n      mstore\n      0x04\n      add\n      tag_66\n      swap1\n      tag_67\n      jump\t// in\n    tag_66:\n      mload(0x40)\n      dup1\n      swap2\n      sub\n      swap1\n      revert\n    tag_65:\n        /* \"2.TimeAuction.sol\":1317:1318  0 */\n      0x00\n        /* \"2.TimeAuction.sol\":1294:1313  totalWithdrableBids */\n      sload(0x03)\n        /* \"2.TimeAuction.sol\":1294:1318  totalWithdrableBids == 0 */\n      eq\n        /* \"2.TimeAuction.sol\":1286:1364  require(totalWithdrableBids == 0, \"not all users have claimed their bids yet\") */\n      tag_68\n      jumpi\n      mload(0x40)\n      0x08c379a000000000000000000000000000000000000000000000000000000000\n      dup2\n      mstore\n      0x04\n      add\n      tag_69\n      swap1\n      tag_70\n      jump\t// in\n    tag_69:\n      mload(0x40)\n      dup1\n      swap2\n      sub\n      swap1\n      revert\n    tag_68:\n        /* \"2.TimeAuction.sol\":1395:1400  owner */\n      0x04\n      0x00\n      swap1\n      sload\n      swap1\n      0x0100\n      exp\n      swap1\n      div\n      0xffffffffffffffffffffffffffffffffffffffff\n      and\n        /* \"2.TimeAuction.sol\":1374:1402  selfdestruct(payable(owner)) */\n      0xffffffffffffffffffffffffffffffffffffffff\n      and\n      selfdestruct\n        /* \"#utility.yul\":7:133   */\n    tag_71:\n        /* \"#utility.yul\":44:51   */\n      0x00\n        /* \"#utility.yul\":84:126   */\n      0xffffffffffffffffffffffffffffffffffffffff\n        /* \"#utility.yul\":77:82   */\n      dup3\n        /* \"#utility.yul\":73:127   */\n      and\n        /* \"#utility.yul\":62:127   */\n      swap1\n      pop\n        /* \"#utility.yul\":7:133   */\n      swap2\n      swap1\n      pop\n      jump\t// out\n        /* \"#utility.yul\":139:235   */\n    tag_72:\n        /* \"#utility.yul\":176:183   */\n      0x00\n        /* \"#utility.yul\":205:229   */\n      tag_96\n        /* \"#utility.yul\":223:228   */\n      dup3\n        /* \"#utility.yul\":205:229   */\n      tag_71\n      jump\t// in\n    tag_96:\n        /* \"#utility.yul\":194:229   */\n      swap1\n      pop\n        /* \"#utility.yul\":139:235   */\n      swap2\n      swap1\n      pop\n      jump\t// out\n        /* \"#utility.yul\":241:359   */\n    tag_73:\n        /* \"#utility.yul\":328:352   */\n      tag_98\n        /* \"#utility.yul\":346:351   */\n      dup2\n        /* \"#utility.yul\":328:352   */\n      tag_72\n      jump\t// in\n    tag_98:\n        /* \"#utility.yul\":323:326   */\n      dup3\n        /* \"#utility.yul\":316:353   */\n      mstore\n        /* \"#utility.yul\":241:359   */\n      pop\n      pop\n      jump\t// out\n        /* \"#utility.yul\":365:587   */\n    tag_12:\n        /* \"#utility.yul\":458:462   */\n      0x00\n        /* \"#utility.yul\":496:498   */\n      0x20\n        /* \"#utility.yul\":485:494   */\n      dup3\n        /* \"#utility.yul\":481:499   */\n      add\n        /* \"#utility.yul\":473:499   */\n      swap1\n      pop\n        /* \"#utility.yul\":509:580   */\n      tag_100\n        /* \"#utility.yul\":577:578   */\n      0x00\n        /* \"#utility.yul\":566:575   */\n      dup4\n        /* \"#utility.yul\":562:579   */\n      add\n        /* \"#utility.yul\":553:559   */\n      dup5\n        /* \"#utility.yul\":509:580   */\n      tag_73\n      jump\t// in\n    tag_100:\n        /* \"#utility.yul\":365:587   */\n      swap3\n      swap2\n      pop\n      pop\n      jump\t// out\n        /* \"#utility.yul\":593:670   */\n    tag_74:\n        /* \"#utility.yul\":630:637   */\n      0x00\n        /* \"#utility.yul\":659:664   */\n      dup2\n        /* \"#utility.yul\":648:664   */\n      swap1\n      pop\n        /* \"#utility.yul\":593:670   */\n      swap2\n      swap1\n      pop\n      jump\t// out\n        /* \"#utility.yul\":676:794   */\n    tag_75:\n        /* \"#utility.yul\":763:787   */\n      tag_103\n        /* \"#utility.yul\":781:786   */\n      dup2\n        /* \"#utility.yul\":763:787   */\n      tag_74\n      jump\t// in\n    tag_103:\n        /* \"#utility.yul\":758:761   */\n      dup3\n        /* \"#utility.yul\":751:788   */\n      mstore\n        /* \"#utility.yul\":676:794   */\n      pop\n      pop\n      jump\t// out\n        /* \"#utility.yul\":800:1022   */\n    tag_25:\n        /* \"#utility.yul\":893:897   */\n      0x00\n        /* \"#utility.yul\":931:933   */\n      0x20\n        /* \"#utility.yul\":920:929   */\n      dup3\n        /* \"#utility.yul\":916:934   */\n      add\n        /* \"#utility.yul\":908:934   */\n      swap1\n      pop\n        /* \"#utility.yul\":944:1015   */\n      tag_105\n        /* \"#utility.yul\":1012:1013   */\n      0x00\n        /* \"#utility.yul\":1001:1010   */\n      dup4\n        /* \"#utility.yul\":997:1014   */\n      add\n        /* \"#utility.yul\":988:994   */\n      dup5\n        /* \"#utility.yul\":944:1015   */\n      tag_75\n      jump\t// in\n    tag_105:\n        /* \"#utility.yul\":800:1022   */\n      swap3\n      swap2\n      pop\n      pop\n      jump\t// out\n        /* \"#utility.yul\":1028:1208   */\n    tag_76:\n        /* \"#utility.yul\":1076:1153   */\n      0x4e487b7100000000000000000000000000000000000000000000000000000000\n        /* \"#utility.yul\":1073:1074   */\n      0x00\n        /* \"#utility.yul\":1066:1154   */\n      mstore\n        /* \"#utility.yul\":1173:1177   */\n      0x11\n        /* \"#utility.yul\":1170:1171   */\n      0x04\n        /* \"#utility.yul\":1163:1178   */\n      mstore\n        /* \"#utility.yul\":1197:1201   */\n      0x24\n        /* \"#utility.yul\":1194:1195   */\n      0x00\n        /* \"#utility.yul\":1187:1202   */\n      revert\n        /* \"#utility.yul\":1214:1408   */\n    tag_32:\n        /* \"#utility.yul\":1254:1258   */\n      0x00\n        /* \"#utility.yul\":1274:1294   */\n      tag_108\n        /* \"#utility.yul\":1292:1293   */\n      dup3\n        /* \"#utility.yul\":1274:1294   */\n      tag_74\n      jump\t// in\n    tag_108:\n        /* \"#utility.yul\":1269:1294   */\n      swap2\n      pop\n        /* \"#utility.yul\":1308:1328   */\n      tag_109\n        /* \"#utility.yul\":1326:1327   */\n      dup4\n        /* \"#utility.yul\":1308:1328   */\n      tag_74\n      jump\t// in\n    tag_109:\n        /* \"#utility.yul\":1303:1328   */\n      swap3\n      pop\n        /* \"#utility.yul\":1352:1353   */\n      dup3\n        /* \"#utility.yul\":1349:1350   */\n      dup3\n        /* \"#utility.yul\":1345:1354   */\n      sub\n        /* \"#utility.yul\":1337:1354   */\n      swap1\n      pop\n        /* \"#utility.yul\":1376:1377   */\n      dup2\n        /* \"#utility.yul\":1370:1374   */\n      dup2\n        /* \"#utility.yul\":1367:1378   */\n      gt\n        /* \"#utility.yul\":1364:1401   */\n      iszero\n      tag_110\n      jumpi\n        /* \"#utility.yul\":1381:1399   */\n      tag_111\n      tag_76\n      jump\t// in\n    tag_111:\n        /* \"#utility.yul\":1364:1401   */\n    tag_110:\n        /* \"#utility.yul\":1214:1408   */\n      swap3\n      swap2\n      pop\n      pop\n      jump\t// out\n        /* \"#utility.yul\":1414:1583   */\n    tag_77:\n        /* \"#utility.yul\":1498:1509   */\n      0x00\n        /* \"#utility.yul\":1532:1538   */\n      dup3\n        /* \"#utility.yul\":1527:1530   */\n      dup3\n        /* \"#utility.yul\":1520:1539   */\n      mstore\n        /* \"#utility.yul\":1572:1576   */\n      0x20\n        /* \"#utility.yul\":1567:1570   */\n      dup3\n        /* \"#utility.yul\":1563:1577   */\n      add\n        /* \"#utility.yul\":1548:1577   */\n      swap1\n      pop\n        /* \"#utility.yul\":1414:1583   */\n      swap3\n      swap2\n      pop\n      pop\n      jump\t// out\n        /* \"#utility.yul\":1589:1754   */\n    tag_78:\n        /* \"#utility.yul\":1729:1746   */\n      0x61756374696f6e206973206f7665720000000000000000000000000000000000\n        /* \"#utility.yul\":1725:1726   */\n      0x00\n        /* \"#utility.yul\":1717:1723   */\n      dup3\n        /* \"#utility.yul\":1713:1727   */\n      add\n        /* \"#utility.yul\":1706:1747   */\n      mstore\n        /* \"#utility.yul\":1589:1754   */\n      pop\n      jump\t// out\n        /* \"#utility.yul\":1760:2126   */\n    tag_79:\n        /* \"#utility.yul\":1902:1905   */\n      0x00\n        /* \"#utility.yul\":1923:1990   */\n      tag_115\n        /* \"#utility.yul\":1987:1989   */\n      0x0f\n        /* \"#utility.yul\":1982:1985   */\n      dup4\n        /* \"#utility.yul\":1923:1990   */\n      tag_77\n      jump\t// in\n    tag_115:\n        /* \"#utility.yul\":1916:1990   */\n      swap2\n      pop\n        /* \"#utility.yul\":1999:2092   */\n      tag_116\n        /* \"#utility.yul\":2088:2091   */\n      dup3\n        /* \"#utility.yul\":1999:2092   */\n      tag_78\n      jump\t// in\n    tag_116:\n        /* \"#utility.yul\":2117:2119   */\n      0x20\n        /* \"#utility.yul\":2112:2115   */\n      dup3\n        /* \"#utility.yul\":2108:2120   */\n      add\n        /* \"#utility.yul\":2101:2120   */\n      swap1\n      pop\n        /* \"#utility.yul\":1760:2126   */\n      swap2\n      swap1\n      pop\n      jump\t// out\n        /* \"#utility.yul\":2132:2551   */\n    tag_35:\n        /* \"#utility.yul\":2298:2302   */\n      0x00\n        /* \"#utility.yul\":2336:2338   */\n      0x20\n        /* \"#utility.yul\":2325:2334   */\n      dup3\n        /* \"#utility.yul\":2321:2339   */\n      add\n        /* \"#utility.yul\":2313:2339   */\n      swap1\n      pop\n        /* \"#utility.yul\":2385:2394   */\n      dup2\n        /* \"#utility.yul\":2379:2383   */\n      dup2\n        /* \"#utility.yul\":2375:2395   */\n      sub\n        /* \"#utility.yul\":2371:2372   */\n      0x00\n        /* \"#utility.yul\":2360:2369   */\n      dup4\n        /* \"#utility.yul\":2356:2373   */\n      add\n        /* \"#utility.yul\":2349:2396   */\n      mstore\n        /* \"#utility.yul\":2413:2544   */\n      tag_118\n        /* \"#utility.yul\":2539:2543   */\n      dup2\n        /* \"#utility.yul\":2413:2544   */\n      tag_79\n      jump\t// in\n    tag_118:\n        /* \"#utility.yul\":2405:2544   */\n      swap1\n      pop\n        /* \"#utility.yul\":2132:2551   */\n      swap2\n      swap1\n      pop\n      jump\t// out\n        /* \"#utility.yul\":2557:2721   */\n    tag_80:\n        /* \"#utility.yul\":2697:2713   */\n      0x62696420697320746f6f206c6f77000000000000000000000000000000000000\n        /* \"#utility.yul\":2693:2694   */\n      0x00\n        /* \"#utility.yul\":2685:2691   */\n      dup3\n        /* \"#utility.yul\":2681:2695   */\n      add\n        /* \"#utility.yul\":2674:2714   */\n      mstore\n        /* \"#utility.yul\":2557:2721   */\n      pop\n      jump\t// out\n        /* \"#utility.yul\":2727:3093   */\n    tag_81:\n        /* \"#utility.yul\":2869:2872   */\n      0x00\n        /* \"#utility.yul\":2890:2957   */\n      tag_121\n        /* \"#utility.yul\":2954:2956   */\n      0x0e\n        /* \"#utility.yul\":2949:2952   */\n      dup4\n        /* \"#utility.yul\":2890:2957   */\n      tag_77\n      jump\t// in\n    tag_121:\n        /* \"#utility.yul\":2883:2957   */\n      swap2\n      pop\n        /* \"#utility.yul\":2966:3059   */\n      tag_122\n        /* \"#utility.yul\":3055:3058   */\n      dup3\n        /* \"#utility.yul\":2966:3059   */\n      tag_80\n      jump\t// in\n    tag_122:\n        /* \"#utility.yul\":3084:3086   */\n      0x20\n        /* \"#utility.yul\":3079:3082   */\n      dup3\n        /* \"#utility.yul\":3075:3087   */\n      add\n        /* \"#utility.yul\":3068:3087   */\n      swap1\n      pop\n        /* \"#utility.yul\":2727:3093   */\n      swap2\n      swap1\n      pop\n      jump\t// out\n        /* \"#utility.yul\":3099:3518   */\n    tag_38:\n        /* \"#utility.yul\":3265:3269   */\n      0x00\n        /* \"#utility.yul\":3303:3305   */\n      0x20\n        /* \"#utility.yul\":3292:3301   */\n      dup3\n        /* \"#utility.yul\":3288:3306   */\n      add\n        /* \"#utility.yul\":3280:3306   */\n      swap1\n      pop\n        /* \"#utility.yul\":3352:3361   */\n      dup2\n        /* \"#utility.yul\":3346:3350   */\n      dup2\n        /* \"#utility.yul\":3342:3362   */\n      sub\n        /* \"#utility.yul\":3338:3339   */\n      0x00\n        /* \"#utility.yul\":3327:3336   */\n      dup4\n        /* \"#utility.yul\":3323:3340   */\n      add\n        /* \"#utility.yul\":3316:3363   */\n      mstore\n        /* \"#utility.yul\":3380:3511   */\n      tag_124\n        /* \"#utility.yul\":3506:3510   */\n      dup2\n        /* \"#utility.yul\":3380:3511   */\n      tag_81\n      jump\t// in\n    tag_124:\n        /* \"#utility.yul\":3372:3511   */\n      swap1\n      pop\n        /* \"#utility.yul\":3099:3518   */\n      swap2\n      swap1\n      pop\n      jump\t// out\n        /* \"#utility.yul\":3524:3715   */\n    tag_40:\n        /* \"#utility.yul\":3564:3567   */\n      0x00\n        /* \"#utility.yul\":3583:3603   */\n      tag_126\n        /* \"#utility.yul\":3601:3602   */\n      dup3\n        /* \"#utility.yul\":3583:3603   */\n      tag_74\n      jump\t// in\n    tag_126:\n        /* \"#utility.yul\":3578:3603   */\n      swap2\n      pop\n        /* \"#utility.yul\":3617:3637   */\n      tag_127\n        /* \"#utility.yul\":3635:3636   */\n      dup4\n        /* \"#utility.yul\":3617:3637   */\n      tag_74\n      jump\t// in\n    tag_127:\n        /* \"#utility.yul\":3612:3637   */\n      swap3\n      pop\n        /* \"#utility.yul\":3660:3661   */\n      dup3\n        /* \"#utility.yul\":3657:3658   */\n      dup3\n        /* \"#utility.yul\":3653:3662   */\n      add\n        /* \"#utility.yul\":3646:3662   */\n      swap1\n      pop\n        /* \"#utility.yul\":3681:3684   */\n      dup1\n        /* \"#utility.yul\":3678:3679   */\n      dup3\n        /* \"#utility.yul\":3675:3685   */\n      gt\n        /* \"#utility.yul\":3672:3708   */\n      iszero\n      tag_128\n      jumpi\n        /* \"#utility.yul\":3688:3706   */\n      tag_129\n      tag_76\n      jump\t// in\n    tag_129:\n        /* \"#utility.yul\":3672:3708   */\n    tag_128:\n        /* \"#utility.yul\":3524:3715   */\n      swap3\n      swap2\n      pop\n      pop\n      jump\t// out\n        /* \"#utility.yul\":3721:4053   */\n    tag_43:\n        /* \"#utility.yul\":3842:3846   */\n      0x00\n        /* \"#utility.yul\":3880:3882   */\n      0x40\n        /* \"#utility.yul\":3869:3878   */\n      dup3\n        /* \"#utility.yul\":3865:3883   */\n      add\n        /* \"#utility.yul\":3857:3883   */\n      swap1\n      pop\n        /* \"#utility.yul\":3893:3964   */\n      tag_131\n        /* \"#utility.yul\":3961:3962   */\n      0x00\n        /* \"#utility.yul\":3950:3959   */\n      dup4\n        /* \"#utility.yul\":3946:3963   */\n      add\n        /* \"#utility.yul\":3937:3943   */\n      dup6\n        /* \"#utility.yul\":3893:3964   */\n      tag_75\n      jump\t// in\n    tag_131:\n        /* \"#utility.yul\":3974:4046   */\n      tag_132\n        /* \"#utility.yul\":4042:4044   */\n      0x20\n        /* \"#utility.yul\":4031:4040   */\n      dup4\n        /* \"#utility.yul\":4027:4045   */\n      add\n        /* \"#utility.yul\":4018:4024   */\n      dup5\n        /* \"#utility.yul\":3974:4046   */\n      tag_75\n      jump\t// in\n    tag_132:\n        /* \"#utility.yul\":3721:4053   */\n      swap4\n      swap3\n      pop\n      pop\n      pop\n      jump\t// out\n        /* \"#utility.yul\":4059:4391   */\n    tag_48:\n        /* \"#utility.yul\":4180:4184   */\n      0x00\n        /* \"#utility.yul\":4218:4220   */\n      0x40\n        /* \"#utility.yul\":4207:4216   */\n      dup3\n        /* \"#utility.yul\":4203:4221   */\n      add\n        /* \"#utility.yul\":4195:4221   */\n      swap1\n      pop\n        /* \"#utility.yul\":4231:4302   */\n      tag_134\n        /* \"#utility.yul\":4299:4300   */\n      0x00\n        /* \"#utility.yul\":4288:4297   */\n      dup4\n        /* \"#utility.yul\":4284:4301   */\n      add\n        /* \"#utility.yul\":4275:4281   */\n      dup6\n        /* \"#utility.yul\":4231:4302   */\n      tag_73\n      jump\t// in\n    tag_134:\n        /* \"#utility.yul\":4312:4384   */\n      tag_135\n        /* \"#utility.yul\":4380:4382   */\n      0x20\n        /* \"#utility.yul\":4369:4378   */\n      dup4\n        /* \"#utility.yul\":4365:4383   */\n      add\n        /* \"#utility.yul\":4356:4362   */\n      dup5\n        /* \"#utility.yul\":4312:4384   */\n      tag_75\n      jump\t// in\n    tag_135:\n        /* \"#utility.yul\":4059:4391   */\n      swap4\n      swap3\n      pop\n      pop\n      pop\n      jump\t// out\n        /* \"#utility.yul\":4397:4544   */\n    tag_82:\n        /* \"#utility.yul\":4498:4509   */\n      0x00\n        /* \"#utility.yul\":4535:4538   */\n      dup2\n        /* \"#utility.yul\":4520:4538   */\n      swap1\n      pop\n        /* \"#utility.yul\":4397:4544   */\n      swap3\n      swap2\n      pop\n      pop\n      jump\t// out\n        /* \"#utility.yul\":4550:4664   */\n    tag_83:\n      pop\n      jump\t// out\n        /* \"#utility.yul\":4670:5068   */\n    tag_84:\n        /* \"#utility.yul\":4829:4832   */\n      0x00\n        /* \"#utility.yul\":4850:4933   */\n      tag_139\n        /* \"#utility.yul\":4931:4932   */\n      0x00\n        /* \"#utility.yul\":4926:4929   */\n      dup4\n        /* \"#utility.yul\":4850:4933   */\n      tag_82\n      jump\t// in\n    tag_139:\n        /* \"#utility.yul\":4843:4933   */\n      swap2\n      pop\n        /* \"#utility.yul\":4942:5035   */\n      tag_140\n        /* \"#utility.yul\":5031:5034   */\n      dup3\n        /* \"#utility.yul\":4942:5035   */\n      tag_83\n      jump\t// in\n    tag_140:\n        /* \"#utility.yul\":5060:5061   */\n      0x00\n        /* \"#utility.yul\":5055:5058   */\n      dup3\n        /* \"#utility.yul\":5051:5062   */\n      add\n        /* \"#utility.yul\":5044:5062   */\n      swap1\n      pop\n        /* \"#utility.yul\":4670:5068   */\n      swap2\n      swap1\n      pop\n      jump\t// out\n        /* \"#utility.yul\":5074:5453   */\n    tag_52:\n        /* \"#utility.yul\":5258:5261   */\n      0x00\n        /* \"#utility.yul\":5280:5427   */\n      tag_142\n        /* \"#utility.yul\":5423:5426   */\n      dup3\n        /* \"#utility.yul\":5280:5427   */\n      tag_84\n      jump\t// in\n    tag_142:\n        /* \"#utility.yul\":5273:5427   */\n      swap2\n      pop\n        /* \"#utility.yul\":5444:5447   */\n      dup2\n        /* \"#utility.yul\":5437:5447   */\n      swap1\n      pop\n        /* \"#utility.yul\":5074:5453   */\n      swap2\n      swap1\n      pop\n      jump\t// out\n        /* \"#utility.yul\":5459:5624   */\n    tag_85:\n        /* \"#utility.yul\":5599:5616   */\n      0x7472616e73666572206661696c65640000000000000000000000000000000000\n        /* \"#utility.yul\":5595:5596   */\n      0x00\n        /* \"#utility.yul\":5587:5593   */\n      dup3\n        /* \"#utility.yul\":5583:5597   */\n      add\n        /* \"#utility.yul\":5576:5617   */\n      mstore\n        /* \"#utility.yul\":5459:5624   */\n      pop\n      jump\t// out\n        /* \"#utility.yul\":5630:5996   */\n    tag_86:\n        /* \"#utility.yul\":5772:5775   */\n      0x00\n        /* \"#utility.yul\":5793:5860   */\n      tag_145\n        /* \"#utility.yul\":5857:5859   */\n      0x0f\n        /* \"#utility.yul\":5852:5855   */\n      dup4\n        /* \"#utility.yul\":5793:5860   */\n      tag_77\n      jump\t// in\n    tag_145:\n        /* \"#utility.yul\":5786:5860   */\n      swap2\n      pop\n        /* \"#utility.yul\":5869:5962   */\n      tag_146\n        /* \"#utility.yul\":5958:5961   */\n      dup3\n        /* \"#utility.yul\":5869:5962   */\n      tag_85\n      jump\t// in\n    tag_146:\n        /* \"#utility.yul\":5987:5989   */\n      0x20\n        /* \"#utility.yul\":5982:5985   */\n      dup3\n        /* \"#utility.yul\":5978:5990   */\n      add\n        /* \"#utility.yul\":5971:5990   */\n      swap1\n      pop\n        /* \"#utility.yul\":5630:5996   */\n      swap2\n      swap1\n      pop\n      jump\t// out\n        /* \"#utility.yul\":6002:6421   */\n    tag_58:\n        /* \"#utility.yul\":6168:6172   */\n      0x00\n        /* \"#utility.yul\":6206:6208   */\n      0x20\n        /* \"#utility.yul\":6195:6204   */\n      dup3\n        /* \"#utility.yul\":6191:6209   */\n      add\n        /* \"#utility.yul\":6183:6209   */\n      swap1\n      pop\n        /* \"#utility.yul\":6255:6264   */\n      dup2\n        /* \"#utility.yul\":6249:6253   */\n      dup2\n        /* \"#utility.yul\":6245:6265   */\n      sub\n        /* \"#utility.yul\":6241:6242   */\n      0x00\n        /* \"#utility.yul\":6230:6239   */\n      dup4\n        /* \"#utility.yul\":6226:6243   */\n      add\n        /* \"#utility.yul\":6219:6266   */\n      mstore\n        /* \"#utility.yul\":6283:6414   */\n      tag_148\n        /* \"#utility.yul\":6409:6413   */\n      dup2\n        /* \"#utility.yul\":6283:6414   */\n      tag_86\n      jump\t// in\n    tag_148:\n        /* \"#utility.yul\":6275:6414   */\n      swap1\n      pop\n        /* \"#utility.yul\":6002:6421   */\n      swap2\n      swap1\n      pop\n      jump\t// out\n        /* \"#utility.yul\":6427:6598   */\n    tag_87:\n        /* \"#utility.yul\":6567:6590   */\n      0x796f7520617265206e6f7420746865206f6e7765720000000000000000000000\n        /* \"#utility.yul\":6563:6564   */\n      0x00\n        /* \"#utility.yul\":6555:6561   */\n      dup3\n        /* \"#utility.yul\":6551:6565   */\n      add\n        /* \"#utility.yul\":6544:6591   */\n      mstore\n        /* \"#utility.yul\":6427:6598   */\n      pop\n      jump\t// out\n        /* \"#utility.yul\":6604:6970   */\n    tag_88:\n        /* \"#utility.yul\":6746:6749   */\n      0x00\n        /* \"#utility.yul\":6767:6834   */\n      tag_151\n        /* \"#utility.yul\":6831:6833   */\n      0x15\n        /* \"#utility.yul\":6826:6829   */\n      dup4\n        /* \"#utility.yul\":6767:6834   */\n      tag_77\n      jump\t// in\n    tag_151:\n        /* \"#utility.yul\":6760:6834   */\n      swap2\n      pop\n        /* \"#utility.yul\":6843:6936   */\n      tag_152\n        /* \"#utility.yul\":6932:6935   */\n      dup3\n        /* \"#utility.yul\":6843:6936   */\n      tag_87\n      jump\t// in\n    tag_152:\n        /* \"#utility.yul\":6961:6963   */\n      0x20\n        /* \"#utility.yul\":6956:6959   */\n      dup3\n        /* \"#utility.yul\":6952:6964   */\n      add\n        /* \"#utility.yul\":6945:6964   */\n      swap1\n      pop\n        /* \"#utility.yul\":6604:6970   */\n      swap2\n      swap1\n      pop\n      jump\t// out\n        /* \"#utility.yul\":6976:7395   */\n    tag_63:\n        /* \"#utility.yul\":7142:7146   */\n      0x00\n        /* \"#utility.yul\":7180:7182   */\n      0x20\n        /* \"#utility.yul\":7169:7178   */\n      dup3\n        /* \"#utility.yul\":7165:7183   */\n      add\n        /* \"#utility.yul\":7157:7183   */\n      swap1\n      pop\n        /* \"#utility.yul\":7229:7238   */\n      dup2\n        /* \"#utility.yul\":7223:7227   */\n      dup2\n        /* \"#utility.yul\":7219:7239   */\n      sub\n        /* \"#utility.yul\":7215:7216   */\n      0x00\n        /* \"#utility.yul\":7204:7213   */\n      dup4\n        /* \"#utility.yul\":7200:7217   */\n      add\n        /* \"#utility.yul\":7193:7240   */\n      mstore\n        /* \"#utility.yul\":7257:7388   */\n      tag_154\n        /* \"#utility.yul\":7383:7387   */\n      dup2\n        /* \"#utility.yul\":7257:7388   */\n      tag_88\n      jump\t// in\n    tag_154:\n        /* \"#utility.yul\":7249:7388   */\n      swap1\n      pop\n        /* \"#utility.yul\":6976:7395   */\n      swap2\n      swap1\n      pop\n      jump\t// out\n        /* \"#utility.yul\":7401:7580   */\n    tag_89:\n        /* \"#utility.yul\":7541:7572   */\n      0x61756374696f6e20686173206e6f7420636f6d706c6574656420796574000000\n        /* \"#utility.yul\":7537:7538   */\n      0x00\n        /* \"#utility.yul\":7529:7535   */\n      dup3\n        /* \"#utility.yul\":7525:7539   */\n      add\n        /* \"#utility.yul\":7518:7573   */\n      mstore\n        /* \"#utility.yul\":7401:7580   */\n      pop\n      jump\t// out\n        /* \"#utility.yul\":7586:7952   */\n    tag_90:\n        /* \"#utility.yul\":7728:7731   */\n      0x00\n        /* \"#utility.yul\":7749:7816   */\n      tag_157\n        /* \"#utility.yul\":7813:7815   */\n      0x1d\n        /* \"#utility.yul\":7808:7811   */\n      dup4\n        /* \"#utility.yul\":7749:7816   */\n      tag_77\n      jump\t// in\n    tag_157:\n        /* \"#utility.yul\":7742:7816   */\n      swap2\n      pop\n        /* \"#utility.yul\":7825:7918   */\n      tag_158\n        /* \"#utility.yul\":7914:7917   */\n      dup3\n        /* \"#utility.yul\":7825:7918   */\n      tag_89\n      jump\t// in\n    tag_158:\n        /* \"#utility.yul\":7943:7945   */\n      0x20\n        /* \"#utility.yul\":7938:7941   */\n      dup3\n        /* \"#utility.yul\":7934:7946   */\n      add\n        /* \"#utility.yul\":7927:7946   */\n      swap1\n      pop\n        /* \"#utility.yul\":7586:7952   */\n      swap2\n      swap1\n      pop\n      jump\t// out\n        /* \"#utility.yul\":7958:8377   */\n    tag_67:\n        /* \"#utility.yul\":8124:8128   */\n      0x00\n        /* \"#utility.yul\":8162:8164   */\n      0x20\n        /* \"#utility.yul\":8151:8160   */\n      dup3\n        /* \"#utility.yul\":8147:8165   */\n      add\n        /* \"#utility.yul\":8139:8165   */\n      swap1\n      pop\n        /* \"#utility.yul\":8211:8220   */\n      dup2\n        /* \"#utility.yul\":8205:8209   */\n      dup2\n        /* \"#utility.yul\":8201:8221   */\n      sub\n        /* \"#utility.yul\":8197:8198   */\n      0x00\n        /* \"#utility.yul\":8186:8195   */\n      dup4\n        /* \"#utility.yul\":8182:8199   */\n      add\n        /* \"#utility.yul\":8175:8222   */\n      mstore\n        /* \"#utility.yul\":8239:8370   */\n      tag_160\n        /* \"#utility.yul\":8365:8369   */\n      dup2\n        /* \"#utility.yul\":8239:8370   */\n      tag_90\n      jump\t// in\n    tag_160:\n        /* \"#utility.yul\":8231:8370   */\n      swap1\n      pop\n        /* \"#utility.yul\":7958:8377   */\n      swap2\n      swap1\n      pop\n      jump\t// out\n        /* \"#utility.yul\":8383:8611   */\n    tag_91:\n        /* \"#utility.yul\":8523:8557   */\n      0x6e6f7420616c6c207573657273206861766520636c61696d6564207468656972\n        /* \"#utility.yul\":8519:8520   */\n      0x00\n        /* \"#utility.yul\":8511:8517   */\n      dup3\n        /* \"#utility.yul\":8507:8521   */\n      add\n        /* \"#utility.yul\":8500:8558   */\n      mstore\n        /* \"#utility.yul\":8592:8603   */\n      0x2062696473207965740000000000000000000000000000000000000000000000\n        /* \"#utility.yul\":8587:8589   */\n      0x20\n        /* \"#utility.yul\":8579:8585   */\n      dup3\n        /* \"#utility.yul\":8575:8590   */\n      add\n        /* \"#utility.yul\":8568:8604   */\n      mstore\n        /* \"#utility.yul\":8383:8611   */\n      pop\n      jump\t// out\n        /* \"#utility.yul\":8617:8983   */\n    tag_92:\n        /* \"#utility.yul\":8759:8762   */\n      0x00\n        /* \"#utility.yul\":8780:8847   */\n      tag_163\n        /* \"#utility.yul\":8844:8846   */\n      0x29\n        /* \"#utility.yul\":8839:8842   */\n      dup4\n        /* \"#utility.yul\":8780:8847   */\n      tag_77\n      jump\t// in\n    tag_163:\n        /* \"#utility.yul\":8773:8847   */\n      swap2\n      pop\n        /* \"#utility.yul\":8856:8949   */\n      tag_164\n        /* \"#utility.yul\":8945:8948   */\n      dup3\n        /* \"#utility.yul\":8856:8949   */\n      tag_91\n      jump\t// in\n    tag_164:\n        /* \"#utility.yul\":8974:8976   */\n      0x40\n        /* \"#utility.yul\":8969:8972   */\n      dup3\n        /* \"#utility.yul\":8965:8977   */\n      add\n        /* \"#utility.yul\":8958:8977   */\n      swap1\n      pop\n        /* \"#utility.yul\":8617:8983   */\n      swap2\n      swap1\n      pop\n      jump\t// out\n        /* \"#utility.yul\":8989:9408   */\n    tag_70:\n        /* \"#utility.yul\":9155:9159   */\n      0x00\n        /* \"#utility.yul\":9193:9195   */\n      0x20\n        /* \"#utility.yul\":9182:9191   */\n      dup3\n        /* \"#utility.yul\":9178:9196   */\n      add\n        /* \"#utility.yul\":9170:9196   */\n      swap1\n      pop\n        /* \"#utility.yul\":9242:9251   */\n      dup2\n        /* \"#utility.yul\":9236:9240   */\n      dup2\n        /* \"#utility.yul\":9232:9252   */\n      sub\n        /* \"#utility.yul\":9228:9229   */\n      0x00\n        /* \"#utility.yul\":9217:9226   */\n      dup4\n        /* \"#utility.yul\":9213:9230   */\n      add\n        /* \"#utility.yul\":9206:9253   */\n      mstore\n        /* \"#utility.yul\":9270:9401   */\n      tag_166\n        /* \"#utility.yul\":9396:9400   */\n      dup2\n        /* \"#utility.yul\":9270:9401   */\n      tag_92\n      jump\t// in\n    tag_166:\n        /* \"#utility.yul\":9262:9401   */\n      swap1\n      pop\n        /* \"#utility.yul\":8989:9408   */\n      swap2\n      swap1\n      pop\n      jump\t// out\n\n    auxdata: 0xa2646970667358221220bacc77530ad210536211e23af083a997d4575e8c4b1c24ed0e7001609b7db80764736f6c63430008110033\n}\n",
				"bytecode": {
					"linkReferences": {},
					"object": "608060405234801561001057600080fd5b5033600460006101000a81548173ffffffffffffffffffffffffffffffffffffffff021916908373ffffffffffffffffffffffffffffffffffffffff16021790555042600581905550610ab0806100686000396000f3fe6080604052600436106100545760003560e01c80623495a4146100595780631998aeef146100845780632b5e38831461008e5780633ccfd60b146100a55780634979440a146100bc5780634e71d92d146100e7575b600080fd5b34801561006557600080fd5b5061006e6100fe565b60405161007b919061063d565b60405180910390f35b61008c610127565b005b34801561009a57600080fd5b506100a36102e9565b005b3480156100b157600080fd5b506100ba61033e565b005b3480156100c857600080fd5b506100d1610490565b6040516100de9190610671565b60405180910390f35b3480156100f357600080fd5b506100fc61049a565b005b60008060009054906101000a900473ffffffffffffffffffffffffffffffffffffffff16905090565b61012c6005544261013891906106bb565b10610178576040517f08c379a000000000000000000000000000000000000000000000000000000000815260040161016f9061074c565b60405180910390fd5b60015434116101bc576040517f08c379a00000000000000000000000000000000000000000000000000000000081526004016101b3906107b8565b60405180910390fd5b600154600260008060009054906101000a900473ffffffffffffffffffffffffffffffffffffffff1673ffffffffffffffffffffffffffffffffffffffff1673ffffffffffffffffffffffffffffffffffffffff168152602001908152602001600020600082825461022e91906107d8565b925050819055506001546003600082825461024991906107d8565b92505081905550336000806101000a81548173ffffffffffffffffffffffffffffffffffffffff021916908373ffffffffffffffffffffffffffffffffffffffff160217905550346001819055503373ffffffffffffffffffffffffffffffffffffffff167f19421268847f42dd61705778018ddfc43bcdce8517e7a630acb12f122c70948134426040516102df92919061080c565b60405180910390a2565b60006102f36100fe565b905060006102ff610490565b90507f9dbb402ff86f3c1e6fe41dd5896a95da44e9f0cee5ec20c6c6fc98fa2c3a788e8282604051610332929190610835565b60405180910390a15050565b6000600260003373ffffffffffffffffffffffffffffffffffffffff1673ffffffffffffffffffffffffffffffffffffffff1681526020019081526020016000205490506000600260003373ffffffffffffffffffffffffffffffffffffffff1673ffffffffffffffffffffffffffffffffffffffff1681526020019081526020016000208190555080600360008282546103d991906106bb565b9250508190555060003373ffffffffffffffffffffffffffffffffffffffff16826040516104069061088f565b60006040518083038185875af1925050503d8060008114610443576040519150601f19603f3d011682016040523d82523d6000602084013e610448565b606091505b505090508061048c576040517f08c379a0000000000000000000000000000000000000000000000000000000008152600401610483906108f0565b60405180910390fd5b5050565b6000600154905090565b600460009054906101000a900473ffffffffffffffffffffffffffffffffffffffff1673ffffffffffffffffffffffffffffffffffffffff163373ffffffffffffffffffffffffffffffffffffffff161461052a576040517f08c379a00000000000000000000000000000000000000000000000000000000081526004016105219061095c565b60405180910390fd5b61012c6005544261053b91906106bb565b101561057c576040517f08c379a0000000000000000000000000000000000000000000000000000000008152600401610573906109c8565b60405180910390fd5b6000600354146105c1576040517f08c379a00000000000000000000000000000000000000000000000000000000081526004016105b890610a5a565b60405180910390fd5b600460009054906101000a900473ffffffffffffffffffffffffffffffffffffffff1673ffffffffffffffffffffffffffffffffffffffff16ff5b600073ffffffffffffffffffffffffffffffffffffffff82169050919050565b6000610627826105fc565b9050919050565b6106378161061c565b82525050565b6000602082019050610652600083018461062e565b92915050565b6000819050919050565b61066b81610658565b82525050565b60006020820190506106866000830184610662565b92915050565b7f4e487b7100000000000000000000000000000000000000000000000000000000600052601160045260246000fd5b60006106c682610658565b91506106d183610658565b92508282039050818111156106e9576106e861068c565b5b92915050565b600082825260208201905092915050565b7f61756374696f6e206973206f7665720000000000000000000000000000000000600082015250565b6000610736600f836106ef565b915061074182610700565b602082019050919050565b6000602082019050818103600083015261076581610729565b9050919050565b7f62696420697320746f6f206c6f77000000000000000000000000000000000000600082015250565b60006107a2600e836106ef565b91506107ad8261076c565b602082019050919050565b600060208201905081810360008301526107d181610795565b9050919050565b60006107e382610658565b91506107ee83610658565b92508282019050808211156108065761080561068c565b5b92915050565b60006040820190506108216000830185610662565b61082e6020830184610662565b9392505050565b600060408201905061084a600083018561062e565b6108576020830184610662565b9392505050565b600081905092915050565b50565b600061087960008361085e565b915061088482610869565b600082019050919050565b600061089a8261086c565b9150819050919050565b7f7472616e73666572206661696c65640000000000000000000000000000000000600082015250565b60006108da600f836106ef565b91506108e5826108a4565b602082019050919050565b60006020820190508181036000830152610909816108cd565b9050919050565b7f796f7520617265206e6f7420746865206f6e7765720000000000000000000000600082015250565b60006109466015836106ef565b915061095182610910565b602082019050919050565b6000602082019050818103600083015261097581610939565b9050919050565b7f61756374696f6e20686173206e6f7420636f6d706c6574656420796574000000600082015250565b60006109b2601d836106ef565b91506109bd8261097c565b602082019050919050565b600060208201905081810360008301526109e1816109a5565b9050919050565b7f6e6f7420616c6c207573657273206861766520636c61696d656420746865697260008201527f2062696473207965740000000000000000000000000000000000000000000000602082015250565b6000610a446029836106ef565b9150610a4f826109e8565b604082019050919050565b60006020820190508181036000830152610a7381610a37565b905091905056fea2646970667358221220bacc77530ad210536211e23af083a997d4575e8c4b1c24ed0e7001609b7db80764736f6c63430008110033",
					"opcodes": "PUSH1 0x80 PUSH1 0x40 MSTORE CALLVALUE DUP1 ISZERO PUSH2 0x10 JUMPI PUSH1 0x0 DUP1 REVERT JUMPDEST POP CALLER PUSH1 0x4 PUSH1 0x0 PUSH2 0x100 EXP DUP2 SLOAD DUP2 PUSH20 0xFFFFFFFFFFFFFFFFFFFFFFFFFFFFFFFFFFFFFFFF MUL NOT AND SWAP1 DUP4 PUSH20 0xFFFFFFFFFFFFFFFFFFFFFFFFFFFFFFFFFFFFFFFF AND MUL OR SWAP1 SSTORE POP TIMESTAMP PUSH1 0x5 DUP2 SWAP1 SSTORE POP PUSH2 0xAB0 DUP1 PUSH2 0x68 PUSH1 0x0 CODECOPY PUSH1 0x0 RETURN INVALID PUSH1 0x80 PUSH1 0x40 MSTORE PUSH1 0x4 CALLDATASIZE LT PUSH2 0x54 JUMPI PUSH1 0x0 CALLDATALOAD PUSH1 0xE0 SHR DUP1 PUSH3 0x3495A4 EQ PUSH2 0x59 JUMPI DUP1 PUSH4 0x1998AEEF EQ PUSH2 0x84 JUMPI DUP1 PUSH4 0x2B5E3883 EQ PUSH2 0x8E JUMPI DUP1 PUSH4 0x3CCFD60B EQ PUSH2 0xA5 JUMPI DUP1 PUSH4 0x4979440A EQ PUSH2 0xBC JUMPI DUP1 PUSH4 0x4E71D92D EQ PUSH2 0xE7 JUMPI JUMPDEST PUSH1 0x0 DUP1 REVERT JUMPDEST CALLVALUE DUP1 ISZERO PUSH2 0x65 JUMPI PUSH1 0x0 DUP1 REVERT JUMPDEST POP PUSH2 0x6E PUSH2 0xFE JUMP JUMPDEST PUSH1 0x40 MLOAD PUSH2 0x7B SWAP2 SWAP1 PUSH2 0x63D JUMP JUMPDEST PUSH1 0x40 MLOAD DUP1 SWAP2 SUB SWAP1 RETURN JUMPDEST PUSH2 0x8C PUSH2 0x127 JUMP JUMPDEST STOP JUMPDEST CALLVALUE DUP1 ISZERO PUSH2 0x9A JUMPI PUSH1 0x0 DUP1 REVERT JUMPDEST POP PUSH2 0xA3 PUSH2 0x2E9 JUMP JUMPDEST STOP JUMPDEST CALLVALUE DUP1 ISZERO PUSH2 0xB1 JUMPI PUSH1 0x0 DUP1 REVERT JUMPDEST POP PUSH2 0xBA PUSH2 0x33E JUMP JUMPDEST STOP JUMPDEST CALLVALUE DUP1 ISZERO PUSH2 0xC8 JUMPI PUSH1 0x0 DUP1 REVERT JUMPDEST POP PUSH2 0xD1 PUSH2 0x490 JUMP JUMPDEST PUSH1 0x40 MLOAD PUSH2 0xDE SWAP2 SWAP1 PUSH2 0x671 JUMP JUMPDEST PUSH1 0x40 MLOAD DUP1 SWAP2 SUB SWAP1 RETURN JUMPDEST CALLVALUE DUP1 ISZERO PUSH2 0xF3 JUMPI PUSH1 0x0 DUP1 REVERT JUMPDEST POP PUSH2 0xFC PUSH2 0x49A JUMP JUMPDEST STOP JUMPDEST PUSH1 0x0 DUP1 PUSH1 0x0 SWAP1 SLOAD SWAP1 PUSH2 0x100 EXP SWAP1 DIV PUSH20 0xFFFFFFFFFFFFFFFFFFFFFFFFFFFFFFFFFFFFFFFF AND SWAP1 POP SWAP1 JUMP JUMPDEST PUSH2 0x12C PUSH1 0x5 SLOAD TIMESTAMP PUSH2 0x138 SWAP2 SWAP1 PUSH2 0x6BB JUMP JUMPDEST LT PUSH2 0x178 JUMPI PUSH1 0x40 MLOAD PUSH32 0x8C379A000000000000000000000000000000000000000000000000000000000 DUP2 MSTORE PUSH1 0x4 ADD PUSH2 0x16F SWAP1 PUSH2 0x74C JUMP JUMPDEST PUSH1 0x40 MLOAD DUP1 SWAP2 SUB SWAP1 REVERT JUMPDEST PUSH1 0x1 SLOAD CALLVALUE GT PUSH2 0x1BC JUMPI PUSH1 0x40 MLOAD PUSH32 0x8C379A000000000000000000000000000000000000000000000000000000000 DUP2 MSTORE PUSH1 0x4 ADD PUSH2 0x1B3 SWAP1 PUSH2 0x7B8 JUMP JUMPDEST PUSH1 0x40 MLOAD DUP1 SWAP2 SUB SWAP1 REVERT JUMPDEST PUSH1 0x1 SLOAD PUSH1 0x2 PUSH1 0x0 DUP1 PUSH1 0x0 SWAP1 SLOAD SWAP1 PUSH2 0x100 EXP SWAP1 DIV PUSH20 0xFFFFFFFFFFFFFFFFFFFFFFFFFFFFFFFFFFFFFFFF AND PUSH20 0xFFFFFFFFFFFFFFFFFFFFFFFFFFFFFFFFFFFFFFFF AND PUSH20 0xFFFFFFFFFFFFFFFFFFFFFFFFFFFFFFFFFFFFFFFF AND DUP2 MSTORE PUSH1 0x20 ADD SWAP1 DUP2 MSTORE PUSH1 0x20 ADD PUSH1 0x0 KECCAK256 PUSH1 0x0 DUP3 DUP3 SLOAD PUSH2 0x22E SWAP2 SWAP1 PUSH2 0x7D8 JUMP JUMPDEST SWAP3 POP POP DUP2 SWAP1 SSTORE POP PUSH1 0x1 SLOAD PUSH1 0x3 PUSH1 0x0 DUP3 DUP3 SLOAD PUSH2 0x249 SWAP2 SWAP1 PUSH2 0x7D8 JUMP JUMPDEST SWAP3 POP POP DUP2 SWAP1 SSTORE POP CALLER PUSH1 0x0 DUP1 PUSH2 0x100 EXP DUP2 SLOAD DUP2 PUSH20 0xFFFFFFFFFFFFFFFFFFFFFFFFFFFFFFFFFFFFFFFF MUL NOT AND SWAP1 DUP4 PUSH20 0xFFFFFFFFFFFFFFFFFFFFFFFFFFFFFFFFFFFFFFFF AND MUL OR SWAP1 SSTORE POP CALLVALUE PUSH1 0x1 DUP2 SWAP1 SSTORE POP CALLER PUSH20 0xFFFFFFFFFFFFFFFFFFFFFFFFFFFFFFFFFFFFFFFF AND PUSH32 0x19421268847F42DD61705778018DDFC43BCDCE8517E7A630ACB12F122C709481 CALLVALUE TIMESTAMP PUSH1 0x40 MLOAD PUSH2 0x2DF SWAP3 SWAP2 SWAP1 PUSH2 0x80C JUMP JUMPDEST PUSH1 0x40 MLOAD DUP1 SWAP2 SUB SWAP1 LOG2 JUMP JUMPDEST PUSH1 0x0 PUSH2 0x2F3 PUSH2 0xFE JUMP JUMPDEST SWAP1 POP PUSH1 0x0 PUSH2 0x2FF PUSH2 0x490 JUMP JUMPDEST SWAP1 POP PUSH32 0x9DBB402FF86F3C1E6FE41DD5896A95DA44E9F0CEE5EC20C6C6FC98FA2C3A788E DUP3 DUP3 PUSH1 0x40 MLOAD PUSH2 0x332 SWAP3 SWAP2 SWAP1 PUSH2 0x835 JUMP JUMPDEST PUSH1 0x40 MLOAD DUP1 SWAP2 SUB SWAP1 LOG1 POP POP JUMP JUMPDEST PUSH1 0x0 PUSH1 0x2 PUSH1 0x0 CALLER PUSH20 0xFFFFFFFFFFFFFFFFFFFFFFFFFFFFFFFFFFFFFFFF AND PUSH20 0xFFFFFFFFFFFFFFFFFFFFFFFFFFFFFFFFFFFFFFFF AND DUP2 MSTORE PUSH1 0x20 ADD SWAP1 DUP2 MSTORE PUSH1 0x20 ADD PUSH1 0x0 KECCAK256 SLOAD SWAP1 POP PUSH1 0x0 PUSH1 0x2 PUSH1 0x0 CALLER PUSH20 0xFFFFFFFFFFFFFFFFFFFFFFFFFFFFFFFFFFFFFFFF AND PUSH20 0xFFFFFFFFFFFFFFFFFFFFFFFFFFFFFFFFFFFFFFFF AND DUP2 MSTORE PUSH1 0x20 ADD SWAP1 DUP2 MSTORE PUSH1 0x20 ADD PUSH1 0x0 KECCAK256 DUP2 SWAP1 SSTORE POP DUP1 PUSH1 0x3 PUSH1 0x0 DUP3 DUP3 SLOAD PUSH2 0x3D9 SWAP2 SWAP1 PUSH2 0x6BB JUMP JUMPDEST SWAP3 POP POP DUP2 SWAP1 SSTORE POP PUSH1 0x0 CALLER PUSH20 0xFFFFFFFFFFFFFFFFFFFFFFFFFFFFFFFFFFFFFFFF AND DUP3 PUSH1 0x40 MLOAD PUSH2 0x406 SWAP1 PUSH2 0x88F JUMP JUMPDEST PUSH1 0x0 PUSH1 0x40 MLOAD DUP1 DUP4 SUB DUP2 DUP6 DUP8 GAS CALL SWAP3 POP POP POP RETURNDATASIZE DUP1 PUSH1 0x0 DUP2 EQ PUSH2 0x443 JUMPI PUSH1 0x40 MLOAD SWAP2 POP PUSH1 0x1F NOT PUSH1 0x3F RETURNDATASIZE ADD AND DUP3 ADD PUSH1 0x40 MSTORE RETURNDATASIZE DUP3 MSTORE RETURNDATASIZE PUSH1 0x0 PUSH1 0x20 DUP5 ADD RETURNDATACOPY PUSH2 0x448 JUMP JUMPDEST PUSH1 0x60 SWAP2 POP JUMPDEST POP POP SWAP1 POP DUP1 PUSH2 0x48C JUMPI PUSH1 0x40 MLOAD PUSH32 0x8C379A000000000000000000000000000000000000000000000000000000000 DUP2 MSTORE PUSH1 0x4 ADD PUSH2 0x483 SWAP1 PUSH2 0x8F0 JUMP JUMPDEST PUSH1 0x40 MLOAD DUP1 SWAP2 SUB SWAP1 REVERT JUMPDEST POP POP JUMP JUMPDEST PUSH1 0x0 PUSH1 0x1 SLOAD SWAP1 POP SWAP1 JUMP JUMPDEST PUSH1 0x4 PUSH1 0x0 SWAP1 SLOAD SWAP1 PUSH2 0x100 EXP SWAP1 DIV PUSH20 0xFFFFFFFFFFFFFFFFFFFFFFFFFFFFFFFFFFFFFFFF AND PUSH20 0xFFFFFFFFFFFFFFFFFFFFFFFFFFFFFFFFFFFFFFFF AND CALLER PUSH20 0xFFFFFFFFFFFFFFFFFFFFFFFFFFFFFFFFFFFFFFFF AND EQ PUSH2 0x52A JUMPI PUSH1 0x40 MLOAD PUSH32 0x8C379A000000000000000000000000000000000000000000000000000000000 DUP2 MSTORE PUSH1 0x4 ADD PUSH2 0x521 SWAP1 PUSH2 0x95C JUMP JUMPDEST PUSH1 0x40 MLOAD DUP1 SWAP2 SUB SWAP1 REVERT JUMPDEST PUSH2 0x12C PUSH1 0x5 SLOAD TIMESTAMP PUSH2 0x53B SWAP2 SWAP1 PUSH2 0x6BB JUMP JUMPDEST LT ISZERO PUSH2 0x57C JUMPI PUSH1 0x40 MLOAD PUSH32 0x8C379A000000000000000000000000000000000000000000000000000000000 DUP2 MSTORE PUSH1 0x4 ADD PUSH2 0x573 SWAP1 PUSH2 0x9C8 JUMP JUMPDEST PUSH1 0x40 MLOAD DUP1 SWAP2 SUB SWAP1 REVERT JUMPDEST PUSH1 0x0 PUSH1 0x3 SLOAD EQ PUSH2 0x5C1 JUMPI PUSH1 0x40 MLOAD PUSH32 0x8C379A000000000000000000000000000000000000000000000000000000000 DUP2 MSTORE PUSH1 0x4 ADD PUSH2 0x5B8 SWAP1 PUSH2 0xA5A JUMP JUMPDEST PUSH1 0x40 MLOAD DUP1 SWAP2 SUB SWAP1 REVERT JUMPDEST PUSH1 0x4 PUSH1 0x0 SWAP1 SLOAD SWAP1 PUSH2 0x100 EXP SWAP1 DIV PUSH20 0xFFFFFFFFFFFFFFFFFFFFFFFFFFFFFFFFFFFFFFFF AND PUSH20 0xFFFFFFFFFFFFFFFFFFFFFFFFFFFFFFFFFFFFFFFF AND SELFDESTRUCT JUMPDEST PUSH1 0x0 PUSH20 0xFFFFFFFFFFFFFFFFFFFFFFFFFFFFFFFFFFFFFFFF DUP3 AND SWAP1 POP SWAP2 SWAP1 POP JUMP JUMPDEST PUSH1 0x0 PUSH2 0x627 DUP3 PUSH2 0x5FC JUMP JUMPDEST SWAP1 POP SWAP2 SWAP1 POP JUMP JUMPDEST PUSH2 0x637 DUP2 PUSH2 0x61C JUMP JUMPDEST DUP3 MSTORE POP POP JUMP JUMPDEST PUSH1 0x0 PUSH1 0x20 DUP3 ADD SWAP1 POP PUSH2 0x652 PUSH1 0x0 DUP4 ADD DUP5 PUSH2 0x62E JUMP JUMPDEST SWAP3 SWAP2 POP POP JUMP JUMPDEST PUSH1 0x0 DUP2 SWAP1 POP SWAP2 SWAP1 POP JUMP JUMPDEST PUSH2 0x66B DUP2 PUSH2 0x658 JUMP JUMPDEST DUP3 MSTORE POP POP JUMP JUMPDEST PUSH1 0x0 PUSH1 0x20 DUP3 ADD SWAP1 POP PUSH2 0x686 PUSH1 0x0 DUP4 ADD DUP5 PUSH2 0x662 JUMP JUMPDEST SWAP3 SWAP2 POP POP JUMP JUMPDEST PUSH32 0x4E487B7100000000000000000000000000000000000000000000000000000000 PUSH1 0x0 MSTORE PUSH1 0x11 PUSH1 0x4 MSTORE PUSH1 0x24 PUSH1 0x0 REVERT JUMPDEST PUSH1 0x0 PUSH2 0x6C6 DUP3 PUSH2 0x658 JUMP JUMPDEST SWAP2 POP PUSH2 0x6D1 DUP4 PUSH2 0x658 JUMP JUMPDEST SWAP3 POP DUP3 DUP3 SUB SWAP1 POP DUP2 DUP2 GT ISZERO PUSH2 0x6E9 JUMPI PUSH2 0x6E8 PUSH2 0x68C JUMP JUMPDEST JUMPDEST SWAP3 SWAP2 POP POP JUMP JUMPDEST PUSH1 0x0 DUP3 DUP3 MSTORE PUSH1 0x20 DUP3 ADD SWAP1 POP SWAP3 SWAP2 POP POP JUMP JUMPDEST PUSH32 0x61756374696F6E206973206F7665720000000000000000000000000000000000 PUSH1 0x0 DUP3 ADD MSTORE POP JUMP JUMPDEST PUSH1 0x0 PUSH2 0x736 PUSH1 0xF DUP4 PUSH2 0x6EF JUMP JUMPDEST SWAP2 POP PUSH2 0x741 DUP3 PUSH2 0x700 JUMP JUMPDEST PUSH1 0x20 DUP3 ADD SWAP1 POP SWAP2 SWAP1 POP JUMP JUMPDEST PUSH1 0x0 PUSH1 0x20 DUP3 ADD SWAP1 POP DUP2 DUP2 SUB PUSH1 0x0 DUP4 ADD MSTORE PUSH2 0x765 DUP2 PUSH2 0x729 JUMP JUMPDEST SWAP1 POP SWAP2 SWAP1 POP JUMP JUMPDEST PUSH32 0x62696420697320746F6F206C6F77000000000000000000000000000000000000 PUSH1 0x0 DUP3 ADD MSTORE POP JUMP JUMPDEST PUSH1 0x0 PUSH2 0x7A2 PUSH1 0xE DUP4 PUSH2 0x6EF JUMP JUMPDEST SWAP2 POP PUSH2 0x7AD DUP3 PUSH2 0x76C JUMP JUMPDEST PUSH1 0x20 DUP3 ADD SWAP1 POP SWAP2 SWAP1 POP JUMP JUMPDEST PUSH1 0x0 PUSH1 0x20 DUP3 ADD SWAP1 POP DUP2 DUP2 SUB PUSH1 0x0 DUP4 ADD MSTORE PUSH2 0x7D1 DUP2 PUSH2 0x795 JUMP JUMPDEST SWAP1 POP SWAP2 SWAP1 POP JUMP JUMPDEST PUSH1 0x0 PUSH2 0x7E3 DUP3 PUSH2 0x658 JUMP JUMPDEST SWAP2 POP PUSH2 0x7EE DUP4 PUSH2 0x658 JUMP JUMPDEST SWAP3 POP DUP3 DUP3 ADD SWAP1 POP DUP1 DUP3 GT ISZERO PUSH2 0x806 JUMPI PUSH2 0x805 PUSH2 0x68C JUMP JUMPDEST JUMPDEST SWAP3 SWAP2 POP POP JUMP JUMPDEST PUSH1 0x0 PUSH1 0x40 DUP3 ADD SWAP1 POP PUSH2 0x821 PUSH1 0x0 DUP4 ADD DUP6 PUSH2 0x662 JUMP JUMPDEST PUSH2 0x82E PUSH1 0x20 DUP4 ADD DUP5 PUSH2 0x662 JUMP JUMPDEST SWAP4 SWAP3 POP POP POP JUMP JUMPDEST PUSH1 0x0 PUSH1 0x40 DUP3 ADD SWAP1 POP PUSH2 0x84A PUSH1 0x0 DUP4 ADD DUP6 PUSH2 0x62E JUMP JUMPDEST PUSH2 0x857 PUSH1 0x20 DUP4 ADD DUP5 PUSH2 0x662 JUMP JUMPDEST SWAP4 SWAP3 POP POP POP JUMP JUMPDEST PUSH1 0x0 DUP2 SWAP1 POP SWAP3 SWAP2 POP POP JUMP JUMPDEST POP JUMP JUMPDEST PUSH1 0x0 PUSH2 0x879 PUSH1 0x0 DUP4 PUSH2 0x85E JUMP JUMPDEST SWAP2 POP PUSH2 0x884 DUP3 PUSH2 0x869 JUMP JUMPDEST PUSH1 0x0 DUP3 ADD SWAP1 POP SWAP2 SWAP1 POP JUMP JUMPDEST PUSH1 0x0 PUSH2 0x89A DUP3 PUSH2 0x86C JUMP JUMPDEST SWAP2 POP DUP2 SWAP1 POP SWAP2 SWAP1 POP JUMP JUMPDEST PUSH32 0x7472616E73666572206661696C65640000000000000000000000000000000000 PUSH1 0x0 DUP3 ADD MSTORE POP JUMP JUMPDEST PUSH1 0x0 PUSH2 0x8DA PUSH1 0xF DUP4 PUSH2 0x6EF JUMP JUMPDEST SWAP2 POP PUSH2 0x8E5 DUP3 PUSH2 0x8A4 JUMP JUMPDEST PUSH1 0x20 DUP3 ADD SWAP1 POP SWAP2 SWAP1 POP JUMP JUMPDEST PUSH1 0x0 PUSH1 0x20 DUP3 ADD SWAP1 POP DUP2 DUP2 SUB PUSH1 0x0 DUP4 ADD MSTORE PUSH2 0x909 DUP2 PUSH2 0x8CD JUMP JUMPDEST SWAP1 POP SWAP2 SWAP1 POP JUMP JUMPDEST PUSH32 0x796F7520617265206E6F7420746865206F6E7765720000000000000000000000 PUSH1 0x0 DUP3 ADD MSTORE POP JUMP JUMPDEST PUSH1 0x0 PUSH2 0x946 PUSH1 0x15 DUP4 PUSH2 0x6EF JUMP JUMPDEST SWAP2 POP PUSH2 0x951 DUP3 PUSH2 0x910 JUMP JUMPDEST PUSH1 0x20 DUP3 ADD SWAP1 POP SWAP2 SWAP1 POP JUMP JUMPDEST PUSH1 0x0 PUSH1 0x20 DUP3 ADD SWAP1 POP DUP2 DUP2 SUB PUSH1 0x0 DUP4 ADD MSTORE PUSH2 0x975 DUP2 PUSH2 0x939 JUMP JUMPDEST SWAP1 POP SWAP2 SWAP1 POP JUMP JUMPDEST PUSH32 0x61756374696F6E20686173206E6F7420636F6D706C6574656420796574000000 PUSH1 0x0 DUP3 ADD MSTORE POP JUMP JUMPDEST PUSH1 0x0 PUSH2 0x9B2 PUSH1 0x1D DUP4 PUSH2 0x6EF JUMP JUMPDEST SWAP2 POP PUSH2 0x9BD DUP3 PUSH2 0x97C JUMP JUMPDEST PUSH1 0x20 DUP3 ADD SWAP1 POP SWAP2 SWAP1 POP JUMP JUMPDEST PUSH1 0x0 PUSH1 0x20 DUP3 ADD SWAP1 POP DUP2 DUP2 SUB PUSH1 0x0 DUP4 ADD MSTORE PUSH2 0x9E1 DUP2 PUSH2 0x9A5 JUMP JUMPDEST SWAP1 POP SWAP2 SWAP1 POP JUMP JUMPDEST PUSH32 0x6E6F7420616C6C207573657273206861766520636C61696D6564207468656972 PUSH1 0x0 DUP3 ADD MSTORE PUSH32 0x2062696473207965740000000000000000000000000000000000000000000000 PUSH1 0x20 DUP3 ADD MSTORE POP JUMP JUMPDEST PUSH1 0x0 PUSH2 0xA44 PUSH1 0x29 DUP4 PUSH2 0x6EF JUMP JUMPDEST SWAP2 POP PUSH2 0xA4F DUP3 PUSH2 0x9E8 JUMP JUMPDEST PUSH1 0x40 DUP3 ADD SWAP1 POP SWAP2 SWAP1 POP JUMP JUMPDEST PUSH1 0x0 PUSH1 0x20 DUP3 ADD SWAP1 POP DUP2 DUP2 SUB PUSH1 0x0 DUP4 ADD MSTORE PUSH2 0xA73 DUP2 PUSH2 0xA37 JUMP JUMPDEST SWAP1 POP SWAP2 SWAP1 POP JUMP INVALID LOG2 PUSH5 0x6970667358 0x22 SLT KECCAK256 0xBA 0xCC PUSH24 0x530AD210536211E23AF083A997D4575E8C4B1C24ED0E7001 PUSH1 0x9B PUSH30 0xB80764736F6C634300081100330000000000000000000000000000000000 "
				},
				"gasEstimates": {
					"creation": {
						"codeDepositCost": "547200",
						"executionCost": "46960",
						"totalCost": "594160"
					},
					"external": {
						"bid()": "infinite",
						"claim()": "infinite",
						"getCurrentHightest()": "6097",
						"getHighestBid()": "2503",
						"getHighestBidder()": "2500",
						"withdraw()": "infinite"
					}
				},
				"methodIdentifiers": {
					"bid()": "1998aeef",
					"claim()": "4e71d92d",
					"getCurrentHightest()": "2b5e3883",
					"getHighestBid()": "4979440a",
					"getHighestBidder()": "003495a4",
					"withdraw()": "3ccfd60b"
				}
			},
			"storageLayout": {
				"storage": [
					{
						"astId": 3,
						"contract": "2.TimeAuction.sol:TimeAuction",
						"label": "highestBidder",
						"offset": 0,
						"slot": "0",
						"type": "t_address"
					},
					{
						"astId": 5,
						"contract": "2.TimeAuction.sol:TimeAuction",
						"label": "highestBid",
						"offset": 0,
						"slot": "1",
						"type": "t_uint256"
					},
					{
						"astId": 9,
						"contract": "2.TimeAuction.sol:TimeAuction",
						"label": "oldBids",
						"offset": 0,
						"slot": "2",
						"type": "t_mapping(t_address,t_uint256)"
					},
					{
						"astId": 11,
						"contract": "2.TimeAuction.sol:TimeAuction",
						"label": "totalWithdrableBids",
						"offset": 0,
						"slot": "3",
						"type": "t_uint256"
					},
					{
						"astId": 13,
						"contract": "2.TimeAuction.sol:TimeAuction",
						"label": "owner",
						"offset": 0,
						"slot": "4",
						"type": "t_address"
					},
					{
						"astId": 15,
						"contract": "2.TimeAuction.sol:TimeAuction",
						"label": "startTime",
						"offset": 0,
						"slot": "5",
						"type": "t_uint256"
					}
				],
				"types": {
					"t_address": {
						"encoding": "inplace",
						"label": "address",
						"numberOfBytes": "20"
					},
					"t_mapping(t_address,t_uint256)": {
						"encoding": "mapping",
						"key": "t_address",
						"label": "mapping(address => uint256)",
						"numberOfBytes": "32",
						"value": "t_uint256"
					},
					"t_uint256": {
						"encoding": "inplace",
						"label": "uint256",
						"numberOfBytes": "32"
					}
				}
			},
			"userdoc": {
				"kind": "user",
				"methods": {},
				"version": 1
			}
		}
	}
}