{
	"8.Interfaces.sol": {
		"Vector": {
			"abi": [
				{
					"inputs": [
						{
							"internalType": "int256",
							"name": "_a",
							"type": "int256"
						},
						{
							"internalType": "int256",
							"name": "_b",
							"type": "int256"
						}
					],
					"stateMutability": "nonpayable",
					"type": "constructor"
				},
				{
					"inputs": [
						{
							"internalType": "contract Comparable",
							"name": "other",
							"type": "address"
						}
					],
					"name": "equalTo",
					"outputs": [
						{
							"internalType": "bool",
							"name": "",
							"type": "bool"
						}
					],
					"stateMutability": "view",
					"type": "function"
				},
				{
					"inputs": [],
					"name": "getValue",
					"outputs": [
						{
							"internalType": "int256",
							"name": "",
							"type": "int256"
						}
					],
					"stateMutability": "view",
					"type": "function"
				},
				{
					"inputs": [
						{
							"internalType": "contract Comparable",
							"name": "other",
							"type": "address"
						}
					],
					"name": "greaterThan",
					"outputs": [
						{
							"internalType": "bool",
							"name": "",
							"type": "bool"
						}
					],
					"stateMutability": "view",
					"type": "function"
				},
				{
					"inputs": [
						{
							"internalType": "contract Comparable",
							"name": "other",
							"type": "address"
						}
					],
					"name": "lessThan",
					"outputs": [
						{
							"internalType": "bool",
							"name": "",
							"type": "bool"
						}
					],
					"stateMutability": "view",
					"type": "function"
				}
			],
			"devdoc": {
				"kind": "dev",
				"methods": {},
				"version": 1
			},
			"evm": {
				"assembly": "    /* \"8.Interfaces.sol\":361:1020  contract Vector is Comparable {... */\n  mstore(0x40, 0x80)\n    /* \"8.Interfaces.sol\":430:506  constructor(int256 _a, int256 _b) {... */\n  callvalue\n  dup1\n  iszero\n  tag_1\n  jumpi\n  0x00\n  dup1\n  revert\ntag_1:\n  pop\n  mload(0x40)\n  sub(codesize, bytecodeSize)\n  dup1\n  bytecodeSize\n  dup4\n  codecopy\n  dup2\n  dup2\n  add\n  0x40\n  mstore\n  dup2\n  add\n  swap1\n  tag_2\n  swap2\n  swap1\n  tag_3\n  jump\t// in\ntag_2:\n    /* \"8.Interfaces.sol\":479:481  _a */\n  dup2\n    /* \"8.Interfaces.sol\":475:476  a */\n  0x00\n    /* \"8.Interfaces.sol\":475:481  a = _a */\n  dup2\n  swap1\n  sstore\n  pop\n    /* \"8.Interfaces.sol\":496:498  _b */\n  dup1\n    /* \"8.Interfaces.sol\":492:493  b */\n  0x01\n    /* \"8.Interfaces.sol\":492:498  b = _b */\n  dup2\n  swap1\n  sstore\n  pop\n    /* \"8.Interfaces.sol\":430:506  constructor(int256 _a, int256 _b) {... */\n  pop\n  pop\n    /* \"8.Interfaces.sol\":361:1020  contract Vector is Comparable {... */\n  jump(tag_6)\n    /* \"#utility.yul\":88:205   */\ntag_8:\n    /* \"#utility.yul\":197:198   */\n  0x00\n    /* \"#utility.yul\":194:195   */\n  dup1\n    /* \"#utility.yul\":187:199   */\n  revert\n    /* \"#utility.yul\":334:410   */\ntag_10:\n    /* \"#utility.yul\":370:377   */\n  0x00\n    /* \"#utility.yul\":399:404   */\n  dup2\n    /* \"#utility.yul\":388:404   */\n  swap1\n  pop\n    /* \"#utility.yul\":334:410   */\n  swap2\n  swap1\n  pop\n  jump\t// out\n    /* \"#utility.yul\":416:536   */\ntag_11:\n    /* \"#utility.yul\":488:511   */\n  tag_19\n    /* \"#utility.yul\":505:510   */\n  dup2\n    /* \"#utility.yul\":488:511   */\n  tag_10\n  jump\t// in\ntag_19:\n    /* \"#utility.yul\":481:486   */\n  dup2\n    /* \"#utility.yul\":478:512   */\n  eq\n    /* \"#utility.yul\":468:530   */\n  tag_20\n  jumpi\n    /* \"#utility.yul\":526:527   */\n  0x00\n    /* \"#utility.yul\":523:524   */\n  dup1\n    /* \"#utility.yul\":516:528   */\n  revert\n    /* \"#utility.yul\":468:530   */\ntag_20:\n    /* \"#utility.yul\":416:536   */\n  pop\n  jump\t// out\n    /* \"#utility.yul\":542:683   */\ntag_12:\n    /* \"#utility.yul\":598:603   */\n  0x00\n    /* \"#utility.yul\":629:635   */\n  dup2\n    /* \"#utility.yul\":623:636   */\n  mload\n    /* \"#utility.yul\":614:636   */\n  swap1\n  pop\n    /* \"#utility.yul\":645:677   */\n  tag_22\n    /* \"#utility.yul\":671:676   */\n  dup2\n    /* \"#utility.yul\":645:677   */\n  tag_11\n  jump\t// in\ntag_22:\n    /* \"#utility.yul\":542:683   */\n  swap3\n  swap2\n  pop\n  pop\n  jump\t// out\n    /* \"#utility.yul\":689:1192   */\ntag_3:\n    /* \"#utility.yul\":766:772   */\n  0x00\n    /* \"#utility.yul\":774:780   */\n  dup1\n    /* \"#utility.yul\":823:825   */\n  0x40\n    /* \"#utility.yul\":811:820   */\n  dup4\n    /* \"#utility.yul\":802:809   */\n  dup6\n    /* \"#utility.yul\":798:821   */\n  sub\n    /* \"#utility.yul\":794:826   */\n  slt\n    /* \"#utility.yul\":791:910   */\n  iszero\n  tag_24\n  jumpi\n    /* \"#utility.yul\":829:908   */\n  tag_25\n  tag_8\n  jump\t// in\ntag_25:\n    /* \"#utility.yul\":791:910   */\ntag_24:\n    /* \"#utility.yul\":949:950   */\n  0x00\n    /* \"#utility.yul\":974:1037   */\n  tag_26\n    /* \"#utility.yul\":1029:1036   */\n  dup6\n    /* \"#utility.yul\":1020:1026   */\n  dup3\n    /* \"#utility.yul\":1009:1018   */\n  dup7\n    /* \"#utility.yul\":1005:1027   */\n  add\n    /* \"#utility.yul\":974:1037   */\n  tag_12\n  jump\t// in\ntag_26:\n    /* \"#utility.yul\":964:1037   */\n  swap3\n  pop\n    /* \"#utility.yul\":920:1047   */\n  pop\n    /* \"#utility.yul\":1086:1088   */\n  0x20\n    /* \"#utility.yul\":1112:1175   */\n  tag_27\n    /* \"#utility.yul\":1167:1174   */\n  dup6\n    /* \"#utility.yul\":1158:1164   */\n  dup3\n    /* \"#utility.yul\":1147:1156   */\n  dup7\n    /* \"#utility.yul\":1143:1165   */\n  add\n    /* \"#utility.yul\":1112:1175   */\n  tag_12\n  jump\t// in\ntag_27:\n    /* \"#utility.yul\":1102:1175   */\n  swap2\n  pop\n    /* \"#utility.yul\":1057:1185   */\n  pop\n    /* \"#utility.yul\":689:1192   */\n  swap3\n  pop\n  swap3\n  swap1\n  pop\n  jump\t// out\n    /* \"8.Interfaces.sol\":361:1020  contract Vector is Comparable {... */\ntag_6:\n  dataSize(sub_0)\n  dup1\n  dataOffset(sub_0)\n  0x00\n  codecopy\n  0x00\n  return\nstop\n\nsub_0: assembly {\n        /* \"8.Interfaces.sol\":361:1020  contract Vector is Comparable {... */\n      mstore(0x40, 0x80)\n      callvalue\n      dup1\n      iszero\n      tag_1\n      jumpi\n      0x00\n      dup1\n      revert\n    tag_1:\n      pop\n      jumpi(tag_2, lt(calldatasize, 0x04))\n      shr(0xe0, calldataload(0x00))\n      dup1\n      0x123a2eae\n      eq\n      tag_3\n      jumpi\n      dup1\n      0x20965255\n      eq\n      tag_4\n      jumpi\n      dup1\n      0x6f0f7b11\n      eq\n      tag_5\n      jumpi\n      dup1\n      0x99dff539\n      eq\n      tag_6\n      jumpi\n    tag_2:\n      0x00\n      dup1\n      revert\n        /* \"8.Interfaces.sol\":888:1017  function equalTo(Comparable other) external view override returns (bool) {... */\n    tag_3:\n      tag_7\n      0x04\n      dup1\n      calldatasize\n      sub\n      dup2\n      add\n      swap1\n      tag_8\n      swap2\n      swap1\n      tag_9\n      jump\t// in\n    tag_8:\n      tag_10\n      jump\t// in\n    tag_7:\n      mload(0x40)\n      tag_11\n      swap2\n      swap1\n      tag_12\n      jump\t// in\n    tag_11:\n      mload(0x40)\n      dup1\n      swap2\n      sub\n      swap1\n      return\n        /* \"8.Interfaces.sol\":514:603  function getValue() public view override returns (int256) {... */\n    tag_4:\n      tag_13\n      tag_14\n      jump\t// in\n    tag_13:\n      mload(0x40)\n      tag_15\n      swap2\n      swap1\n      tag_16\n      jump\t// in\n    tag_15:\n      mload(0x40)\n      dup1\n      swap2\n      sub\n      swap1\n      return\n        /* \"8.Interfaces.sol\":611:743  function greaterThan(Comparable other) external view override returns (bool) {... */\n    tag_5:\n      tag_17\n      0x04\n      dup1\n      calldatasize\n      sub\n      dup2\n      add\n      swap1\n      tag_18\n      swap2\n      swap1\n      tag_9\n      jump\t// in\n    tag_18:\n      tag_19\n      jump\t// in\n    tag_17:\n      mload(0x40)\n      tag_20\n      swap2\n      swap1\n      tag_12\n      jump\t// in\n    tag_20:\n      mload(0x40)\n      dup1\n      swap2\n      sub\n      swap1\n      return\n        /* \"8.Interfaces.sol\":751:880  function lessThan(Comparable other) external view override returns (bool) {... */\n    tag_6:\n      tag_21\n      0x04\n      dup1\n      calldatasize\n      sub\n      dup2\n      add\n      swap1\n      tag_22\n      swap2\n      swap1\n      tag_9\n      jump\t// in\n    tag_22:\n      tag_23\n      jump\t// in\n    tag_21:\n      mload(0x40)\n      tag_24\n      swap2\n      swap1\n      tag_12\n      jump\t// in\n    tag_24:\n      mload(0x40)\n      dup1\n      swap2\n      sub\n      swap1\n      return\n        /* \"8.Interfaces.sol\":888:1017  function equalTo(Comparable other) external view override returns (bool) {... */\n    tag_10:\n        /* \"8.Interfaces.sol\":955:959  bool */\n      0x00\n        /* \"8.Interfaces.sol\":993:998  other */\n      dup2\n        /* \"8.Interfaces.sol\":993:1007  other.getValue */\n      0xffffffffffffffffffffffffffffffffffffffff\n      and\n      0x20965255\n        /* \"8.Interfaces.sol\":993:1009  other.getValue() */\n      mload(0x40)\n      dup2\n      0xffffffff\n      and\n      0xe0\n      shl\n      dup2\n      mstore\n      0x04\n      add\n      0x20\n      mload(0x40)\n      dup1\n      dup4\n      sub\n      dup2\n      dup7\n      gas\n      staticcall\n      iszero\n      dup1\n      iszero\n      tag_27\n      jumpi\n      returndatasize\n      0x00\n      dup1\n      returndatacopy\n      revert(0x00, returndatasize)\n    tag_27:\n      pop\n      pop\n      pop\n      pop\n      mload(0x40)\n      returndatasize\n      not(0x1f)\n      0x1f\n      dup3\n      add\n      and\n      dup3\n      add\n      dup1\n      0x40\n      mstore\n      pop\n      dup2\n      add\n      swap1\n      tag_28\n      swap2\n      swap1\n      tag_29\n      jump\t// in\n    tag_28:\n        /* \"8.Interfaces.sol\":979:989  getValue() */\n      tag_30\n        /* \"8.Interfaces.sol\":979:987  getValue */\n      tag_14\n        /* \"8.Interfaces.sol\":979:989  getValue() */\n      jump\t// in\n    tag_30:\n        /* \"8.Interfaces.sol\":979:1009  getValue() == other.getValue() */\n      eq\n        /* \"8.Interfaces.sol\":972:1009  return getValue() == other.getValue() */\n      swap1\n      pop\n        /* \"8.Interfaces.sol\":888:1017  function equalTo(Comparable other) external view override returns (bool) {... */\n      swap2\n      swap1\n      pop\n      jump\t// out\n        /* \"8.Interfaces.sol\":514:603  function getValue() public view override returns (int256) {... */\n    tag_14:\n        /* \"8.Interfaces.sol\":564:570  int256 */\n      0x00\n        /* \"8.Interfaces.sol\":594:595  b */\n      sload(0x01)\n        /* \"8.Interfaces.sol\":590:591  a */\n      sload(0x00)\n        /* \"8.Interfaces.sol\":590:595  a + b */\n      tag_32\n      swap2\n      swap1\n      tag_33\n      jump\t// in\n    tag_32:\n        /* \"8.Interfaces.sol\":583:595  return a + b */\n      swap1\n      pop\n        /* \"8.Interfaces.sol\":514:603  function getValue() public view override returns (int256) {... */\n      swap1\n      jump\t// out\n        /* \"8.Interfaces.sol\":611:743  function greaterThan(Comparable other) external view override returns (bool) {... */\n    tag_19:\n        /* \"8.Interfaces.sol\":682:686  bool */\n      0x00\n        /* \"8.Interfaces.sol\":719:724  other */\n      dup2\n        /* \"8.Interfaces.sol\":719:733  other.getValue */\n      0xffffffffffffffffffffffffffffffffffffffff\n      and\n      0x20965255\n        /* \"8.Interfaces.sol\":719:735  other.getValue() */\n      mload(0x40)\n      dup2\n      0xffffffff\n      and\n      0xe0\n      shl\n      dup2\n      mstore\n      0x04\n      add\n      0x20\n      mload(0x40)\n      dup1\n      dup4\n      sub\n      dup2\n      dup7\n      gas\n      staticcall\n      iszero\n      dup1\n      iszero\n      tag_36\n      jumpi\n      returndatasize\n      0x00\n      dup1\n      returndatacopy\n      revert(0x00, returndatasize)\n    tag_36:\n      pop\n      pop\n      pop\n      pop\n      mload(0x40)\n      returndatasize\n      not(0x1f)\n      0x1f\n      dup3\n      add\n      and\n      dup3\n      add\n      dup1\n      0x40\n      mstore\n      pop\n      dup2\n      add\n      swap1\n      tag_37\n      swap2\n      swap1\n      tag_29\n      jump\t// in\n    tag_37:\n        /* \"8.Interfaces.sol\":706:716  getValue() */\n      tag_38\n        /* \"8.Interfaces.sol\":706:714  getValue */\n      tag_14\n        /* \"8.Interfaces.sol\":706:716  getValue() */\n      jump\t// in\n    tag_38:\n        /* \"8.Interfaces.sol\":706:735  getValue() < other.getValue() */\n      slt\n        /* \"8.Interfaces.sol\":699:735  return getValue() < other.getValue() */\n      swap1\n      pop\n        /* \"8.Interfaces.sol\":611:743  function greaterThan(Comparable other) external view override returns (bool) {... */\n      swap2\n      swap1\n      pop\n      jump\t// out\n        /* \"8.Interfaces.sol\":751:880  function lessThan(Comparable other) external view override returns (bool) {... */\n    tag_23:\n        /* \"8.Interfaces.sol\":819:823  bool */\n      0x00\n        /* \"8.Interfaces.sol\":856:861  other */\n      dup2\n        /* \"8.Interfaces.sol\":856:870  other.getValue */\n      0xffffffffffffffffffffffffffffffffffffffff\n      and\n      0x20965255\n        /* \"8.Interfaces.sol\":856:872  other.getValue() */\n      mload(0x40)\n      dup2\n      0xffffffff\n      and\n      0xe0\n      shl\n      dup2\n      mstore\n      0x04\n      add\n      0x20\n      mload(0x40)\n      dup1\n      dup4\n      sub\n      dup2\n      dup7\n      gas\n      staticcall\n      iszero\n      dup1\n      iszero\n      tag_41\n      jumpi\n      returndatasize\n      0x00\n      dup1\n      returndatacopy\n      revert(0x00, returndatasize)\n    tag_41:\n      pop\n      pop\n      pop\n      pop\n      mload(0x40)\n      returndatasize\n      not(0x1f)\n      0x1f\n      dup3\n      add\n      and\n      dup3\n      add\n      dup1\n      0x40\n      mstore\n      pop\n      dup2\n      add\n      swap1\n      tag_42\n      swap2\n      swap1\n      tag_29\n      jump\t// in\n    tag_42:\n        /* \"8.Interfaces.sol\":843:853  getValue() */\n      tag_43\n        /* \"8.Interfaces.sol\":843:851  getValue */\n      tag_14\n        /* \"8.Interfaces.sol\":843:853  getValue() */\n      jump\t// in\n    tag_43:\n        /* \"8.Interfaces.sol\":843:872  getValue() < other.getValue() */\n      slt\n        /* \"8.Interfaces.sol\":836:872  return getValue() < other.getValue() */\n      swap1\n      pop\n        /* \"8.Interfaces.sol\":751:880  function lessThan(Comparable other) external view override returns (bool) {... */\n      swap2\n      swap1\n      pop\n      jump\t// out\n        /* \"#utility.yul\":88:205   */\n    tag_45:\n        /* \"#utility.yul\":197:198   */\n      0x00\n        /* \"#utility.yul\":194:195   */\n      dup1\n        /* \"#utility.yul\":187:199   */\n      revert\n        /* \"#utility.yul\":334:460   */\n    tag_47:\n        /* \"#utility.yul\":371:378   */\n      0x00\n        /* \"#utility.yul\":411:453   */\n      0xffffffffffffffffffffffffffffffffffffffff\n        /* \"#utility.yul\":404:409   */\n      dup3\n        /* \"#utility.yul\":400:454   */\n      and\n        /* \"#utility.yul\":389:454   */\n      swap1\n      pop\n        /* \"#utility.yul\":334:460   */\n      swap2\n      swap1\n      pop\n      jump\t// out\n        /* \"#utility.yul\":466:562   */\n    tag_48:\n        /* \"#utility.yul\":503:510   */\n      0x00\n        /* \"#utility.yul\":532:556   */\n      tag_65\n        /* \"#utility.yul\":550:555   */\n      dup3\n        /* \"#utility.yul\":532:556   */\n      tag_47\n      jump\t// in\n    tag_65:\n        /* \"#utility.yul\":521:556   */\n      swap1\n      pop\n        /* \"#utility.yul\":466:562   */\n      swap2\n      swap1\n      pop\n      jump\t// out\n        /* \"#utility.yul\":568:681   */\n    tag_49:\n        /* \"#utility.yul\":622:629   */\n      0x00\n        /* \"#utility.yul\":651:675   */\n      tag_67\n        /* \"#utility.yul\":669:674   */\n      dup3\n        /* \"#utility.yul\":651:675   */\n      tag_48\n      jump\t// in\n    tag_67:\n        /* \"#utility.yul\":640:675   */\n      swap1\n      pop\n        /* \"#utility.yul\":568:681   */\n      swap2\n      swap1\n      pop\n      jump\t// out\n        /* \"#utility.yul\":687:843   */\n    tag_50:\n        /* \"#utility.yul\":777:818   */\n      tag_69\n        /* \"#utility.yul\":812:817   */\n      dup2\n        /* \"#utility.yul\":777:818   */\n      tag_49\n      jump\t// in\n    tag_69:\n        /* \"#utility.yul\":770:775   */\n      dup2\n        /* \"#utility.yul\":767:819   */\n      eq\n        /* \"#utility.yul\":757:837   */\n      tag_70\n      jumpi\n        /* \"#utility.yul\":833:834   */\n      0x00\n        /* \"#utility.yul\":830:831   */\n      dup1\n        /* \"#utility.yul\":823:835   */\n      revert\n        /* \"#utility.yul\":757:837   */\n    tag_70:\n        /* \"#utility.yul\":687:843   */\n      pop\n      jump\t// out\n        /* \"#utility.yul\":849:1022   */\n    tag_51:\n        /* \"#utility.yul\":912:917   */\n      0x00\n        /* \"#utility.yul\":950:956   */\n      dup2\n        /* \"#utility.yul\":937:957   */\n      calldataload\n        /* \"#utility.yul\":928:957   */\n      swap1\n      pop\n        /* \"#utility.yul\":966:1016   */\n      tag_72\n        /* \"#utility.yul\":1010:1015   */\n      dup2\n        /* \"#utility.yul\":966:1016   */\n      tag_50\n      jump\t// in\n    tag_72:\n        /* \"#utility.yul\":849:1022   */\n      swap3\n      swap2\n      pop\n      pop\n      jump\t// out\n        /* \"#utility.yul\":1028:1391   */\n    tag_9:\n        /* \"#utility.yul\":1104:1110   */\n      0x00\n        /* \"#utility.yul\":1153:1155   */\n      0x20\n        /* \"#utility.yul\":1141:1150   */\n      dup3\n        /* \"#utility.yul\":1132:1139   */\n      dup5\n        /* \"#utility.yul\":1128:1151   */\n      sub\n        /* \"#utility.yul\":1124:1156   */\n      slt\n        /* \"#utility.yul\":1121:1240   */\n      iszero\n      tag_74\n      jumpi\n        /* \"#utility.yul\":1159:1238   */\n      tag_75\n      tag_45\n      jump\t// in\n    tag_75:\n        /* \"#utility.yul\":1121:1240   */\n    tag_74:\n        /* \"#utility.yul\":1279:1280   */\n      0x00\n        /* \"#utility.yul\":1304:1374   */\n      tag_76\n        /* \"#utility.yul\":1366:1373   */\n      dup5\n        /* \"#utility.yul\":1357:1363   */\n      dup3\n        /* \"#utility.yul\":1346:1355   */\n      dup6\n        /* \"#utility.yul\":1342:1364   */\n      add\n        /* \"#utility.yul\":1304:1374   */\n      tag_51\n      jump\t// in\n    tag_76:\n        /* \"#utility.yul\":1294:1374   */\n      swap2\n      pop\n        /* \"#utility.yul\":1250:1384   */\n      pop\n        /* \"#utility.yul\":1028:1391   */\n      swap3\n      swap2\n      pop\n      pop\n      jump\t// out\n        /* \"#utility.yul\":1397:1487   */\n    tag_52:\n        /* \"#utility.yul\":1431:1438   */\n      0x00\n        /* \"#utility.yul\":1474:1479   */\n      dup2\n        /* \"#utility.yul\":1467:1480   */\n      iszero\n        /* \"#utility.yul\":1460:1481   */\n      iszero\n        /* \"#utility.yul\":1449:1481   */\n      swap1\n      pop\n        /* \"#utility.yul\":1397:1487   */\n      swap2\n      swap1\n      pop\n      jump\t// out\n        /* \"#utility.yul\":1493:1602   */\n    tag_53:\n        /* \"#utility.yul\":1574:1595   */\n      tag_79\n        /* \"#utility.yul\":1589:1594   */\n      dup2\n        /* \"#utility.yul\":1574:1595   */\n      tag_52\n      jump\t// in\n    tag_79:\n        /* \"#utility.yul\":1569:1572   */\n      dup3\n        /* \"#utility.yul\":1562:1596   */\n      mstore\n        /* \"#utility.yul\":1493:1602   */\n      pop\n      pop\n      jump\t// out\n        /* \"#utility.yul\":1608:1818   */\n    tag_12:\n        /* \"#utility.yul\":1695:1699   */\n      0x00\n        /* \"#utility.yul\":1733:1735   */\n      0x20\n        /* \"#utility.yul\":1722:1731   */\n      dup3\n        /* \"#utility.yul\":1718:1736   */\n      add\n        /* \"#utility.yul\":1710:1736   */\n      swap1\n      pop\n        /* \"#utility.yul\":1746:1811   */\n      tag_81\n        /* \"#utility.yul\":1808:1809   */\n      0x00\n        /* \"#utility.yul\":1797:1806   */\n      dup4\n        /* \"#utility.yul\":1793:1810   */\n      add\n        /* \"#utility.yul\":1784:1790   */\n      dup5\n        /* \"#utility.yul\":1746:1811   */\n      tag_53\n      jump\t// in\n    tag_81:\n        /* \"#utility.yul\":1608:1818   */\n      swap3\n      swap2\n      pop\n      pop\n      jump\t// out\n        /* \"#utility.yul\":1824:1900   */\n    tag_54:\n        /* \"#utility.yul\":1860:1867   */\n      0x00\n        /* \"#utility.yul\":1889:1894   */\n      dup2\n        /* \"#utility.yul\":1878:1894   */\n      swap1\n      pop\n        /* \"#utility.yul\":1824:1900   */\n      swap2\n      swap1\n      pop\n      jump\t// out\n        /* \"#utility.yul\":1906:2021   */\n    tag_55:\n        /* \"#utility.yul\":1991:2014   */\n      tag_84\n        /* \"#utility.yul\":2008:2013   */\n      dup2\n        /* \"#utility.yul\":1991:2014   */\n      tag_54\n      jump\t// in\n    tag_84:\n        /* \"#utility.yul\":1986:1989   */\n      dup3\n        /* \"#utility.yul\":1979:2015   */\n      mstore\n        /* \"#utility.yul\":1906:2021   */\n      pop\n      pop\n      jump\t// out\n        /* \"#utility.yul\":2027:2245   */\n    tag_16:\n        /* \"#utility.yul\":2118:2122   */\n      0x00\n        /* \"#utility.yul\":2156:2158   */\n      0x20\n        /* \"#utility.yul\":2145:2154   */\n      dup3\n        /* \"#utility.yul\":2141:2159   */\n      add\n        /* \"#utility.yul\":2133:2159   */\n      swap1\n      pop\n        /* \"#utility.yul\":2169:2238   */\n      tag_86\n        /* \"#utility.yul\":2235:2236   */\n      0x00\n        /* \"#utility.yul\":2224:2233   */\n      dup4\n        /* \"#utility.yul\":2220:2237   */\n      add\n        /* \"#utility.yul\":2211:2217   */\n      dup5\n        /* \"#utility.yul\":2169:2238   */\n      tag_55\n      jump\t// in\n    tag_86:\n        /* \"#utility.yul\":2027:2245   */\n      swap3\n      swap2\n      pop\n      pop\n      jump\t// out\n        /* \"#utility.yul\":2251:2371   */\n    tag_56:\n        /* \"#utility.yul\":2323:2346   */\n      tag_88\n        /* \"#utility.yul\":2340:2345   */\n      dup2\n        /* \"#utility.yul\":2323:2346   */\n      tag_54\n      jump\t// in\n    tag_88:\n        /* \"#utility.yul\":2316:2321   */\n      dup2\n        /* \"#utility.yul\":2313:2347   */\n      eq\n        /* \"#utility.yul\":2303:2365   */\n      tag_89\n      jumpi\n        /* \"#utility.yul\":2361:2362   */\n      0x00\n        /* \"#utility.yul\":2358:2359   */\n      dup1\n        /* \"#utility.yul\":2351:2363   */\n      revert\n        /* \"#utility.yul\":2303:2365   */\n    tag_89:\n        /* \"#utility.yul\":2251:2371   */\n      pop\n      jump\t// out\n        /* \"#utility.yul\":2377:2518   */\n    tag_57:\n        /* \"#utility.yul\":2433:2438   */\n      0x00\n        /* \"#utility.yul\":2464:2470   */\n      dup2\n        /* \"#utility.yul\":2458:2471   */\n      mload\n        /* \"#utility.yul\":2449:2471   */\n      swap1\n      pop\n        /* \"#utility.yul\":2480:2512   */\n      tag_91\n        /* \"#utility.yul\":2506:2511   */\n      dup2\n        /* \"#utility.yul\":2480:2512   */\n      tag_56\n      jump\t// in\n    tag_91:\n        /* \"#utility.yul\":2377:2518   */\n      swap3\n      swap2\n      pop\n      pop\n      jump\t// out\n        /* \"#utility.yul\":2524:2873   */\n    tag_29:\n        /* \"#utility.yul\":2593:2599   */\n      0x00\n        /* \"#utility.yul\":2642:2644   */\n      0x20\n        /* \"#utility.yul\":2630:2639   */\n      dup3\n        /* \"#utility.yul\":2621:2628   */\n      dup5\n        /* \"#utility.yul\":2617:2640   */\n      sub\n        /* \"#utility.yul\":2613:2645   */\n      slt\n        /* \"#utility.yul\":2610:2729   */\n      iszero\n      tag_93\n      jumpi\n        /* \"#utility.yul\":2648:2727   */\n      tag_94\n      tag_45\n      jump\t// in\n    tag_94:\n        /* \"#utility.yul\":2610:2729   */\n    tag_93:\n        /* \"#utility.yul\":2768:2769   */\n      0x00\n        /* \"#utility.yul\":2793:2856   */\n      tag_95\n        /* \"#utility.yul\":2848:2855   */\n      dup5\n        /* \"#utility.yul\":2839:2845   */\n      dup3\n        /* \"#utility.yul\":2828:2837   */\n      dup6\n        /* \"#utility.yul\":2824:2846   */\n      add\n        /* \"#utility.yul\":2793:2856   */\n      tag_57\n      jump\t// in\n    tag_95:\n        /* \"#utility.yul\":2783:2856   */\n      swap2\n      pop\n        /* \"#utility.yul\":2739:2866   */\n      pop\n        /* \"#utility.yul\":2524:2873   */\n      swap3\n      swap2\n      pop\n      pop\n      jump\t// out\n        /* \"#utility.yul\":2879:3059   */\n    tag_58:\n        /* \"#utility.yul\":2927:3004   */\n      0x4e487b7100000000000000000000000000000000000000000000000000000000\n        /* \"#utility.yul\":2924:2925   */\n      0x00\n        /* \"#utility.yul\":2917:3005   */\n      mstore\n        /* \"#utility.yul\":3024:3028   */\n      0x11\n        /* \"#utility.yul\":3021:3022   */\n      0x04\n        /* \"#utility.yul\":3014:3029   */\n      mstore\n        /* \"#utility.yul\":3048:3052   */\n      0x24\n        /* \"#utility.yul\":3045:3046   */\n      0x00\n        /* \"#utility.yul\":3038:3053   */\n      revert\n        /* \"#utility.yul\":3065:3440   */\n    tag_33:\n        /* \"#utility.yul\":3104:3107   */\n      0x00\n        /* \"#utility.yul\":3123:3142   */\n      tag_98\n        /* \"#utility.yul\":3140:3141   */\n      dup3\n        /* \"#utility.yul\":3123:3142   */\n      tag_54\n      jump\t// in\n    tag_98:\n        /* \"#utility.yul\":3118:3142   */\n      swap2\n      pop\n        /* \"#utility.yul\":3156:3175   */\n      tag_99\n        /* \"#utility.yul\":3173:3174   */\n      dup4\n        /* \"#utility.yul\":3156:3175   */\n      tag_54\n      jump\t// in\n    tag_99:\n        /* \"#utility.yul\":3151:3175   */\n      swap3\n      pop\n        /* \"#utility.yul\":3198:3199   */\n      dup3\n        /* \"#utility.yul\":3195:3196   */\n      dup3\n        /* \"#utility.yul\":3191:3200   */\n      add\n        /* \"#utility.yul\":3184:3200   */\n      swap1\n      pop\n        /* \"#utility.yul\":3396:3397   */\n      dup3\n        /* \"#utility.yul\":3391:3394   */\n      dup2\n        /* \"#utility.yul\":3387:3398   */\n      slt\n        /* \"#utility.yul\":3380:3399   */\n      iszero\n        /* \"#utility.yul\":3376:3377   */\n      0x00\n        /* \"#utility.yul\":3373:3374   */\n      dup4\n        /* \"#utility.yul\":3369:3378   */\n      slt\n        /* \"#utility.yul\":3365:3400   */\n      and\n        /* \"#utility.yul\":3348:3349   */\n      dup4\n        /* \"#utility.yul\":3343:3346   */\n      dup3\n        /* \"#utility.yul\":3339:3350   */\n      slt\n        /* \"#utility.yul\":3334:3335   */\n      0x00\n        /* \"#utility.yul\":3331:3332   */\n      dup5\n        /* \"#utility.yul\":3327:3336   */\n      slt\n        /* \"#utility.yul\":3320:3337   */\n      iszero\n        /* \"#utility.yul\":3316:3351   */\n      and\n        /* \"#utility.yul\":3300:3410   */\n      or\n        /* \"#utility.yul\":3297:3433   */\n      iszero\n      tag_100\n      jumpi\n        /* \"#utility.yul\":3413:3431   */\n      tag_101\n      tag_58\n      jump\t// in\n    tag_101:\n        /* \"#utility.yul\":3297:3433   */\n    tag_100:\n        /* \"#utility.yul\":3065:3440   */\n      swap3\n      swap2\n      pop\n      pop\n      jump\t// out\n\n    auxdata: 0xa264697066735822122018ef3613f9f07e78d2098a09688fbe26b0d23c8f9016aadc7ba71442211363a964736f6c63430008190033\n}\n",
				"bytecode": {
					"linkReferences": {},
					"object": "6080604052348015600e575f80fd5b506040516105393803806105398339818101604052810190602e91906073565b815f8190555080600181905550505060aa565b5f80fd5b5f819050919050565b6055816045565b8114605e575f80fd5b50565b5f81519050606d81604e565b92915050565b5f806040838503121560865760856041565b5b5f6091858286016061565b925050602060a0858286016061565b9150509250929050565b610482806100b75f395ff3fe608060405234801561000f575f80fd5b506004361061004a575f3560e01c8063123a2eae1461004e578063209652551461007e5780636f0f7b111461009c57806399dff539146100cc575b5f80fd5b610068600480360381019061006391906102fa565b6100fc565b604051610075919061033f565b60405180910390f35b61008661017a565b6040516100939190610370565b60405180910390f35b6100b660048036038101906100b191906102fa565b61018f565b6040516100c3919061033f565b60405180910390f35b6100e660048036038101906100e191906102fa565b61020d565b6040516100f3919061033f565b60405180910390f35b5f8173ffffffffffffffffffffffffffffffffffffffff1663209652556040518163ffffffff1660e01b8152600401602060405180830381865afa158015610146573d5f803e3d5ffd5b505050506040513d601f19601f8201168201806040525081019061016a91906103b3565b61017261017a565b149050919050565b5f6001545f5461018a919061040b565b905090565b5f8173ffffffffffffffffffffffffffffffffffffffff1663209652556040518163ffffffff1660e01b8152600401602060405180830381865afa1580156101d9573d5f803e3d5ffd5b505050506040513d601f19601f820116820180604052508101906101fd91906103b3565b61020561017a565b129050919050565b5f8173ffffffffffffffffffffffffffffffffffffffff1663209652556040518163ffffffff1660e01b8152600401602060405180830381865afa158015610257573d5f803e3d5ffd5b505050506040513d601f19601f8201168201806040525081019061027b91906103b3565b61028361017a565b129050919050565b5f80fd5b5f73ffffffffffffffffffffffffffffffffffffffff82169050919050565b5f6102b88261028f565b9050919050565b5f6102c9826102ae565b9050919050565b6102d9816102bf565b81146102e3575f80fd5b50565b5f813590506102f4816102d0565b92915050565b5f6020828403121561030f5761030e61028b565b5b5f61031c848285016102e6565b91505092915050565b5f8115159050919050565b61033981610325565b82525050565b5f6020820190506103525f830184610330565b92915050565b5f819050919050565b61036a81610358565b82525050565b5f6020820190506103835f830184610361565b92915050565b61039281610358565b811461039c575f80fd5b50565b5f815190506103ad81610389565b92915050565b5f602082840312156103c8576103c761028b565b5b5f6103d58482850161039f565b91505092915050565b7f4e487b71000000000000000000000000000000000000000000000000000000005f52601160045260245ffd5b5f61041582610358565b915061042083610358565b92508282019050828112155f8312168382125f841215161715610446576104456103de565b5b9291505056fea264697066735822122018ef3613f9f07e78d2098a09688fbe26b0d23c8f9016aadc7ba71442211363a964736f6c63430008190033",
					"opcodes": "PUSH1 0x80 PUSH1 0x40 MSTORE CALLVALUE DUP1 ISZERO PUSH1 0xE JUMPI PUSH0 DUP1 REVERT JUMPDEST POP PUSH1 0x40 MLOAD PUSH2 0x539 CODESIZE SUB DUP1 PUSH2 0x539 DUP4 CODECOPY DUP2 DUP2 ADD PUSH1 0x40 MSTORE DUP2 ADD SWAP1 PUSH1 0x2E SWAP2 SWAP1 PUSH1 0x73 JUMP JUMPDEST DUP2 PUSH0 DUP2 SWAP1 SSTORE POP DUP1 PUSH1 0x1 DUP2 SWAP1 SSTORE POP POP POP PUSH1 0xAA JUMP JUMPDEST PUSH0 DUP1 REVERT JUMPDEST PUSH0 DUP2 SWAP1 POP SWAP2 SWAP1 POP JUMP JUMPDEST PUSH1 0x55 DUP2 PUSH1 0x45 JUMP JUMPDEST DUP2 EQ PUSH1 0x5E JUMPI PUSH0 DUP1 REVERT JUMPDEST POP JUMP JUMPDEST PUSH0 DUP2 MLOAD SWAP1 POP PUSH1 0x6D DUP2 PUSH1 0x4E JUMP JUMPDEST SWAP3 SWAP2 POP POP JUMP JUMPDEST PUSH0 DUP1 PUSH1 0x40 DUP4 DUP6 SUB SLT ISZERO PUSH1 0x86 JUMPI PUSH1 0x85 PUSH1 0x41 JUMP JUMPDEST JUMPDEST PUSH0 PUSH1 0x91 DUP6 DUP3 DUP7 ADD PUSH1 0x61 JUMP JUMPDEST SWAP3 POP POP PUSH1 0x20 PUSH1 0xA0 DUP6 DUP3 DUP7 ADD PUSH1 0x61 JUMP JUMPDEST SWAP2 POP POP SWAP3 POP SWAP3 SWAP1 POP JUMP JUMPDEST PUSH2 0x482 DUP1 PUSH2 0xB7 PUSH0 CODECOPY PUSH0 RETURN INVALID PUSH1 0x80 PUSH1 0x40 MSTORE CALLVALUE DUP1 ISZERO PUSH2 0xF JUMPI PUSH0 DUP1 REVERT JUMPDEST POP PUSH1 0x4 CALLDATASIZE LT PUSH2 0x4A JUMPI PUSH0 CALLDATALOAD PUSH1 0xE0 SHR DUP1 PUSH4 0x123A2EAE EQ PUSH2 0x4E JUMPI DUP1 PUSH4 0x20965255 EQ PUSH2 0x7E JUMPI DUP1 PUSH4 0x6F0F7B11 EQ PUSH2 0x9C JUMPI DUP1 PUSH4 0x99DFF539 EQ PUSH2 0xCC JUMPI JUMPDEST PUSH0 DUP1 REVERT JUMPDEST PUSH2 0x68 PUSH1 0x4 DUP1 CALLDATASIZE SUB DUP2 ADD SWAP1 PUSH2 0x63 SWAP2 SWAP1 PUSH2 0x2FA JUMP JUMPDEST PUSH2 0xFC JUMP JUMPDEST PUSH1 0x40 MLOAD PUSH2 0x75 SWAP2 SWAP1 PUSH2 0x33F JUMP JUMPDEST PUSH1 0x40 MLOAD DUP1 SWAP2 SUB SWAP1 RETURN JUMPDEST PUSH2 0x86 PUSH2 0x17A JUMP JUMPDEST PUSH1 0x40 MLOAD PUSH2 0x93 SWAP2 SWAP1 PUSH2 0x370 JUMP JUMPDEST PUSH1 0x40 MLOAD DUP1 SWAP2 SUB SWAP1 RETURN JUMPDEST PUSH2 0xB6 PUSH1 0x4 DUP1 CALLDATASIZE SUB DUP2 ADD SWAP1 PUSH2 0xB1 SWAP2 SWAP1 PUSH2 0x2FA JUMP JUMPDEST PUSH2 0x18F JUMP JUMPDEST PUSH1 0x40 MLOAD PUSH2 0xC3 SWAP2 SWAP1 PUSH2 0x33F JUMP JUMPDEST PUSH1 0x40 MLOAD DUP1 SWAP2 SUB SWAP1 RETURN JUMPDEST PUSH2 0xE6 PUSH1 0x4 DUP1 CALLDATASIZE SUB DUP2 ADD SWAP1 PUSH2 0xE1 SWAP2 SWAP1 PUSH2 0x2FA JUMP JUMPDEST PUSH2 0x20D JUMP JUMPDEST PUSH1 0x40 MLOAD PUSH2 0xF3 SWAP2 SWAP1 PUSH2 0x33F JUMP JUMPDEST PUSH1 0x40 MLOAD DUP1 SWAP2 SUB SWAP1 RETURN JUMPDEST PUSH0 DUP2 PUSH20 0xFFFFFFFFFFFFFFFFFFFFFFFFFFFFFFFFFFFFFFFF AND PUSH4 0x20965255 PUSH1 0x40 MLOAD DUP2 PUSH4 0xFFFFFFFF AND PUSH1 0xE0 SHL DUP2 MSTORE PUSH1 0x4 ADD PUSH1 0x20 PUSH1 0x40 MLOAD DUP1 DUP4 SUB DUP2 DUP7 GAS STATICCALL ISZERO DUP1 ISZERO PUSH2 0x146 JUMPI RETURNDATASIZE PUSH0 DUP1 RETURNDATACOPY RETURNDATASIZE PUSH0 REVERT JUMPDEST POP POP POP POP PUSH1 0x40 MLOAD RETURNDATASIZE PUSH1 0x1F NOT PUSH1 0x1F DUP3 ADD AND DUP3 ADD DUP1 PUSH1 0x40 MSTORE POP DUP2 ADD SWAP1 PUSH2 0x16A SWAP2 SWAP1 PUSH2 0x3B3 JUMP JUMPDEST PUSH2 0x172 PUSH2 0x17A JUMP JUMPDEST EQ SWAP1 POP SWAP2 SWAP1 POP JUMP JUMPDEST PUSH0 PUSH1 0x1 SLOAD PUSH0 SLOAD PUSH2 0x18A SWAP2 SWAP1 PUSH2 0x40B JUMP JUMPDEST SWAP1 POP SWAP1 JUMP JUMPDEST PUSH0 DUP2 PUSH20 0xFFFFFFFFFFFFFFFFFFFFFFFFFFFFFFFFFFFFFFFF AND PUSH4 0x20965255 PUSH1 0x40 MLOAD DUP2 PUSH4 0xFFFFFFFF AND PUSH1 0xE0 SHL DUP2 MSTORE PUSH1 0x4 ADD PUSH1 0x20 PUSH1 0x40 MLOAD DUP1 DUP4 SUB DUP2 DUP7 GAS STATICCALL ISZERO DUP1 ISZERO PUSH2 0x1D9 JUMPI RETURNDATASIZE PUSH0 DUP1 RETURNDATACOPY RETURNDATASIZE PUSH0 REVERT JUMPDEST POP POP POP POP PUSH1 0x40 MLOAD RETURNDATASIZE PUSH1 0x1F NOT PUSH1 0x1F DUP3 ADD AND DUP3 ADD DUP1 PUSH1 0x40 MSTORE POP DUP2 ADD SWAP1 PUSH2 0x1FD SWAP2 SWAP1 PUSH2 0x3B3 JUMP JUMPDEST PUSH2 0x205 PUSH2 0x17A JUMP JUMPDEST SLT SWAP1 POP SWAP2 SWAP1 POP JUMP JUMPDEST PUSH0 DUP2 PUSH20 0xFFFFFFFFFFFFFFFFFFFFFFFFFFFFFFFFFFFFFFFF AND PUSH4 0x20965255 PUSH1 0x40 MLOAD DUP2 PUSH4 0xFFFFFFFF AND PUSH1 0xE0 SHL DUP2 MSTORE PUSH1 0x4 ADD PUSH1 0x20 PUSH1 0x40 MLOAD DUP1 DUP4 SUB DUP2 DUP7 GAS STATICCALL ISZERO DUP1 ISZERO PUSH2 0x257 JUMPI RETURNDATASIZE PUSH0 DUP1 RETURNDATACOPY RETURNDATASIZE PUSH0 REVERT JUMPDEST POP POP POP POP PUSH1 0x40 MLOAD RETURNDATASIZE PUSH1 0x1F NOT PUSH1 0x1F DUP3 ADD AND DUP3 ADD DUP1 PUSH1 0x40 MSTORE POP DUP2 ADD SWAP1 PUSH2 0x27B SWAP2 SWAP1 PUSH2 0x3B3 JUMP JUMPDEST PUSH2 0x283 PUSH2 0x17A JUMP JUMPDEST SLT SWAP1 POP SWAP2 SWAP1 POP JUMP JUMPDEST PUSH0 DUP1 REVERT JUMPDEST PUSH0 PUSH20 0xFFFFFFFFFFFFFFFFFFFFFFFFFFFFFFFFFFFFFFFF DUP3 AND SWAP1 POP SWAP2 SWAP1 POP JUMP JUMPDEST PUSH0 PUSH2 0x2B8 DUP3 PUSH2 0x28F JUMP JUMPDEST SWAP1 POP SWAP2 SWAP1 POP JUMP JUMPDEST PUSH0 PUSH2 0x2C9 DUP3 PUSH2 0x2AE JUMP JUMPDEST SWAP1 POP SWAP2 SWAP1 POP JUMP JUMPDEST PUSH2 0x2D9 DUP2 PUSH2 0x2BF JUMP JUMPDEST DUP2 EQ PUSH2 0x2E3 JUMPI PUSH0 DUP1 REVERT JUMPDEST POP JUMP JUMPDEST PUSH0 DUP2 CALLDATALOAD SWAP1 POP PUSH2 0x2F4 DUP2 PUSH2 0x2D0 JUMP JUMPDEST SWAP3 SWAP2 POP POP JUMP JUMPDEST PUSH0 PUSH1 0x20 DUP3 DUP5 SUB SLT ISZERO PUSH2 0x30F JUMPI PUSH2 0x30E PUSH2 0x28B JUMP JUMPDEST JUMPDEST PUSH0 PUSH2 0x31C DUP5 DUP3 DUP6 ADD PUSH2 0x2E6 JUMP JUMPDEST SWAP2 POP POP SWAP3 SWAP2 POP POP JUMP JUMPDEST PUSH0 DUP2 ISZERO ISZERO SWAP1 POP SWAP2 SWAP1 POP JUMP JUMPDEST PUSH2 0x339 DUP2 PUSH2 0x325 JUMP JUMPDEST DUP3 MSTORE POP POP JUMP JUMPDEST PUSH0 PUSH1 0x20 DUP3 ADD SWAP1 POP PUSH2 0x352 PUSH0 DUP4 ADD DUP5 PUSH2 0x330 JUMP JUMPDEST SWAP3 SWAP2 POP POP JUMP JUMPDEST PUSH0 DUP2 SWAP1 POP SWAP2 SWAP1 POP JUMP JUMPDEST PUSH2 0x36A DUP2 PUSH2 0x358 JUMP JUMPDEST DUP3 MSTORE POP POP JUMP JUMPDEST PUSH0 PUSH1 0x20 DUP3 ADD SWAP1 POP PUSH2 0x383 PUSH0 DUP4 ADD DUP5 PUSH2 0x361 JUMP JUMPDEST SWAP3 SWAP2 POP POP JUMP JUMPDEST PUSH2 0x392 DUP2 PUSH2 0x358 JUMP JUMPDEST DUP2 EQ PUSH2 0x39C JUMPI PUSH0 DUP1 REVERT JUMPDEST POP JUMP JUMPDEST PUSH0 DUP2 MLOAD SWAP1 POP PUSH2 0x3AD DUP2 PUSH2 0x389 JUMP JUMPDEST SWAP3 SWAP2 POP POP JUMP JUMPDEST PUSH0 PUSH1 0x20 DUP3 DUP5 SUB SLT ISZERO PUSH2 0x3C8 JUMPI PUSH2 0x3C7 PUSH2 0x28B JUMP JUMPDEST JUMPDEST PUSH0 PUSH2 0x3D5 DUP5 DUP3 DUP6 ADD PUSH2 0x39F JUMP JUMPDEST SWAP2 POP POP SWAP3 SWAP2 POP POP JUMP JUMPDEST PUSH32 0x4E487B7100000000000000000000000000000000000000000000000000000000 PUSH0 MSTORE PUSH1 0x11 PUSH1 0x4 MSTORE PUSH1 0x24 PUSH0 REVERT JUMPDEST PUSH0 PUSH2 0x415 DUP3 PUSH2 0x358 JUMP JUMPDEST SWAP2 POP PUSH2 0x420 DUP4 PUSH2 0x358 JUMP JUMPDEST SWAP3 POP DUP3 DUP3 ADD SWAP1 POP DUP3 DUP2 SLT ISZERO PUSH0 DUP4 SLT AND DUP4 DUP3 SLT PUSH0 DUP5 SLT ISZERO AND OR ISZERO PUSH2 0x446 JUMPI PUSH2 0x445 PUSH2 0x3DE JUMP JUMPDEST JUMPDEST SWAP3 SWAP2 POP POP JUMP INVALID LOG2 PUSH5 0x6970667358 0x22 SLT KECCAK256 XOR 0xEF CALLDATASIZE SGT 0xF9 CREATE PUSH31 0x78D2098A09688FBE26B0D23C8F9016AADC7BA71442211363A964736F6C6343 STOP ADDMOD NOT STOP CALLER "
				},
				"gasEstimates": {
					"creation": {
						"codeDepositCost": "230800",
						"executionCost": "infinite",
						"totalCost": "infinite"
					},
					"external": {
						"equalTo(address)": "infinite",
						"getValue()": "infinite",
						"greaterThan(address)": "infinite",
						"lessThan(address)": "infinite"
					}
				},
				"methodIdentifiers": {
					"equalTo(address)": "123a2eae",
					"getValue()": "20965255",
					"greaterThan(address)": "6f0f7b11",
					"lessThan(address)": "99dff539"
				}
			},
			"storageLayout": {
				"storage": [
					{
						"astId": 35,
						"contract": "8.Interfaces.sol:Vector",
						"label": "a",
						"offset": 0,
						"slot": "0",
						"type": "t_int256"
					},
					{
						"astId": 37,
						"contract": "8.Interfaces.sol:Vector",
						"label": "b",
						"offset": 0,
						"slot": "1",
						"type": "t_int256"
					}
				],
				"types": {
					"t_int256": {
						"encoding": "inplace",
						"label": "int256",
						"numberOfBytes": "32"
					}
				}
			},
			"userdoc": {
				"kind": "user",
				"methods": {},
				"version": 1
			}
		}
	}
}