{
	"4.RestrictedCount.sol": {
		"RestrictedCount": {
			"abi": [
				{
					"inputs": [],
					"stateMutability": "nonpayable",
					"type": "constructor"
				},
				{
					"inputs": [
						{
							"internalType": "int256",
							"name": "value",
							"type": "int256"
						}
					],
					"name": "add",
					"outputs": [],
					"stateMutability": "nonpayable",
					"type": "function"
				},
				{
					"inputs": [],
					"name": "getCount",
					"outputs": [
						{
							"internalType": "int256",
							"name": "",
							"type": "int256"
						}
					],
					"stateMutability": "view",
					"type": "function"
				},
				{
					"inputs": [
						{
							"internalType": "int256",
							"name": "value",
							"type": "int256"
						}
					],
					"name": "substract",
					"outputs": [],
					"stateMutability": "nonpayable",
					"type": "function"
				}
			],
			"devdoc": {
				"kind": "dev",
				"methods": {},
				"version": 1
			},
			"evm": {
				"assembly": "    /* \"4.RestrictedCount.sol\":60:792  contract RestrictedCount {... */\n  mstore(0x40, 0x80)\n    /* \"4.RestrictedCount.sol\":130:168  constructor() { owner = msg.sender ; } */\n  callvalue\n  dup1\n  iszero\n  tag_1\n  jumpi\n  0x00\n  dup1\n  revert\ntag_1:\n  pop\n    /* \"4.RestrictedCount.sol\":154:164  msg.sender */\n  caller\n    /* \"4.RestrictedCount.sol\":146:151  owner */\n  0x01\n  0x00\n    /* \"4.RestrictedCount.sol\":146:164  owner = msg.sender */\n  0x0100\n  exp\n  dup2\n  sload\n  dup2\n  0xffffffffffffffffffffffffffffffffffffffff\n  mul\n  not\n  and\n  swap1\n  dup4\n  0xffffffffffffffffffffffffffffffffffffffff\n  and\n  mul\n  or\n  swap1\n  sstore\n  pop\n    /* \"4.RestrictedCount.sol\":60:792  contract RestrictedCount {... */\n  dataSize(sub_0)\n  dup1\n  dataOffset(sub_0)\n  0x00\n  codecopy\n  0x00\n  return\nstop\n\nsub_0: assembly {\n        /* \"4.RestrictedCount.sol\":60:792  contract RestrictedCount {... */\n      mstore(0x40, 0x80)\n      callvalue\n      dup1\n      iszero\n      tag_1\n      jumpi\n      0x00\n      dup1\n      revert\n    tag_1:\n      pop\n      jumpi(tag_2, lt(calldatasize, 0x04))\n      shr(0xe0, calldataload(0x00))\n      dup1\n      0x4dd9fb71\n      eq\n      tag_3\n      jumpi\n      dup1\n      0x87db03b7\n      eq\n      tag_4\n      jumpi\n      dup1\n      0xa87d942c\n      eq\n      tag_5\n      jumpi\n    tag_2:\n      0x00\n      dup1\n      revert\n        /* \"4.RestrictedCount.sol\":719:789  function substract(int value) public {... */\n    tag_3:\n      tag_6\n      0x04\n      dup1\n      calldatasize\n      sub\n      dup2\n      add\n      swap1\n      tag_7\n      swap2\n      swap1\n      tag_8\n      jump\t// in\n    tag_7:\n      tag_9\n      jump\t// in\n    tag_6:\n      stop\n        /* \"4.RestrictedCount.sol\":607:713  function add(int value) public isOwner(msg.sender) maximun(count + value){... */\n    tag_4:\n      tag_10\n      0x04\n      dup1\n      calldatasize\n      sub\n      dup2\n      add\n      swap1\n      tag_11\n      swap2\n      swap1\n      tag_8\n      jump\t// in\n    tag_11:\n      tag_12\n      jump\t// in\n    tag_10:\n      stop\n        /* \"4.RestrictedCount.sol\":523:599  function getCount() public view returns(int) {... */\n    tag_5:\n      tag_13\n      tag_14\n      jump\t// in\n    tag_13:\n      mload(0x40)\n      tag_15\n      swap2\n      swap1\n      tag_16\n      jump\t// in\n    tag_15:\n      mload(0x40)\n      dup1\n      swap2\n      sub\n      swap1\n      return\n        /* \"4.RestrictedCount.sol\":719:789  function substract(int value) public {... */\n    tag_9:\n        /* \"4.RestrictedCount.sol\":776:781  value */\n      dup1\n        /* \"4.RestrictedCount.sol\":767:772  count */\n      0x00\n      dup1\n        /* \"4.RestrictedCount.sol\":767:781  count -= value */\n      dup3\n      dup3\n      sload\n      tag_18\n      swap2\n      swap1\n      tag_19\n      jump\t// in\n    tag_18:\n      swap3\n      pop\n      pop\n      dup2\n      swap1\n      sstore\n      pop\n        /* \"4.RestrictedCount.sol\":719:789  function substract(int value) public {... */\n      pop\n      jump\t// out\n        /* \"4.RestrictedCount.sol\":607:713  function add(int value) public isOwner(msg.sender) maximun(count + value){... */\n    tag_12:\n        /* \"4.RestrictedCount.sol\":646:656  msg.sender */\n      caller\n        /* \"4.RestrictedCount.sol\":235:239  addr */\n      dup1\n        /* \"4.RestrictedCount.sol\":226:239  owner == addr */\n      0xffffffffffffffffffffffffffffffffffffffff\n      and\n        /* \"4.RestrictedCount.sol\":226:231  owner */\n      0x01\n      0x00\n      swap1\n      sload\n      swap1\n      0x0100\n      exp\n      swap1\n      div\n      0xffffffffffffffffffffffffffffffffffffffff\n      and\n        /* \"4.RestrictedCount.sol\":226:239  owner == addr */\n      0xffffffffffffffffffffffffffffffffffffffff\n      and\n      eq\n        /* \"4.RestrictedCount.sol\":218:264  require(owner == addr, \"You're not the owner\") */\n      tag_21\n      jumpi\n      mload(0x40)\n      0x08c379a000000000000000000000000000000000000000000000000000000000\n      dup2\n      mstore\n      0x04\n      add\n      tag_22\n      swap1\n      tag_23\n      jump\t// in\n    tag_22:\n      mload(0x40)\n      dup1\n      swap2\n      sub\n      swap1\n      revert\n    tag_21:\n        /* \"4.RestrictedCount.sol\":674:679  value */\n      dup2\n        /* \"4.RestrictedCount.sol\":666:671  count */\n      sload(0x00)\n        /* \"4.RestrictedCount.sol\":666:679  count + value */\n      tag_24\n      swap2\n      swap1\n      tag_25\n      jump\t// in\n    tag_24:\n        /* \"4.RestrictedCount.sol\":352:355  100 */\n      0x64\n        /* \"4.RestrictedCount.sol\":343:348  value */\n      dup2\n        /* \"4.RestrictedCount.sol\":343:355  value <= 100 */\n      sgt\n      iszero\n        /* \"4.RestrictedCount.sol\":335:379  require(value <= 100, \"You reach max value\") */\n      tag_27\n      jumpi\n      mload(0x40)\n      0x08c379a000000000000000000000000000000000000000000000000000000000\n      dup2\n      mstore\n      0x04\n      add\n      tag_28\n      swap1\n      tag_29\n      jump\t// in\n    tag_28:\n      mload(0x40)\n      dup1\n      swap2\n      sub\n      swap1\n      revert\n    tag_27:\n        /* \"4.RestrictedCount.sol\":700:705  value */\n      dup3\n        /* \"4.RestrictedCount.sol\":691:696  count */\n      0x00\n      dup1\n        /* \"4.RestrictedCount.sol\":691:705  count += value */\n      dup3\n      dup3\n      sload\n      tag_31\n      swap2\n      swap1\n      tag_25\n      jump\t// in\n    tag_31:\n      swap3\n      pop\n      pop\n      dup2\n      swap1\n      sstore\n      pop\n        /* \"4.RestrictedCount.sol\":275:276  _ */\n      pop\n        /* \"4.RestrictedCount.sol\":607:713  function add(int value) public isOwner(msg.sender) maximun(count + value){... */\n      pop\n      pop\n      jump\t// out\n        /* \"4.RestrictedCount.sol\":523:599  function getCount() public view returns(int) {... */\n    tag_14:\n        /* \"4.RestrictedCount.sol\":563:566  int */\n      0x00\n        /* \"4.RestrictedCount.sol\":586:591  count */\n      dup1\n      sload\n        /* \"4.RestrictedCount.sol\":579:591  return count */\n      swap1\n      pop\n        /* \"4.RestrictedCount.sol\":523:599  function getCount() public view returns(int) {... */\n      swap1\n      jump\t// out\n        /* \"#utility.yul\":88:205   */\n    tag_34:\n        /* \"#utility.yul\":197:198   */\n      0x00\n        /* \"#utility.yul\":194:195   */\n      dup1\n        /* \"#utility.yul\":187:199   */\n      revert\n        /* \"#utility.yul\":334:410   */\n    tag_36:\n        /* \"#utility.yul\":370:377   */\n      0x00\n        /* \"#utility.yul\":399:404   */\n      dup2\n        /* \"#utility.yul\":388:404   */\n      swap1\n      pop\n        /* \"#utility.yul\":334:410   */\n      swap2\n      swap1\n      pop\n      jump\t// out\n        /* \"#utility.yul\":416:536   */\n    tag_37:\n        /* \"#utility.yul\":488:511   */\n      tag_52\n        /* \"#utility.yul\":505:510   */\n      dup2\n        /* \"#utility.yul\":488:511   */\n      tag_36\n      jump\t// in\n    tag_52:\n        /* \"#utility.yul\":481:486   */\n      dup2\n        /* \"#utility.yul\":478:512   */\n      eq\n        /* \"#utility.yul\":468:530   */\n      tag_53\n      jumpi\n        /* \"#utility.yul\":526:527   */\n      0x00\n        /* \"#utility.yul\":523:524   */\n      dup1\n        /* \"#utility.yul\":516:528   */\n      revert\n        /* \"#utility.yul\":468:530   */\n    tag_53:\n        /* \"#utility.yul\":416:536   */\n      pop\n      jump\t// out\n        /* \"#utility.yul\":542:679   */\n    tag_38:\n        /* \"#utility.yul\":587:592   */\n      0x00\n        /* \"#utility.yul\":625:631   */\n      dup2\n        /* \"#utility.yul\":612:632   */\n      calldataload\n        /* \"#utility.yul\":603:632   */\n      swap1\n      pop\n        /* \"#utility.yul\":641:673   */\n      tag_55\n        /* \"#utility.yul\":667:672   */\n      dup2\n        /* \"#utility.yul\":641:673   */\n      tag_37\n      jump\t// in\n    tag_55:\n        /* \"#utility.yul\":542:679   */\n      swap3\n      swap2\n      pop\n      pop\n      jump\t// out\n        /* \"#utility.yul\":685:1012   */\n    tag_8:\n        /* \"#utility.yul\":743:749   */\n      0x00\n        /* \"#utility.yul\":792:794   */\n      0x20\n        /* \"#utility.yul\":780:789   */\n      dup3\n        /* \"#utility.yul\":771:778   */\n      dup5\n        /* \"#utility.yul\":767:790   */\n      sub\n        /* \"#utility.yul\":763:795   */\n      slt\n        /* \"#utility.yul\":760:879   */\n      iszero\n      tag_57\n      jumpi\n        /* \"#utility.yul\":798:877   */\n      tag_58\n      tag_34\n      jump\t// in\n    tag_58:\n        /* \"#utility.yul\":760:879   */\n    tag_57:\n        /* \"#utility.yul\":918:919   */\n      0x00\n        /* \"#utility.yul\":943:995   */\n      tag_59\n        /* \"#utility.yul\":987:994   */\n      dup5\n        /* \"#utility.yul\":978:984   */\n      dup3\n        /* \"#utility.yul\":967:976   */\n      dup6\n        /* \"#utility.yul\":963:985   */\n      add\n        /* \"#utility.yul\":943:995   */\n      tag_38\n      jump\t// in\n    tag_59:\n        /* \"#utility.yul\":933:995   */\n      swap2\n      pop\n        /* \"#utility.yul\":889:1005   */\n      pop\n        /* \"#utility.yul\":685:1012   */\n      swap3\n      swap2\n      pop\n      pop\n      jump\t// out\n        /* \"#utility.yul\":1018:1133   */\n    tag_39:\n        /* \"#utility.yul\":1103:1126   */\n      tag_61\n        /* \"#utility.yul\":1120:1125   */\n      dup2\n        /* \"#utility.yul\":1103:1126   */\n      tag_36\n      jump\t// in\n    tag_61:\n        /* \"#utility.yul\":1098:1101   */\n      dup3\n        /* \"#utility.yul\":1091:1127   */\n      mstore\n        /* \"#utility.yul\":1018:1133   */\n      pop\n      pop\n      jump\t// out\n        /* \"#utility.yul\":1139:1357   */\n    tag_16:\n        /* \"#utility.yul\":1230:1234   */\n      0x00\n        /* \"#utility.yul\":1268:1270   */\n      0x20\n        /* \"#utility.yul\":1257:1266   */\n      dup3\n        /* \"#utility.yul\":1253:1271   */\n      add\n        /* \"#utility.yul\":1245:1271   */\n      swap1\n      pop\n        /* \"#utility.yul\":1281:1350   */\n      tag_63\n        /* \"#utility.yul\":1347:1348   */\n      0x00\n        /* \"#utility.yul\":1336:1345   */\n      dup4\n        /* \"#utility.yul\":1332:1349   */\n      add\n        /* \"#utility.yul\":1323:1329   */\n      dup5\n        /* \"#utility.yul\":1281:1350   */\n      tag_39\n      jump\t// in\n    tag_63:\n        /* \"#utility.yul\":1139:1357   */\n      swap3\n      swap2\n      pop\n      pop\n      jump\t// out\n        /* \"#utility.yul\":1363:1543   */\n    tag_40:\n        /* \"#utility.yul\":1411:1488   */\n      0x4e487b7100000000000000000000000000000000000000000000000000000000\n        /* \"#utility.yul\":1408:1409   */\n      0x00\n        /* \"#utility.yul\":1401:1489   */\n      mstore\n        /* \"#utility.yul\":1508:1512   */\n      0x11\n        /* \"#utility.yul\":1505:1506   */\n      0x04\n        /* \"#utility.yul\":1498:1513   */\n      mstore\n        /* \"#utility.yul\":1532:1536   */\n      0x24\n        /* \"#utility.yul\":1529:1530   */\n      0x00\n        /* \"#utility.yul\":1522:1537   */\n      revert\n        /* \"#utility.yul\":1549:1921   */\n    tag_19:\n        /* \"#utility.yul\":1588:1592   */\n      0x00\n        /* \"#utility.yul\":1608:1627   */\n      tag_66\n        /* \"#utility.yul\":1625:1626   */\n      dup3\n        /* \"#utility.yul\":1608:1627   */\n      tag_36\n      jump\t// in\n    tag_66:\n        /* \"#utility.yul\":1603:1627   */\n      swap2\n      pop\n        /* \"#utility.yul\":1641:1660   */\n      tag_67\n        /* \"#utility.yul\":1658:1659   */\n      dup4\n        /* \"#utility.yul\":1641:1660   */\n      tag_36\n      jump\t// in\n    tag_67:\n        /* \"#utility.yul\":1636:1660   */\n      swap3\n      pop\n        /* \"#utility.yul\":1684:1685   */\n      dup3\n        /* \"#utility.yul\":1681:1682   */\n      dup3\n        /* \"#utility.yul\":1677:1686   */\n      sub\n        /* \"#utility.yul\":1669:1686   */\n      swap1\n      pop\n        /* \"#utility.yul\":1878:1879   */\n      dup2\n        /* \"#utility.yul\":1872:1876   */\n      dup2\n        /* \"#utility.yul\":1868:1880   */\n      slt\n        /* \"#utility.yul\":1864:1865   */\n      0x00\n        /* \"#utility.yul\":1861:1862   */\n      dup5\n        /* \"#utility.yul\":1857:1866   */\n      slt\n        /* \"#utility.yul\":1853:1881   */\n      and\n        /* \"#utility.yul\":1836:1837   */\n      dup3\n        /* \"#utility.yul\":1830:1834   */\n      dup3\n        /* \"#utility.yul\":1826:1838   */\n      sgt\n        /* \"#utility.yul\":1821:1822   */\n      0x00\n        /* \"#utility.yul\":1818:1819   */\n      dup6\n        /* \"#utility.yul\":1814:1823   */\n      slt\n        /* \"#utility.yul\":1807:1824   */\n      iszero\n        /* \"#utility.yul\":1803:1839   */\n      and\n        /* \"#utility.yul\":1787:1891   */\n      or\n        /* \"#utility.yul\":1784:1914   */\n      iszero\n      tag_68\n      jumpi\n        /* \"#utility.yul\":1894:1912   */\n      tag_69\n      tag_40\n      jump\t// in\n    tag_69:\n        /* \"#utility.yul\":1784:1914   */\n    tag_68:\n        /* \"#utility.yul\":1549:1921   */\n      swap3\n      swap2\n      pop\n      pop\n      jump\t// out\n        /* \"#utility.yul\":1927:2096   */\n    tag_41:\n        /* \"#utility.yul\":2011:2022   */\n      0x00\n        /* \"#utility.yul\":2045:2051   */\n      dup3\n        /* \"#utility.yul\":2040:2043   */\n      dup3\n        /* \"#utility.yul\":2033:2052   */\n      mstore\n        /* \"#utility.yul\":2085:2089   */\n      0x20\n        /* \"#utility.yul\":2080:2083   */\n      dup3\n        /* \"#utility.yul\":2076:2090   */\n      add\n        /* \"#utility.yul\":2061:2090   */\n      swap1\n      pop\n        /* \"#utility.yul\":1927:2096   */\n      swap3\n      swap2\n      pop\n      pop\n      jump\t// out\n        /* \"#utility.yul\":2102:2272   */\n    tag_42:\n        /* \"#utility.yul\":2242:2264   */\n      0x596f75277265206e6f7420746865206f776e6572000000000000000000000000\n        /* \"#utility.yul\":2238:2239   */\n      0x00\n        /* \"#utility.yul\":2230:2236   */\n      dup3\n        /* \"#utility.yul\":2226:2240   */\n      add\n        /* \"#utility.yul\":2219:2265   */\n      mstore\n        /* \"#utility.yul\":2102:2272   */\n      pop\n      jump\t// out\n        /* \"#utility.yul\":2278:2644   */\n    tag_43:\n        /* \"#utility.yul\":2420:2423   */\n      0x00\n        /* \"#utility.yul\":2441:2508   */\n      tag_73\n        /* \"#utility.yul\":2505:2507   */\n      0x14\n        /* \"#utility.yul\":2500:2503   */\n      dup4\n        /* \"#utility.yul\":2441:2508   */\n      tag_41\n      jump\t// in\n    tag_73:\n        /* \"#utility.yul\":2434:2508   */\n      swap2\n      pop\n        /* \"#utility.yul\":2517:2610   */\n      tag_74\n        /* \"#utility.yul\":2606:2609   */\n      dup3\n        /* \"#utility.yul\":2517:2610   */\n      tag_42\n      jump\t// in\n    tag_74:\n        /* \"#utility.yul\":2635:2637   */\n      0x20\n        /* \"#utility.yul\":2630:2633   */\n      dup3\n        /* \"#utility.yul\":2626:2638   */\n      add\n        /* \"#utility.yul\":2619:2638   */\n      swap1\n      pop\n        /* \"#utility.yul\":2278:2644   */\n      swap2\n      swap1\n      pop\n      jump\t// out\n        /* \"#utility.yul\":2650:3069   */\n    tag_23:\n        /* \"#utility.yul\":2816:2820   */\n      0x00\n        /* \"#utility.yul\":2854:2856   */\n      0x20\n        /* \"#utility.yul\":2843:2852   */\n      dup3\n        /* \"#utility.yul\":2839:2857   */\n      add\n        /* \"#utility.yul\":2831:2857   */\n      swap1\n      pop\n        /* \"#utility.yul\":2903:2912   */\n      dup2\n        /* \"#utility.yul\":2897:2901   */\n      dup2\n        /* \"#utility.yul\":2893:2913   */\n      sub\n        /* \"#utility.yul\":2889:2890   */\n      0x00\n        /* \"#utility.yul\":2878:2887   */\n      dup4\n        /* \"#utility.yul\":2874:2891   */\n      add\n        /* \"#utility.yul\":2867:2914   */\n      mstore\n        /* \"#utility.yul\":2931:3062   */\n      tag_76\n        /* \"#utility.yul\":3057:3061   */\n      dup2\n        /* \"#utility.yul\":2931:3062   */\n      tag_43\n      jump\t// in\n    tag_76:\n        /* \"#utility.yul\":2923:3062   */\n      swap1\n      pop\n        /* \"#utility.yul\":2650:3069   */\n      swap2\n      swap1\n      pop\n      jump\t// out\n        /* \"#utility.yul\":3075:3450   */\n    tag_25:\n        /* \"#utility.yul\":3114:3117   */\n      0x00\n        /* \"#utility.yul\":3133:3152   */\n      tag_78\n        /* \"#utility.yul\":3150:3151   */\n      dup3\n        /* \"#utility.yul\":3133:3152   */\n      tag_36\n      jump\t// in\n    tag_78:\n        /* \"#utility.yul\":3128:3152   */\n      swap2\n      pop\n        /* \"#utility.yul\":3166:3185   */\n      tag_79\n        /* \"#utility.yul\":3183:3184   */\n      dup4\n        /* \"#utility.yul\":3166:3185   */\n      tag_36\n      jump\t// in\n    tag_79:\n        /* \"#utility.yul\":3161:3185   */\n      swap3\n      pop\n        /* \"#utility.yul\":3208:3209   */\n      dup3\n        /* \"#utility.yul\":3205:3206   */\n      dup3\n        /* \"#utility.yul\":3201:3210   */\n      add\n        /* \"#utility.yul\":3194:3210   */\n      swap1\n      pop\n        /* \"#utility.yul\":3406:3407   */\n      dup3\n        /* \"#utility.yul\":3401:3404   */\n      dup2\n        /* \"#utility.yul\":3397:3408   */\n      slt\n        /* \"#utility.yul\":3390:3409   */\n      iszero\n        /* \"#utility.yul\":3386:3387   */\n      0x00\n        /* \"#utility.yul\":3383:3384   */\n      dup4\n        /* \"#utility.yul\":3379:3388   */\n      slt\n        /* \"#utility.yul\":3375:3410   */\n      and\n        /* \"#utility.yul\":3358:3359   */\n      dup4\n        /* \"#utility.yul\":3353:3356   */\n      dup3\n        /* \"#utility.yul\":3349:3360   */\n      slt\n        /* \"#utility.yul\":3344:3345   */\n      0x00\n        /* \"#utility.yul\":3341:3342   */\n      dup5\n        /* \"#utility.yul\":3337:3346   */\n      slt\n        /* \"#utility.yul\":3330:3347   */\n      iszero\n        /* \"#utility.yul\":3326:3361   */\n      and\n        /* \"#utility.yul\":3310:3420   */\n      or\n        /* \"#utility.yul\":3307:3443   */\n      iszero\n      tag_80\n      jumpi\n        /* \"#utility.yul\":3423:3441   */\n      tag_81\n      tag_40\n      jump\t// in\n    tag_81:\n        /* \"#utility.yul\":3307:3443   */\n    tag_80:\n        /* \"#utility.yul\":3075:3450   */\n      swap3\n      swap2\n      pop\n      pop\n      jump\t// out\n        /* \"#utility.yul\":3456:3625   */\n    tag_44:\n        /* \"#utility.yul\":3596:3617   */\n      0x596f75207265616368206d61782076616c756500000000000000000000000000\n        /* \"#utility.yul\":3592:3593   */\n      0x00\n        /* \"#utility.yul\":3584:3590   */\n      dup3\n        /* \"#utility.yul\":3580:3594   */\n      add\n        /* \"#utility.yul\":3573:3618   */\n      mstore\n        /* \"#utility.yul\":3456:3625   */\n      pop\n      jump\t// out\n        /* \"#utility.yul\":3631:3997   */\n    tag_45:\n        /* \"#utility.yul\":3773:3776   */\n      0x00\n        /* \"#utility.yul\":3794:3861   */\n      tag_84\n        /* \"#utility.yul\":3858:3860   */\n      0x13\n        /* \"#utility.yul\":3853:3856   */\n      dup4\n        /* \"#utility.yul\":3794:3861   */\n      tag_41\n      jump\t// in\n    tag_84:\n        /* \"#utility.yul\":3787:3861   */\n      swap2\n      pop\n        /* \"#utility.yul\":3870:3963   */\n      tag_85\n        /* \"#utility.yul\":3959:3962   */\n      dup3\n        /* \"#utility.yul\":3870:3963   */\n      tag_44\n      jump\t// in\n    tag_85:\n        /* \"#utility.yul\":3988:3990   */\n      0x20\n        /* \"#utility.yul\":3983:3986   */\n      dup3\n        /* \"#utility.yul\":3979:3991   */\n      add\n        /* \"#utility.yul\":3972:3991   */\n      swap1\n      pop\n        /* \"#utility.yul\":3631:3997   */\n      swap2\n      swap1\n      pop\n      jump\t// out\n        /* \"#utility.yul\":4003:4422   */\n    tag_29:\n        /* \"#utility.yul\":4169:4173   */\n      0x00\n        /* \"#utility.yul\":4207:4209   */\n      0x20\n        /* \"#utility.yul\":4196:4205   */\n      dup3\n        /* \"#utility.yul\":4192:4210   */\n      add\n        /* \"#utility.yul\":4184:4210   */\n      swap1\n      pop\n        /* \"#utility.yul\":4256:4265   */\n      dup2\n        /* \"#utility.yul\":4250:4254   */\n      dup2\n        /* \"#utility.yul\":4246:4266   */\n      sub\n        /* \"#utility.yul\":4242:4243   */\n      0x00\n        /* \"#utility.yul\":4231:4240   */\n      dup4\n        /* \"#utility.yul\":4227:4244   */\n      add\n        /* \"#utility.yul\":4220:4267   */\n      mstore\n        /* \"#utility.yul\":4284:4415   */\n      tag_87\n        /* \"#utility.yul\":4410:4414   */\n      dup2\n        /* \"#utility.yul\":4284:4415   */\n      tag_45\n      jump\t// in\n    tag_87:\n        /* \"#utility.yul\":4276:4415   */\n      swap1\n      pop\n        /* \"#utility.yul\":4003:4422   */\n      swap2\n      swap1\n      pop\n      jump\t// out\n\n    auxdata: 0xa26469706673582212201c0d039b15b544bf6e86d258d9b6ba5fa79a7ffc1bdc8c8fec84bb0cbce39e5d64736f6c63430008190033\n}\n",
				"bytecode": {
					"linkReferences": {},
					"object": "6080604052348015600e575f80fd5b503360015f6101000a81548173ffffffffffffffffffffffffffffffffffffffff021916908373ffffffffffffffffffffffffffffffffffffffff1602179055506104068061005c5f395ff3fe608060405234801561000f575f80fd5b506004361061003f575f3560e01c80634dd9fb711461004357806387db03b71461005f578063a87d942c1461007b575b5f80fd5b61005d600480360381019061005891906101ef565b610099565b005b610079600480360381019061007491906101ef565b6100b3565b005b6100836101b0565b6040516100909190610229565b60405180910390f35b805f808282546100a9919061026f565b9250508190555050565b338073ffffffffffffffffffffffffffffffffffffffff1660015f9054906101000a900473ffffffffffffffffffffffffffffffffffffffff1673ffffffffffffffffffffffffffffffffffffffff1614610143576040517f08c379a000000000000000000000000000000000000000000000000000000000815260040161013a90610309565b60405180910390fd5b815f546101509190610327565b6064811315610194576040517f08c379a000000000000000000000000000000000000000000000000000000000815260040161018b906103b2565b60405180910390fd5b825f808282546101a49190610327565b92505081905550505050565b5f8054905090565b5f80fd5b5f819050919050565b6101ce816101bc565b81146101d8575f80fd5b50565b5f813590506101e9816101c5565b92915050565b5f60208284031215610204576102036101b8565b5b5f610211848285016101db565b91505092915050565b610223816101bc565b82525050565b5f60208201905061023c5f83018461021a565b92915050565b7f4e487b71000000000000000000000000000000000000000000000000000000005f52601160045260245ffd5b5f610279826101bc565b9150610284836101bc565b925082820390508181125f8412168282135f8512151617156102a9576102a8610242565b5b92915050565b5f82825260208201905092915050565b7f596f75277265206e6f7420746865206f776e65720000000000000000000000005f82015250565b5f6102f36014836102af565b91506102fe826102bf565b602082019050919050565b5f6020820190508181035f830152610320816102e7565b9050919050565b5f610331826101bc565b915061033c836101bc565b92508282019050828112155f8312168382125f84121516171561036257610361610242565b5b92915050565b7f596f75207265616368206d61782076616c7565000000000000000000000000005f82015250565b5f61039c6013836102af565b91506103a782610368565b602082019050919050565b5f6020820190508181035f8301526103c981610390565b905091905056fea26469706673582212201c0d039b15b544bf6e86d258d9b6ba5fa79a7ffc1bdc8c8fec84bb0cbce39e5d64736f6c63430008190033",
					"opcodes": "PUSH1 0x80 PUSH1 0x40 MSTORE CALLVALUE DUP1 ISZERO PUSH1 0xE JUMPI PUSH0 DUP1 REVERT JUMPDEST POP CALLER PUSH1 0x1 PUSH0 PUSH2 0x100 EXP DUP2 SLOAD DUP2 PUSH20 0xFFFFFFFFFFFFFFFFFFFFFFFFFFFFFFFFFFFFFFFF MUL NOT AND SWAP1 DUP4 PUSH20 0xFFFFFFFFFFFFFFFFFFFFFFFFFFFFFFFFFFFFFFFF AND MUL OR SWAP1 SSTORE POP PUSH2 0x406 DUP1 PUSH2 0x5C PUSH0 CODECOPY PUSH0 RETURN INVALID PUSH1 0x80 PUSH1 0x40 MSTORE CALLVALUE DUP1 ISZERO PUSH2 0xF JUMPI PUSH0 DUP1 REVERT JUMPDEST POP PUSH1 0x4 CALLDATASIZE LT PUSH2 0x3F JUMPI PUSH0 CALLDATALOAD PUSH1 0xE0 SHR DUP1 PUSH4 0x4DD9FB71 EQ PUSH2 0x43 JUMPI DUP1 PUSH4 0x87DB03B7 EQ PUSH2 0x5F JUMPI DUP1 PUSH4 0xA87D942C EQ PUSH2 0x7B JUMPI JUMPDEST PUSH0 DUP1 REVERT JUMPDEST PUSH2 0x5D PUSH1 0x4 DUP1 CALLDATASIZE SUB DUP2 ADD SWAP1 PUSH2 0x58 SWAP2 SWAP1 PUSH2 0x1EF JUMP JUMPDEST PUSH2 0x99 JUMP JUMPDEST STOP JUMPDEST PUSH2 0x79 PUSH1 0x4 DUP1 CALLDATASIZE SUB DUP2 ADD SWAP1 PUSH2 0x74 SWAP2 SWAP1 PUSH2 0x1EF JUMP JUMPDEST PUSH2 0xB3 JUMP JUMPDEST STOP JUMPDEST PUSH2 0x83 PUSH2 0x1B0 JUMP JUMPDEST PUSH1 0x40 MLOAD PUSH2 0x90 SWAP2 SWAP1 PUSH2 0x229 JUMP JUMPDEST PUSH1 0x40 MLOAD DUP1 SWAP2 SUB SWAP1 RETURN JUMPDEST DUP1 PUSH0 DUP1 DUP3 DUP3 SLOAD PUSH2 0xA9 SWAP2 SWAP1 PUSH2 0x26F JUMP JUMPDEST SWAP3 POP POP DUP2 SWAP1 SSTORE POP POP JUMP JUMPDEST CALLER DUP1 PUSH20 0xFFFFFFFFFFFFFFFFFFFFFFFFFFFFFFFFFFFFFFFF AND PUSH1 0x1 PUSH0 SWAP1 SLOAD SWAP1 PUSH2 0x100 EXP SWAP1 DIV PUSH20 0xFFFFFFFFFFFFFFFFFFFFFFFFFFFFFFFFFFFFFFFF AND PUSH20 0xFFFFFFFFFFFFFFFFFFFFFFFFFFFFFFFFFFFFFFFF AND EQ PUSH2 0x143 JUMPI PUSH1 0x40 MLOAD PUSH32 0x8C379A000000000000000000000000000000000000000000000000000000000 DUP2 MSTORE PUSH1 0x4 ADD PUSH2 0x13A SWAP1 PUSH2 0x309 JUMP JUMPDEST PUSH1 0x40 MLOAD DUP1 SWAP2 SUB SWAP1 REVERT JUMPDEST DUP2 PUSH0 SLOAD PUSH2 0x150 SWAP2 SWAP1 PUSH2 0x327 JUMP JUMPDEST PUSH1 0x64 DUP2 SGT ISZERO PUSH2 0x194 JUMPI PUSH1 0x40 MLOAD PUSH32 0x8C379A000000000000000000000000000000000000000000000000000000000 DUP2 MSTORE PUSH1 0x4 ADD PUSH2 0x18B SWAP1 PUSH2 0x3B2 JUMP JUMPDEST PUSH1 0x40 MLOAD DUP1 SWAP2 SUB SWAP1 REVERT JUMPDEST DUP3 PUSH0 DUP1 DUP3 DUP3 SLOAD PUSH2 0x1A4 SWAP2 SWAP1 PUSH2 0x327 JUMP JUMPDEST SWAP3 POP POP DUP2 SWAP1 SSTORE POP POP POP POP JUMP JUMPDEST PUSH0 DUP1 SLOAD SWAP1 POP SWAP1 JUMP JUMPDEST PUSH0 DUP1 REVERT JUMPDEST PUSH0 DUP2 SWAP1 POP SWAP2 SWAP1 POP JUMP JUMPDEST PUSH2 0x1CE DUP2 PUSH2 0x1BC JUMP JUMPDEST DUP2 EQ PUSH2 0x1D8 JUMPI PUSH0 DUP1 REVERT JUMPDEST POP JUMP JUMPDEST PUSH0 DUP2 CALLDATALOAD SWAP1 POP PUSH2 0x1E9 DUP2 PUSH2 0x1C5 JUMP JUMPDEST SWAP3 SWAP2 POP POP JUMP JUMPDEST PUSH0 PUSH1 0x20 DUP3 DUP5 SUB SLT ISZERO PUSH2 0x204 JUMPI PUSH2 0x203 PUSH2 0x1B8 JUMP JUMPDEST JUMPDEST PUSH0 PUSH2 0x211 DUP5 DUP3 DUP6 ADD PUSH2 0x1DB JUMP JUMPDEST SWAP2 POP POP SWAP3 SWAP2 POP POP JUMP JUMPDEST PUSH2 0x223 DUP2 PUSH2 0x1BC JUMP JUMPDEST DUP3 MSTORE POP POP JUMP JUMPDEST PUSH0 PUSH1 0x20 DUP3 ADD SWAP1 POP PUSH2 0x23C PUSH0 DUP4 ADD DUP5 PUSH2 0x21A JUMP JUMPDEST SWAP3 SWAP2 POP POP JUMP JUMPDEST PUSH32 0x4E487B7100000000000000000000000000000000000000000000000000000000 PUSH0 MSTORE PUSH1 0x11 PUSH1 0x4 MSTORE PUSH1 0x24 PUSH0 REVERT JUMPDEST PUSH0 PUSH2 0x279 DUP3 PUSH2 0x1BC JUMP JUMPDEST SWAP2 POP PUSH2 0x284 DUP4 PUSH2 0x1BC JUMP JUMPDEST SWAP3 POP DUP3 DUP3 SUB SWAP1 POP DUP2 DUP2 SLT PUSH0 DUP5 SLT AND DUP3 DUP3 SGT PUSH0 DUP6 SLT ISZERO AND OR ISZERO PUSH2 0x2A9 JUMPI PUSH2 0x2A8 PUSH2 0x242 JUMP JUMPDEST JUMPDEST SWAP3 SWAP2 POP POP JUMP JUMPDEST PUSH0 DUP3 DUP3 MSTORE PUSH1 0x20 DUP3 ADD SWAP1 POP SWAP3 SWAP2 POP POP JUMP JUMPDEST PUSH32 0x596F75277265206E6F7420746865206F776E6572000000000000000000000000 PUSH0 DUP3 ADD MSTORE POP JUMP JUMPDEST PUSH0 PUSH2 0x2F3 PUSH1 0x14 DUP4 PUSH2 0x2AF JUMP JUMPDEST SWAP2 POP PUSH2 0x2FE DUP3 PUSH2 0x2BF JUMP JUMPDEST PUSH1 0x20 DUP3 ADD SWAP1 POP SWAP2 SWAP1 POP JUMP JUMPDEST PUSH0 PUSH1 0x20 DUP3 ADD SWAP1 POP DUP2 DUP2 SUB PUSH0 DUP4 ADD MSTORE PUSH2 0x320 DUP2 PUSH2 0x2E7 JUMP JUMPDEST SWAP1 POP SWAP2 SWAP1 POP JUMP JUMPDEST PUSH0 PUSH2 0x331 DUP3 PUSH2 0x1BC JUMP JUMPDEST SWAP2 POP PUSH2 0x33C DUP4 PUSH2 0x1BC JUMP JUMPDEST SWAP3 POP DUP3 DUP3 ADD SWAP1 POP DUP3 DUP2 SLT ISZERO PUSH0 DUP4 SLT AND DUP4 DUP3 SLT PUSH0 DUP5 SLT ISZERO AND OR ISZERO PUSH2 0x362 JUMPI PUSH2 0x361 PUSH2 0x242 JUMP JUMPDEST JUMPDEST SWAP3 SWAP2 POP POP JUMP JUMPDEST PUSH32 0x596F75207265616368206D61782076616C756500000000000000000000000000 PUSH0 DUP3 ADD MSTORE POP JUMP JUMPDEST PUSH0 PUSH2 0x39C PUSH1 0x13 DUP4 PUSH2 0x2AF JUMP JUMPDEST SWAP2 POP PUSH2 0x3A7 DUP3 PUSH2 0x368 JUMP JUMPDEST PUSH1 0x20 DUP3 ADD SWAP1 POP SWAP2 SWAP1 POP JUMP JUMPDEST PUSH0 PUSH1 0x20 DUP3 ADD SWAP1 POP DUP2 DUP2 SUB PUSH0 DUP4 ADD MSTORE PUSH2 0x3C9 DUP2 PUSH2 0x390 JUMP JUMPDEST SWAP1 POP SWAP2 SWAP1 POP JUMP INVALID LOG2 PUSH5 0x6970667358 0x22 SLT KECCAK256 SHR 0xD SUB SWAP12 ISZERO 0xB5 PREVRANDAO 0xBF PUSH15 0x86D258D9B6BA5FA79A7FFC1BDC8C8F 0xEC DUP5 0xBB 0xC 0xBC 0xE3 SWAP15 TSTORE PUSH5 0x736F6C6343 STOP ADDMOD NOT STOP CALLER "
				},
				"gasEstimates": {
					"creation": {
						"codeDepositCost": "206000",
						"executionCost": "24514",
						"totalCost": "230514"
					},
					"external": {
						"add(int256)": "infinite",
						"getCount()": "2454",
						"substract(int256)": "infinite"
					}
				},
				"methodIdentifiers": {
					"add(int256)": "87db03b7",
					"getCount()": "a87d942c",
					"substract(int256)": "4dd9fb71"
				}
			},
			"storageLayout": {
				"storage": [
					{
						"astId": 3,
						"contract": "4.RestrictedCount.sol:RestrictedCount",
						"label": "count",
						"offset": 0,
						"slot": "0",
						"type": "t_int256"
					},
					{
						"astId": 5,
						"contract": "4.RestrictedCount.sol:RestrictedCount",
						"label": "owner",
						"offset": 0,
						"slot": "1",
						"type": "t_address"
					}
				],
				"types": {
					"t_address": {
						"encoding": "inplace",
						"label": "address",
						"numberOfBytes": "20"
					},
					"t_int256": {
						"encoding": "inplace",
						"label": "int256",
						"numberOfBytes": "32"
					}
				}
			},
			"userdoc": {
				"kind": "user",
				"methods": {},
				"version": 1
			}
		}
	}
}