{
	"7.AbstractContracts.sol": {
		"Bank": {
			"abi": [
				{
					"inputs": [
						{
							"internalType": "address",
							"name": "",
							"type": "address"
						}
					],
					"name": "balance",
					"outputs": [
						{
							"internalType": "uint256",
							"name": "",
							"type": "uint256"
						}
					],
					"stateMutability": "view",
					"type": "function"
				},
				{
					"inputs": [
						{
							"internalType": "address",
							"name": "",
							"type": "address"
						}
					],
					"name": "bonus",
					"outputs": [
						{
							"internalType": "uint256",
							"name": "",
							"type": "uint256"
						}
					],
					"stateMutability": "view",
					"type": "function"
				},
				{
					"inputs": [],
					"name": "deposit",
					"outputs": [
						{
							"internalType": "uint256",
							"name": "",
							"type": "uint256"
						}
					],
					"stateMutability": "payable",
					"type": "function"
				},
				{
					"inputs": [
						{
							"internalType": "address",
							"name": "",
							"type": "address"
						}
					],
					"name": "firstDeposit",
					"outputs": [
						{
							"internalType": "bool",
							"name": "",
							"type": "bool"
						}
					],
					"stateMutability": "view",
					"type": "function"
				},
				{
					"inputs": [],
					"name": "getBalance",
					"outputs": [
						{
							"internalType": "uint256",
							"name": "",
							"type": "uint256"
						}
					],
					"stateMutability": "view",
					"type": "function"
				},
				{
					"inputs": [
						{
							"internalType": "uint256",
							"name": "amount",
							"type": "uint256"
						}
					],
					"name": "withdraw",
					"outputs": [],
					"stateMutability": "payable",
					"type": "function"
				}
			],
			"devdoc": {
				"kind": "dev",
				"methods": {},
				"version": 1
			},
			"evm": {
				"assembly": "    /* \"7.AbstractContracts.sol\":302:1474  contract Bank is SignUpBonus {... */\n  mstore(0x40, 0x80)\n  callvalue\n  dup1\n  iszero\n  tag_1\n  jumpi\n  0x00\n  dup1\n  revert\ntag_1:\n  pop\n  dataSize(sub_0)\n  dup1\n  dataOffset(sub_0)\n  0x00\n  codecopy\n  0x00\n  return\nstop\n\nsub_0: assembly {\n        /* \"7.AbstractContracts.sol\":302:1474  contract Bank is SignUpBonus {... */\n      mstore(0x40, 0x80)\n      jumpi(tag_1, lt(calldatasize, 0x04))\n      shr(0xe0, calldataload(0x00))\n      dup1\n      0x12065fe0\n      eq\n      tag_2\n      jumpi\n      dup1\n      0x2e1a7d4d\n      eq\n      tag_3\n      jumpi\n      dup1\n      0xac4b3c04\n      eq\n      tag_4\n      jumpi\n      dup1\n      0xd0e30db0\n      eq\n      tag_5\n      jumpi\n      dup1\n      0xd8cb4aa3\n      eq\n      tag_6\n      jumpi\n      dup1\n      0xe3d670d7\n      eq\n      tag_7\n      jumpi\n    tag_1:\n      0x00\n      dup1\n      revert\n        /* \"7.AbstractContracts.sol\":1378:1471  function getBalance() public view returns(uint) {... */\n    tag_2:\n      callvalue\n      dup1\n      iszero\n      tag_8\n      jumpi\n      0x00\n      dup1\n      revert\n    tag_8:\n      pop\n      tag_9\n      tag_10\n      jump\t// in\n    tag_9:\n      mload(0x40)\n      tag_11\n      swap2\n      swap1\n      tag_12\n      jump\t// in\n    tag_11:\n      mload(0x40)\n      dup1\n      swap2\n      sub\n      swap1\n      return\n        /* \"7.AbstractContracts.sol\":1091:1370  function withdraw(uint amount) public payable {... */\n    tag_3:\n      tag_13\n      0x04\n      dup1\n      calldatasize\n      sub\n      dup2\n      add\n      swap1\n      tag_14\n      swap2\n      swap1\n      tag_15\n      jump\t// in\n    tag_14:\n      tag_16\n      jump\t// in\n    tag_13:\n      stop\n        /* \"7.AbstractContracts.sol\":428:472  mapping(address => bool) public firstDeposit */\n    tag_4:\n      callvalue\n      dup1\n      iszero\n      tag_17\n      jumpi\n      0x00\n      dup1\n      revert\n    tag_17:\n      pop\n      tag_18\n      0x04\n      dup1\n      calldatasize\n      sub\n      dup2\n      add\n      swap1\n      tag_19\n      swap2\n      swap1\n      tag_20\n      jump\t// in\n    tag_19:\n      tag_21\n      jump\t// in\n    tag_18:\n      mload(0x40)\n      tag_22\n      swap2\n      swap1\n      tag_23\n      jump\t// in\n    tag_22:\n      mload(0x40)\n      dup1\n      swap2\n      sub\n      swap1\n      return\n        /* \"7.AbstractContracts.sol\":696:1083  function deposit() public override payable returns(uint) {... */\n    tag_5:\n      tag_24\n      tag_25\n      jump\t// in\n    tag_24:\n      mload(0x40)\n      tag_26\n      swap2\n      swap1\n      tag_12\n      jump\t// in\n    tag_26:\n      mload(0x40)\n      dup1\n      swap2\n      sub\n      swap1\n      return\n        /* \"7.AbstractContracts.sol\":338:375  mapping(address => uint) public bonus */\n    tag_6:\n      callvalue\n      dup1\n      iszero\n      tag_27\n      jumpi\n      0x00\n      dup1\n      revert\n    tag_27:\n      pop\n      tag_28\n      0x04\n      dup1\n      calldatasize\n      sub\n      dup2\n      add\n      swap1\n      tag_29\n      swap2\n      swap1\n      tag_20\n      jump\t// in\n    tag_29:\n      tag_30\n      jump\t// in\n    tag_28:\n      mload(0x40)\n      tag_31\n      swap2\n      swap1\n      tag_12\n      jump\t// in\n    tag_31:\n      mload(0x40)\n      dup1\n      swap2\n      sub\n      swap1\n      return\n        /* \"7.AbstractContracts.sol\":382:421  mapping(address => uint) public balance */\n    tag_7:\n      callvalue\n      dup1\n      iszero\n      tag_32\n      jumpi\n      0x00\n      dup1\n      revert\n    tag_32:\n      pop\n      tag_33\n      0x04\n      dup1\n      calldatasize\n      sub\n      dup2\n      add\n      swap1\n      tag_34\n      swap2\n      swap1\n      tag_20\n      jump\t// in\n    tag_34:\n      tag_35\n      jump\t// in\n    tag_33:\n      mload(0x40)\n      tag_36\n      swap2\n      swap1\n      tag_12\n      jump\t// in\n    tag_36:\n      mload(0x40)\n      dup1\n      swap2\n      sub\n      swap1\n      return\n        /* \"7.AbstractContracts.sol\":1378:1471  function getBalance() public view returns(uint) {... */\n    tag_10:\n        /* \"7.AbstractContracts.sol\":1420:1424  uint */\n      0x00\n        /* \"7.AbstractContracts.sol\":1444:1451  balance */\n      0x01\n        /* \"7.AbstractContracts.sol\":1444:1463  balance[msg.sender] */\n      0x00\n        /* \"7.AbstractContracts.sol\":1452:1462  msg.sender */\n      caller\n        /* \"7.AbstractContracts.sol\":1444:1463  balance[msg.sender] */\n      0xffffffffffffffffffffffffffffffffffffffff\n      and\n      0xffffffffffffffffffffffffffffffffffffffff\n      and\n      dup2\n      mstore\n      0x20\n      add\n      swap1\n      dup2\n      mstore\n      0x20\n      add\n      0x00\n      keccak256\n      sload\n        /* \"7.AbstractContracts.sol\":1437:1463  return balance[msg.sender] */\n      swap1\n      pop\n        /* \"7.AbstractContracts.sol\":1378:1471  function getBalance() public view returns(uint) {... */\n      swap1\n      jump\t// out\n        /* \"7.AbstractContracts.sol\":1091:1370  function withdraw(uint amount) public payable {... */\n    tag_16:\n        /* \"7.AbstractContracts.sol\":1166:1173  balance */\n      0x01\n        /* \"7.AbstractContracts.sol\":1166:1185  balance[msg.sender] */\n      0x00\n        /* \"7.AbstractContracts.sol\":1174:1184  msg.sender */\n      caller\n        /* \"7.AbstractContracts.sol\":1166:1185  balance[msg.sender] */\n      0xffffffffffffffffffffffffffffffffffffffff\n      and\n      0xffffffffffffffffffffffffffffffffffffffff\n      and\n      dup2\n      mstore\n      0x20\n      add\n      swap1\n      dup2\n      mstore\n      0x20\n      add\n      0x00\n      keccak256\n      sload\n        /* \"7.AbstractContracts.sol\":1156:1162  amount */\n      dup2\n        /* \"7.AbstractContracts.sol\":1156:1185  amount <= balance[msg.sender] */\n      gt\n      iszero\n        /* \"7.AbstractContracts.sol\":1148:1217  require(amount <= balance[msg.sender], \"You don't have enough money\") */\n      tag_39\n      jumpi\n      mload(0x40)\n      0x08c379a000000000000000000000000000000000000000000000000000000000\n      dup2\n      mstore\n      0x04\n      add\n      tag_40\n      swap1\n      tag_41\n      jump\t// in\n    tag_40:\n      mload(0x40)\n      dup1\n      swap2\n      sub\n      swap1\n      revert\n    tag_39:\n        /* \"7.AbstractContracts.sol\":1253:1259  amount */\n      dup1\n        /* \"7.AbstractContracts.sol\":1230:1237  balance */\n      0x01\n        /* \"7.AbstractContracts.sol\":1230:1249  balance[msg.sender] */\n      0x00\n        /* \"7.AbstractContracts.sol\":1238:1248  msg.sender */\n      caller\n        /* \"7.AbstractContracts.sol\":1230:1249  balance[msg.sender] */\n      0xffffffffffffffffffffffffffffffffffffffff\n      and\n      0xffffffffffffffffffffffffffffffffffffffff\n      and\n      dup2\n      mstore\n      0x20\n      add\n      swap1\n      dup2\n      mstore\n      0x20\n      add\n      0x00\n      keccak256\n      0x00\n        /* \"7.AbstractContracts.sol\":1230:1259  balance[msg.sender] -= amount */\n      dup3\n      dup3\n      sload\n      tag_42\n      swap2\n      swap1\n      tag_43\n      jump\t// in\n    tag_42:\n      swap3\n      pop\n      pop\n      dup2\n      swap1\n      sstore\n      pop\n        /* \"7.AbstractContracts.sol\":1271:1280  bool sent */\n      0x00\n        /* \"7.AbstractContracts.sol\":1294:1304  msg.sender */\n      caller\n        /* \"7.AbstractContracts.sol\":1286:1310  payable(msg.sender).call */\n      0xffffffffffffffffffffffffffffffffffffffff\n      and\n        /* \"7.AbstractContracts.sol\":1319:1325  amount */\n      dup3\n        /* \"7.AbstractContracts.sol\":1286:1331  payable(msg.sender).call{ value: amount }(\"\") */\n      mload(0x40)\n      tag_44\n      swap1\n      tag_45\n      jump\t// in\n    tag_44:\n      0x00\n      mload(0x40)\n      dup1\n      dup4\n      sub\n      dup2\n      dup6\n      dup8\n      gas\n      call\n      swap3\n      pop\n      pop\n      pop\n      returndatasize\n      dup1\n      0x00\n      dup2\n      eq\n      tag_48\n      jumpi\n      mload(0x40)\n      swap2\n      pop\n      and(add(returndatasize, 0x3f), not(0x1f))\n      dup3\n      add\n      0x40\n      mstore\n      returndatasize\n      dup3\n      mstore\n      returndatasize\n      0x00\n      0x20\n      dup5\n      add\n      returndatacopy\n      jump(tag_47)\n    tag_48:\n      0x60\n      swap2\n      pop\n    tag_47:\n      pop\n        /* \"7.AbstractContracts.sol\":1270:1331  (bool sent, ) = payable(msg.sender).call{ value: amount }(\"\") */\n      pop\n      swap1\n      pop\n        /* \"7.AbstractContracts.sol\":1357:1361  true */\n      0x01\n        /* \"7.AbstractContracts.sol\":1349:1361  sent == true */\n      iszero\n      iszero\n        /* \"7.AbstractContracts.sol\":1349:1353  sent */\n      dup2\n        /* \"7.AbstractContracts.sol\":1349:1361  sent == true */\n      iszero\n      iszero\n      eq\n        /* \"7.AbstractContracts.sol\":1342:1362  assert(sent == true) */\n      tag_49\n      jumpi\n      tag_50\n      tag_51\n      jump\t// in\n    tag_50:\n    tag_49:\n        /* \"7.AbstractContracts.sol\":1137:1370  {... */\n      pop\n        /* \"7.AbstractContracts.sol\":1091:1370  function withdraw(uint amount) public payable {... */\n      pop\n      jump\t// out\n        /* \"7.AbstractContracts.sol\":428:472  mapping(address => bool) public firstDeposit */\n    tag_21:\n      mstore(0x20, 0x02)\n      dup1\n      0x00\n      mstore\n      keccak256(0x00, 0x40)\n      0x00\n      swap2\n      pop\n      sload\n      swap1\n      0x0100\n      exp\n      swap1\n      div\n      0xff\n      and\n      dup2\n      jump\t// out\n        /* \"7.AbstractContracts.sol\":696:1083  function deposit() public override payable returns(uint) {... */\n    tag_25:\n        /* \"7.AbstractContracts.sol\":747:751  uint */\n      0x00\n        /* \"7.AbstractContracts.sol\":787:796  msg.value */\n      callvalue\n        /* \"7.AbstractContracts.sol\":764:771  balance */\n      0x01\n        /* \"7.AbstractContracts.sol\":764:783  balance[msg.sender] */\n      0x00\n        /* \"7.AbstractContracts.sol\":772:782  msg.sender */\n      caller\n        /* \"7.AbstractContracts.sol\":764:783  balance[msg.sender] */\n      0xffffffffffffffffffffffffffffffffffffffff\n      and\n      0xffffffffffffffffffffffffffffffffffffffff\n      and\n      dup2\n      mstore\n      0x20\n      add\n      swap1\n      dup2\n      mstore\n      0x20\n      add\n      0x00\n      keccak256\n      0x00\n        /* \"7.AbstractContracts.sol\":764:796  balance[msg.sender] += msg.value */\n      dup3\n      dup3\n      sload\n      tag_53\n      swap2\n      swap1\n      tag_54\n      jump\t// in\n    tag_53:\n      swap3\n      pop\n      pop\n      dup2\n      swap1\n      sstore\n      pop\n        /* \"7.AbstractContracts.sol\":841:846  false */\n      0x00\n        /* \"7.AbstractContracts.sol\":813:846  firstDeposit[msg.sender] == false */\n      iszero\n      iszero\n        /* \"7.AbstractContracts.sol\":813:825  firstDeposit */\n      0x02\n        /* \"7.AbstractContracts.sol\":813:837  firstDeposit[msg.sender] */\n      0x00\n        /* \"7.AbstractContracts.sol\":826:836  msg.sender */\n      caller\n        /* \"7.AbstractContracts.sol\":813:837  firstDeposit[msg.sender] */\n      0xffffffffffffffffffffffffffffffffffffffff\n      and\n      0xffffffffffffffffffffffffffffffffffffffff\n      and\n      dup2\n      mstore\n      0x20\n      add\n      swap1\n      dup2\n      mstore\n      0x20\n      add\n      0x00\n      keccak256\n      0x00\n      swap1\n      sload\n      swap1\n      0x0100\n      exp\n      swap1\n      div\n      0xff\n      and\n        /* \"7.AbstractContracts.sol\":813:846  firstDeposit[msg.sender] == false */\n      iszero\n      iszero\n      sub\n        /* \"7.AbstractContracts.sol\":809:1037  if (firstDeposit[msg.sender] == false) {... */\n      tag_55\n      jumpi\n        /* \"7.AbstractContracts.sol\":890:894  true */\n      0x01\n        /* \"7.AbstractContracts.sol\":863:875  firstDeposit */\n      0x02\n        /* \"7.AbstractContracts.sol\":863:887  firstDeposit[msg.sender] */\n      0x00\n        /* \"7.AbstractContracts.sol\":876:886  msg.sender */\n      caller\n        /* \"7.AbstractContracts.sol\":863:887  firstDeposit[msg.sender] */\n      0xffffffffffffffffffffffffffffffffffffffff\n      and\n      0xffffffffffffffffffffffffffffffffffffffff\n      and\n      dup2\n      mstore\n      0x20\n      add\n      swap1\n      dup2\n      mstore\n      0x20\n      add\n      0x00\n      keccak256\n      0x00\n        /* \"7.AbstractContracts.sol\":863:894  firstDeposit[msg.sender] = true */\n      0x0100\n      exp\n      dup2\n      sload\n      dup2\n      0xff\n      mul\n      not\n      and\n      swap1\n      dup4\n      iszero\n      iszero\n      mul\n      or\n      swap1\n      sstore\n      pop\n        /* \"7.AbstractContracts.sol\":928:950  getBonusRequirements() */\n      tag_56\n        /* \"7.AbstractContracts.sol\":928:948  getBonusRequirements */\n      tag_57\n        /* \"7.AbstractContracts.sol\":928:950  getBonusRequirements() */\n      jump\t// in\n    tag_56:\n        /* \"7.AbstractContracts.sol\":915:924  msg.value */\n      callvalue\n        /* \"7.AbstractContracts.sol\":915:950  msg.value >= getBonusRequirements() */\n      lt\n        /* \"7.AbstractContracts.sol\":911:1026  if (msg.value >= getBonusRequirements()) {... */\n      tag_58\n      jumpi\n        /* \"7.AbstractContracts.sol\":994:1010  getBonusAmount() */\n      tag_59\n        /* \"7.AbstractContracts.sol\":994:1008  getBonusAmount */\n      tag_60\n        /* \"7.AbstractContracts.sol\":994:1010  getBonusAmount() */\n      jump\t// in\n    tag_59:\n        /* \"7.AbstractContracts.sol\":971:978  balance */\n      0x01\n        /* \"7.AbstractContracts.sol\":971:990  balance[msg.sender] */\n      0x00\n        /* \"7.AbstractContracts.sol\":979:989  msg.sender */\n      caller\n        /* \"7.AbstractContracts.sol\":971:990  balance[msg.sender] */\n      0xffffffffffffffffffffffffffffffffffffffff\n      and\n      0xffffffffffffffffffffffffffffffffffffffff\n      and\n      dup2\n      mstore\n      0x20\n      add\n      swap1\n      dup2\n      mstore\n      0x20\n      add\n      0x00\n      keccak256\n      0x00\n        /* \"7.AbstractContracts.sol\":971:1010  balance[msg.sender] += getBonusAmount() */\n      dup3\n      dup3\n      sload\n      tag_61\n      swap2\n      swap1\n      tag_54\n      jump\t// in\n    tag_61:\n      swap3\n      pop\n      pop\n      dup2\n      swap1\n      sstore\n      pop\n        /* \"7.AbstractContracts.sol\":911:1026  if (msg.value >= getBonusRequirements()) {... */\n    tag_58:\n        /* \"7.AbstractContracts.sol\":809:1037  if (firstDeposit[msg.sender] == false) {... */\n    tag_55:\n        /* \"7.AbstractContracts.sol\":1056:1063  balance */\n      0x01\n        /* \"7.AbstractContracts.sol\":1056:1075  balance[msg.sender] */\n      0x00\n        /* \"7.AbstractContracts.sol\":1064:1074  msg.sender */\n      caller\n        /* \"7.AbstractContracts.sol\":1056:1075  balance[msg.sender] */\n      0xffffffffffffffffffffffffffffffffffffffff\n      and\n      0xffffffffffffffffffffffffffffffffffffffff\n      and\n      dup2\n      mstore\n      0x20\n      add\n      swap1\n      dup2\n      mstore\n      0x20\n      add\n      0x00\n      keccak256\n      sload\n        /* \"7.AbstractContracts.sol\":1049:1075  return balance[msg.sender] */\n      swap1\n      pop\n        /* \"7.AbstractContracts.sol\":696:1083  function deposit() public override payable returns(uint) {... */\n      swap1\n      jump\t// out\n        /* \"7.AbstractContracts.sol\":338:375  mapping(address => uint) public bonus */\n    tag_30:\n      mstore(0x20, 0x00)\n      dup1\n      0x00\n      mstore\n      keccak256(0x00, 0x40)\n      0x00\n      swap2\n      pop\n      swap1\n      pop\n      sload\n      dup2\n      jump\t// out\n        /* \"7.AbstractContracts.sol\":382:421  mapping(address => uint) public balance */\n    tag_35:\n      mstore(0x20, 0x01)\n      dup1\n      0x00\n      mstore\n      keccak256(0x00, 0x40)\n      0x00\n      swap2\n      pop\n      swap1\n      pop\n      sload\n      dup2\n      jump\t// out\n        /* \"7.AbstractContracts.sol\":585:688  function getBonusRequirements() internal override pure returns(uint) {... */\n    tag_57:\n        /* \"7.AbstractContracts.sol\":648:652  uint */\n      0x00\n        /* \"7.AbstractContracts.sol\":672:680  1000 wei */\n      0x03e8\n        /* \"7.AbstractContracts.sol\":665:680  return 1000 wei */\n      swap1\n      pop\n        /* \"7.AbstractContracts.sol\":585:688  function getBonusRequirements() internal override pure returns(uint) {... */\n      swap1\n      jump\t// out\n        /* \"7.AbstractContracts.sol\":481:577  function getBonusAmount() internal override pure returns(uint) {... */\n    tag_60:\n        /* \"7.AbstractContracts.sol\":538:542  uint */\n      0x00\n        /* \"7.AbstractContracts.sol\":562:569  150 wei */\n      0x96\n        /* \"7.AbstractContracts.sol\":555:569  return 150 wei */\n      swap1\n      pop\n        /* \"7.AbstractContracts.sol\":481:577  function getBonusAmount() internal override pure returns(uint) {... */\n      swap1\n      jump\t// out\n        /* \"#utility.yul\":7:84   */\n    tag_64:\n        /* \"#utility.yul\":44:51   */\n      0x00\n        /* \"#utility.yul\":73:78   */\n      dup2\n        /* \"#utility.yul\":62:78   */\n      swap1\n      pop\n        /* \"#utility.yul\":7:84   */\n      swap2\n      swap1\n      pop\n      jump\t// out\n        /* \"#utility.yul\":90:208   */\n    tag_65:\n        /* \"#utility.yul\":177:201   */\n      tag_87\n        /* \"#utility.yul\":195:200   */\n      dup2\n        /* \"#utility.yul\":177:201   */\n      tag_64\n      jump\t// in\n    tag_87:\n        /* \"#utility.yul\":172:175   */\n      dup3\n        /* \"#utility.yul\":165:202   */\n      mstore\n        /* \"#utility.yul\":90:208   */\n      pop\n      pop\n      jump\t// out\n        /* \"#utility.yul\":214:436   */\n    tag_12:\n        /* \"#utility.yul\":307:311   */\n      0x00\n        /* \"#utility.yul\":345:347   */\n      0x20\n        /* \"#utility.yul\":334:343   */\n      dup3\n        /* \"#utility.yul\":330:348   */\n      add\n        /* \"#utility.yul\":322:348   */\n      swap1\n      pop\n        /* \"#utility.yul\":358:429   */\n      tag_89\n        /* \"#utility.yul\":426:427   */\n      0x00\n        /* \"#utility.yul\":415:424   */\n      dup4\n        /* \"#utility.yul\":411:428   */\n      add\n        /* \"#utility.yul\":402:408   */\n      dup5\n        /* \"#utility.yul\":358:429   */\n      tag_65\n      jump\t// in\n    tag_89:\n        /* \"#utility.yul\":214:436   */\n      swap3\n      swap2\n      pop\n      pop\n      jump\t// out\n        /* \"#utility.yul\":523:640   */\n    tag_67:\n        /* \"#utility.yul\":632:633   */\n      0x00\n        /* \"#utility.yul\":629:630   */\n      dup1\n        /* \"#utility.yul\":622:634   */\n      revert\n        /* \"#utility.yul\":769:891   */\n    tag_69:\n        /* \"#utility.yul\":842:866   */\n      tag_94\n        /* \"#utility.yul\":860:865   */\n      dup2\n        /* \"#utility.yul\":842:866   */\n      tag_64\n      jump\t// in\n    tag_94:\n        /* \"#utility.yul\":835:840   */\n      dup2\n        /* \"#utility.yul\":832:867   */\n      eq\n        /* \"#utility.yul\":822:885   */\n      tag_95\n      jumpi\n        /* \"#utility.yul\":881:882   */\n      0x00\n        /* \"#utility.yul\":878:879   */\n      dup1\n        /* \"#utility.yul\":871:883   */\n      revert\n        /* \"#utility.yul\":822:885   */\n    tag_95:\n        /* \"#utility.yul\":769:891   */\n      pop\n      jump\t// out\n        /* \"#utility.yul\":897:1036   */\n    tag_70:\n        /* \"#utility.yul\":943:948   */\n      0x00\n        /* \"#utility.yul\":981:987   */\n      dup2\n        /* \"#utility.yul\":968:988   */\n      calldataload\n        /* \"#utility.yul\":959:988   */\n      swap1\n      pop\n        /* \"#utility.yul\":997:1030   */\n      tag_97\n        /* \"#utility.yul\":1024:1029   */\n      dup2\n        /* \"#utility.yul\":997:1030   */\n      tag_69\n      jump\t// in\n    tag_97:\n        /* \"#utility.yul\":897:1036   */\n      swap3\n      swap2\n      pop\n      pop\n      jump\t// out\n        /* \"#utility.yul\":1042:1371   */\n    tag_15:\n        /* \"#utility.yul\":1101:1107   */\n      0x00\n        /* \"#utility.yul\":1150:1152   */\n      0x20\n        /* \"#utility.yul\":1138:1147   */\n      dup3\n        /* \"#utility.yul\":1129:1136   */\n      dup5\n        /* \"#utility.yul\":1125:1148   */\n      sub\n        /* \"#utility.yul\":1121:1153   */\n      slt\n        /* \"#utility.yul\":1118:1237   */\n      iszero\n      tag_99\n      jumpi\n        /* \"#utility.yul\":1156:1235   */\n      tag_100\n      tag_67\n      jump\t// in\n    tag_100:\n        /* \"#utility.yul\":1118:1237   */\n    tag_99:\n        /* \"#utility.yul\":1276:1277   */\n      0x00\n        /* \"#utility.yul\":1301:1354   */\n      tag_101\n        /* \"#utility.yul\":1346:1353   */\n      dup5\n        /* \"#utility.yul\":1337:1343   */\n      dup3\n        /* \"#utility.yul\":1326:1335   */\n      dup6\n        /* \"#utility.yul\":1322:1344   */\n      add\n        /* \"#utility.yul\":1301:1354   */\n      tag_70\n      jump\t// in\n    tag_101:\n        /* \"#utility.yul\":1291:1354   */\n      swap2\n      pop\n        /* \"#utility.yul\":1247:1364   */\n      pop\n        /* \"#utility.yul\":1042:1371   */\n      swap3\n      swap2\n      pop\n      pop\n      jump\t// out\n        /* \"#utility.yul\":1377:1503   */\n    tag_71:\n        /* \"#utility.yul\":1414:1421   */\n      0x00\n        /* \"#utility.yul\":1454:1496   */\n      0xffffffffffffffffffffffffffffffffffffffff\n        /* \"#utility.yul\":1447:1452   */\n      dup3\n        /* \"#utility.yul\":1443:1497   */\n      and\n        /* \"#utility.yul\":1432:1497   */\n      swap1\n      pop\n        /* \"#utility.yul\":1377:1503   */\n      swap2\n      swap1\n      pop\n      jump\t// out\n        /* \"#utility.yul\":1509:1605   */\n    tag_72:\n        /* \"#utility.yul\":1546:1553   */\n      0x00\n        /* \"#utility.yul\":1575:1599   */\n      tag_104\n        /* \"#utility.yul\":1593:1598   */\n      dup3\n        /* \"#utility.yul\":1575:1599   */\n      tag_71\n      jump\t// in\n    tag_104:\n        /* \"#utility.yul\":1564:1599   */\n      swap1\n      pop\n        /* \"#utility.yul\":1509:1605   */\n      swap2\n      swap1\n      pop\n      jump\t// out\n        /* \"#utility.yul\":1611:1733   */\n    tag_73:\n        /* \"#utility.yul\":1684:1708   */\n      tag_106\n        /* \"#utility.yul\":1702:1707   */\n      dup2\n        /* \"#utility.yul\":1684:1708   */\n      tag_72\n      jump\t// in\n    tag_106:\n        /* \"#utility.yul\":1677:1682   */\n      dup2\n        /* \"#utility.yul\":1674:1709   */\n      eq\n        /* \"#utility.yul\":1664:1727   */\n      tag_107\n      jumpi\n        /* \"#utility.yul\":1723:1724   */\n      0x00\n        /* \"#utility.yul\":1720:1721   */\n      dup1\n        /* \"#utility.yul\":1713:1725   */\n      revert\n        /* \"#utility.yul\":1664:1727   */\n    tag_107:\n        /* \"#utility.yul\":1611:1733   */\n      pop\n      jump\t// out\n        /* \"#utility.yul\":1739:1878   */\n    tag_74:\n        /* \"#utility.yul\":1785:1790   */\n      0x00\n        /* \"#utility.yul\":1823:1829   */\n      dup2\n        /* \"#utility.yul\":1810:1830   */\n      calldataload\n        /* \"#utility.yul\":1801:1830   */\n      swap1\n      pop\n        /* \"#utility.yul\":1839:1872   */\n      tag_109\n        /* \"#utility.yul\":1866:1871   */\n      dup2\n        /* \"#utility.yul\":1839:1872   */\n      tag_73\n      jump\t// in\n    tag_109:\n        /* \"#utility.yul\":1739:1878   */\n      swap3\n      swap2\n      pop\n      pop\n      jump\t// out\n        /* \"#utility.yul\":1884:2213   */\n    tag_20:\n        /* \"#utility.yul\":1943:1949   */\n      0x00\n        /* \"#utility.yul\":1992:1994   */\n      0x20\n        /* \"#utility.yul\":1980:1989   */\n      dup3\n        /* \"#utility.yul\":1971:1978   */\n      dup5\n        /* \"#utility.yul\":1967:1990   */\n      sub\n        /* \"#utility.yul\":1963:1995   */\n      slt\n        /* \"#utility.yul\":1960:2079   */\n      iszero\n      tag_111\n      jumpi\n        /* \"#utility.yul\":1998:2077   */\n      tag_112\n      tag_67\n      jump\t// in\n    tag_112:\n        /* \"#utility.yul\":1960:2079   */\n    tag_111:\n        /* \"#utility.yul\":2118:2119   */\n      0x00\n        /* \"#utility.yul\":2143:2196   */\n      tag_113\n        /* \"#utility.yul\":2188:2195   */\n      dup5\n        /* \"#utility.yul\":2179:2185   */\n      dup3\n        /* \"#utility.yul\":2168:2177   */\n      dup6\n        /* \"#utility.yul\":2164:2186   */\n      add\n        /* \"#utility.yul\":2143:2196   */\n      tag_74\n      jump\t// in\n    tag_113:\n        /* \"#utility.yul\":2133:2196   */\n      swap2\n      pop\n        /* \"#utility.yul\":2089:2206   */\n      pop\n        /* \"#utility.yul\":1884:2213   */\n      swap3\n      swap2\n      pop\n      pop\n      jump\t// out\n        /* \"#utility.yul\":2219:2309   */\n    tag_75:\n        /* \"#utility.yul\":2253:2260   */\n      0x00\n        /* \"#utility.yul\":2296:2301   */\n      dup2\n        /* \"#utility.yul\":2289:2302   */\n      iszero\n        /* \"#utility.yul\":2282:2303   */\n      iszero\n        /* \"#utility.yul\":2271:2303   */\n      swap1\n      pop\n        /* \"#utility.yul\":2219:2309   */\n      swap2\n      swap1\n      pop\n      jump\t// out\n        /* \"#utility.yul\":2315:2424   */\n    tag_76:\n        /* \"#utility.yul\":2396:2417   */\n      tag_116\n        /* \"#utility.yul\":2411:2416   */\n      dup2\n        /* \"#utility.yul\":2396:2417   */\n      tag_75\n      jump\t// in\n    tag_116:\n        /* \"#utility.yul\":2391:2394   */\n      dup3\n        /* \"#utility.yul\":2384:2418   */\n      mstore\n        /* \"#utility.yul\":2315:2424   */\n      pop\n      pop\n      jump\t// out\n        /* \"#utility.yul\":2430:2640   */\n    tag_23:\n        /* \"#utility.yul\":2517:2521   */\n      0x00\n        /* \"#utility.yul\":2555:2557   */\n      0x20\n        /* \"#utility.yul\":2544:2553   */\n      dup3\n        /* \"#utility.yul\":2540:2558   */\n      add\n        /* \"#utility.yul\":2532:2558   */\n      swap1\n      pop\n        /* \"#utility.yul\":2568:2633   */\n      tag_118\n        /* \"#utility.yul\":2630:2631   */\n      0x00\n        /* \"#utility.yul\":2619:2628   */\n      dup4\n        /* \"#utility.yul\":2615:2632   */\n      add\n        /* \"#utility.yul\":2606:2612   */\n      dup5\n        /* \"#utility.yul\":2568:2633   */\n      tag_76\n      jump\t// in\n    tag_118:\n        /* \"#utility.yul\":2430:2640   */\n      swap3\n      swap2\n      pop\n      pop\n      jump\t// out\n        /* \"#utility.yul\":2646:2815   */\n    tag_77:\n        /* \"#utility.yul\":2730:2741   */\n      0x00\n        /* \"#utility.yul\":2764:2770   */\n      dup3\n        /* \"#utility.yul\":2759:2762   */\n      dup3\n        /* \"#utility.yul\":2752:2771   */\n      mstore\n        /* \"#utility.yul\":2804:2808   */\n      0x20\n        /* \"#utility.yul\":2799:2802   */\n      dup3\n        /* \"#utility.yul\":2795:2809   */\n      add\n        /* \"#utility.yul\":2780:2809   */\n      swap1\n      pop\n        /* \"#utility.yul\":2646:2815   */\n      swap3\n      swap2\n      pop\n      pop\n      jump\t// out\n        /* \"#utility.yul\":2821:2998   */\n    tag_78:\n        /* \"#utility.yul\":2961:2990   */\n      0x596f7520646f6e2774206861766520656e6f756768206d6f6e65790000000000\n        /* \"#utility.yul\":2957:2958   */\n      0x00\n        /* \"#utility.yul\":2949:2955   */\n      dup3\n        /* \"#utility.yul\":2945:2959   */\n      add\n        /* \"#utility.yul\":2938:2991   */\n      mstore\n        /* \"#utility.yul\":2821:2998   */\n      pop\n      jump\t// out\n        /* \"#utility.yul\":3004:3370   */\n    tag_79:\n        /* \"#utility.yul\":3146:3149   */\n      0x00\n        /* \"#utility.yul\":3167:3234   */\n      tag_122\n        /* \"#utility.yul\":3231:3233   */\n      0x1b\n        /* \"#utility.yul\":3226:3229   */\n      dup4\n        /* \"#utility.yul\":3167:3234   */\n      tag_77\n      jump\t// in\n    tag_122:\n        /* \"#utility.yul\":3160:3234   */\n      swap2\n      pop\n        /* \"#utility.yul\":3243:3336   */\n      tag_123\n        /* \"#utility.yul\":3332:3335   */\n      dup3\n        /* \"#utility.yul\":3243:3336   */\n      tag_78\n      jump\t// in\n    tag_123:\n        /* \"#utility.yul\":3361:3363   */\n      0x20\n        /* \"#utility.yul\":3356:3359   */\n      dup3\n        /* \"#utility.yul\":3352:3364   */\n      add\n        /* \"#utility.yul\":3345:3364   */\n      swap1\n      pop\n        /* \"#utility.yul\":3004:3370   */\n      swap2\n      swap1\n      pop\n      jump\t// out\n        /* \"#utility.yul\":3376:3795   */\n    tag_41:\n        /* \"#utility.yul\":3542:3546   */\n      0x00\n        /* \"#utility.yul\":3580:3582   */\n      0x20\n        /* \"#utility.yul\":3569:3578   */\n      dup3\n        /* \"#utility.yul\":3565:3583   */\n      add\n        /* \"#utility.yul\":3557:3583   */\n      swap1\n      pop\n        /* \"#utility.yul\":3629:3638   */\n      dup2\n        /* \"#utility.yul\":3623:3627   */\n      dup2\n        /* \"#utility.yul\":3619:3639   */\n      sub\n        /* \"#utility.yul\":3615:3616   */\n      0x00\n        /* \"#utility.yul\":3604:3613   */\n      dup4\n        /* \"#utility.yul\":3600:3617   */\n      add\n        /* \"#utility.yul\":3593:3640   */\n      mstore\n        /* \"#utility.yul\":3657:3788   */\n      tag_125\n        /* \"#utility.yul\":3783:3787   */\n      dup2\n        /* \"#utility.yul\":3657:3788   */\n      tag_79\n      jump\t// in\n    tag_125:\n        /* \"#utility.yul\":3649:3788   */\n      swap1\n      pop\n        /* \"#utility.yul\":3376:3795   */\n      swap2\n      swap1\n      pop\n      jump\t// out\n        /* \"#utility.yul\":3801:3981   */\n    tag_80:\n        /* \"#utility.yul\":3849:3926   */\n      0x4e487b7100000000000000000000000000000000000000000000000000000000\n        /* \"#utility.yul\":3846:3847   */\n      0x00\n        /* \"#utility.yul\":3839:3927   */\n      mstore\n        /* \"#utility.yul\":3946:3950   */\n      0x11\n        /* \"#utility.yul\":3943:3944   */\n      0x04\n        /* \"#utility.yul\":3936:3951   */\n      mstore\n        /* \"#utility.yul\":3970:3974   */\n      0x24\n        /* \"#utility.yul\":3967:3968   */\n      0x00\n        /* \"#utility.yul\":3960:3975   */\n      revert\n        /* \"#utility.yul\":3987:4181   */\n    tag_43:\n        /* \"#utility.yul\":4027:4031   */\n      0x00\n        /* \"#utility.yul\":4047:4067   */\n      tag_128\n        /* \"#utility.yul\":4065:4066   */\n      dup3\n        /* \"#utility.yul\":4047:4067   */\n      tag_64\n      jump\t// in\n    tag_128:\n        /* \"#utility.yul\":4042:4067   */\n      swap2\n      pop\n        /* \"#utility.yul\":4081:4101   */\n      tag_129\n        /* \"#utility.yul\":4099:4100   */\n      dup4\n        /* \"#utility.yul\":4081:4101   */\n      tag_64\n      jump\t// in\n    tag_129:\n        /* \"#utility.yul\":4076:4101   */\n      swap3\n      pop\n        /* \"#utility.yul\":4125:4126   */\n      dup3\n        /* \"#utility.yul\":4122:4123   */\n      dup3\n        /* \"#utility.yul\":4118:4127   */\n      sub\n        /* \"#utility.yul\":4110:4127   */\n      swap1\n      pop\n        /* \"#utility.yul\":4149:4150   */\n      dup2\n        /* \"#utility.yul\":4143:4147   */\n      dup2\n        /* \"#utility.yul\":4140:4151   */\n      gt\n        /* \"#utility.yul\":4137:4174   */\n      iszero\n      tag_130\n      jumpi\n        /* \"#utility.yul\":4154:4172   */\n      tag_131\n      tag_80\n      jump\t// in\n    tag_131:\n        /* \"#utility.yul\":4137:4174   */\n    tag_130:\n        /* \"#utility.yul\":3987:4181   */\n      swap3\n      swap2\n      pop\n      pop\n      jump\t// out\n        /* \"#utility.yul\":4187:4334   */\n    tag_81:\n        /* \"#utility.yul\":4288:4299   */\n      0x00\n        /* \"#utility.yul\":4325:4328   */\n      dup2\n        /* \"#utility.yul\":4310:4328   */\n      swap1\n      pop\n        /* \"#utility.yul\":4187:4334   */\n      swap3\n      swap2\n      pop\n      pop\n      jump\t// out\n        /* \"#utility.yul\":4340:4454   */\n    tag_82:\n      pop\n      jump\t// out\n        /* \"#utility.yul\":4460:4858   */\n    tag_83:\n        /* \"#utility.yul\":4619:4622   */\n      0x00\n        /* \"#utility.yul\":4640:4723   */\n      tag_135\n        /* \"#utility.yul\":4721:4722   */\n      0x00\n        /* \"#utility.yul\":4716:4719   */\n      dup4\n        /* \"#utility.yul\":4640:4723   */\n      tag_81\n      jump\t// in\n    tag_135:\n        /* \"#utility.yul\":4633:4723   */\n      swap2\n      pop\n        /* \"#utility.yul\":4732:4825   */\n      tag_136\n        /* \"#utility.yul\":4821:4824   */\n      dup3\n        /* \"#utility.yul\":4732:4825   */\n      tag_82\n      jump\t// in\n    tag_136:\n        /* \"#utility.yul\":4850:4851   */\n      0x00\n        /* \"#utility.yul\":4845:4848   */\n      dup3\n        /* \"#utility.yul\":4841:4852   */\n      add\n        /* \"#utility.yul\":4834:4852   */\n      swap1\n      pop\n        /* \"#utility.yul\":4460:4858   */\n      swap2\n      swap1\n      pop\n      jump\t// out\n        /* \"#utility.yul\":4864:5243   */\n    tag_45:\n        /* \"#utility.yul\":5048:5051   */\n      0x00\n        /* \"#utility.yul\":5070:5217   */\n      tag_138\n        /* \"#utility.yul\":5213:5216   */\n      dup3\n        /* \"#utility.yul\":5070:5217   */\n      tag_83\n      jump\t// in\n    tag_138:\n        /* \"#utility.yul\":5063:5217   */\n      swap2\n      pop\n        /* \"#utility.yul\":5234:5237   */\n      dup2\n        /* \"#utility.yul\":5227:5237   */\n      swap1\n      pop\n        /* \"#utility.yul\":4864:5243   */\n      swap2\n      swap1\n      pop\n      jump\t// out\n        /* \"#utility.yul\":5249:5429   */\n    tag_51:\n        /* \"#utility.yul\":5297:5374   */\n      0x4e487b7100000000000000000000000000000000000000000000000000000000\n        /* \"#utility.yul\":5294:5295   */\n      0x00\n        /* \"#utility.yul\":5287:5375   */\n      mstore\n        /* \"#utility.yul\":5394:5398   */\n      0x01\n        /* \"#utility.yul\":5391:5392   */\n      0x04\n        /* \"#utility.yul\":5384:5399   */\n      mstore\n        /* \"#utility.yul\":5418:5422   */\n      0x24\n        /* \"#utility.yul\":5415:5416   */\n      0x00\n        /* \"#utility.yul\":5408:5423   */\n      revert\n        /* \"#utility.yul\":5435:5626   */\n    tag_54:\n        /* \"#utility.yul\":5475:5478   */\n      0x00\n        /* \"#utility.yul\":5494:5514   */\n      tag_141\n        /* \"#utility.yul\":5512:5513   */\n      dup3\n        /* \"#utility.yul\":5494:5514   */\n      tag_64\n      jump\t// in\n    tag_141:\n        /* \"#utility.yul\":5489:5514   */\n      swap2\n      pop\n        /* \"#utility.yul\":5528:5548   */\n      tag_142\n        /* \"#utility.yul\":5546:5547   */\n      dup4\n        /* \"#utility.yul\":5528:5548   */\n      tag_64\n      jump\t// in\n    tag_142:\n        /* \"#utility.yul\":5523:5548   */\n      swap3\n      pop\n        /* \"#utility.yul\":5571:5572   */\n      dup3\n        /* \"#utility.yul\":5568:5569   */\n      dup3\n        /* \"#utility.yul\":5564:5573   */\n      add\n        /* \"#utility.yul\":5557:5573   */\n      swap1\n      pop\n        /* \"#utility.yul\":5592:5595   */\n      dup1\n        /* \"#utility.yul\":5589:5590   */\n      dup3\n        /* \"#utility.yul\":5586:5596   */\n      gt\n        /* \"#utility.yul\":5583:5619   */\n      iszero\n      tag_143\n      jumpi\n        /* \"#utility.yul\":5599:5617   */\n      tag_144\n      tag_80\n      jump\t// in\n    tag_144:\n        /* \"#utility.yul\":5583:5619   */\n    tag_143:\n        /* \"#utility.yul\":5435:5626   */\n      swap3\n      swap2\n      pop\n      pop\n      jump\t// out\n\n    auxdata: 0xa26469706673582212203645a71a7f6846fcfff71a21c9ad5e8de526e00d0c9d76de9cd9ec32e42e0d8364736f6c63430008190033\n}\n",
				"bytecode": {
					"linkReferences": {},
					"object": "6080604052348015600e575f80fd5b506107fa8061001c5f395ff3fe608060405260043610610054575f3560e01c806312065fe0146100585780632e1a7d4d14610082578063ac4b3c041461009e578063d0e30db0146100da578063d8cb4aa3146100f8578063e3d670d714610134575b5f80fd5b348015610063575f80fd5b5061006c610170565b6040516100799190610521565b60405180910390f35b61009c60048036038101906100979190610568565b6101b4565b005b3480156100a9575f80fd5b506100c460048036038101906100bf91906105ed565b610308565b6040516100d19190610632565b60405180910390f35b6100e2610325565b6040516100ef9190610521565b60405180910390f35b348015610103575f80fd5b5061011e600480360381019061011991906105ed565b6104cf565b60405161012b9190610521565b60405180910390f35b34801561013f575f80fd5b5061015a600480360381019061015591906105ed565b6104e3565b6040516101679190610521565b60405180910390f35b5f60015f3373ffffffffffffffffffffffffffffffffffffffff1673ffffffffffffffffffffffffffffffffffffffff1681526020019081526020015f2054905090565b60015f3373ffffffffffffffffffffffffffffffffffffffff1673ffffffffffffffffffffffffffffffffffffffff1681526020019081526020015f2054811115610234576040517f08c379a000000000000000000000000000000000000000000000000000000000815260040161022b906106a5565b60405180910390fd5b8060015f3373ffffffffffffffffffffffffffffffffffffffff1673ffffffffffffffffffffffffffffffffffffffff1681526020019081526020015f205f82825461028091906106f0565b925050819055505f3373ffffffffffffffffffffffffffffffffffffffff16826040516102ac90610750565b5f6040518083038185875af1925050503d805f81146102e6576040519150601f19603f3d011682016040523d82523d5f602084013e6102eb565b606091505b50509050600115158115151461030457610303610764565b5b5050565b6002602052805f5260405f205f915054906101000a900460ff1681565b5f3460015f3373ffffffffffffffffffffffffffffffffffffffff1673ffffffffffffffffffffffffffffffffffffffff1681526020019081526020015f205f8282546103729190610791565b925050819055505f151560025f3373ffffffffffffffffffffffffffffffffffffffff1673ffffffffffffffffffffffffffffffffffffffff1681526020019081526020015f205f9054906101000a900460ff1615150361048c57600160025f3373ffffffffffffffffffffffffffffffffffffffff1673ffffffffffffffffffffffffffffffffffffffff1681526020019081526020015f205f6101000a81548160ff02191690831515021790555061042a6104f8565b341061048b57610438610501565b60015f3373ffffffffffffffffffffffffffffffffffffffff1673ffffffffffffffffffffffffffffffffffffffff1681526020019081526020015f205f8282546104839190610791565b925050819055505b5b60015f3373ffffffffffffffffffffffffffffffffffffffff1673ffffffffffffffffffffffffffffffffffffffff1681526020019081526020015f2054905090565b5f602052805f5260405f205f915090505481565b6001602052805f5260405f205f915090505481565b5f6103e8905090565b5f6096905090565b5f819050919050565b61051b81610509565b82525050565b5f6020820190506105345f830184610512565b92915050565b5f80fd5b61054781610509565b8114610551575f80fd5b50565b5f813590506105628161053e565b92915050565b5f6020828403121561057d5761057c61053a565b5b5f61058a84828501610554565b91505092915050565b5f73ffffffffffffffffffffffffffffffffffffffff82169050919050565b5f6105bc82610593565b9050919050565b6105cc816105b2565b81146105d6575f80fd5b50565b5f813590506105e7816105c3565b92915050565b5f602082840312156106025761060161053a565b5b5f61060f848285016105d9565b91505092915050565b5f8115159050919050565b61062c81610618565b82525050565b5f6020820190506106455f830184610623565b92915050565b5f82825260208201905092915050565b7f596f7520646f6e2774206861766520656e6f756768206d6f6e657900000000005f82015250565b5f61068f601b8361064b565b915061069a8261065b565b602082019050919050565b5f6020820190508181035f8301526106bc81610683565b9050919050565b7f4e487b71000000000000000000000000000000000000000000000000000000005f52601160045260245ffd5b5f6106fa82610509565b915061070583610509565b925082820390508181111561071d5761071c6106c3565b5b92915050565b5f81905092915050565b50565b5f61073b5f83610723565b91506107468261072d565b5f82019050919050565b5f61075a82610730565b9150819050919050565b7f4e487b71000000000000000000000000000000000000000000000000000000005f52600160045260245ffd5b5f61079b82610509565b91506107a683610509565b92508282019050808211156107be576107bd6106c3565b5b9291505056fea26469706673582212203645a71a7f6846fcfff71a21c9ad5e8de526e00d0c9d76de9cd9ec32e42e0d8364736f6c63430008190033",
					"opcodes": "PUSH1 0x80 PUSH1 0x40 MSTORE CALLVALUE DUP1 ISZERO PUSH1 0xE JUMPI PUSH0 DUP1 REVERT JUMPDEST POP PUSH2 0x7FA DUP1 PUSH2 0x1C PUSH0 CODECOPY PUSH0 RETURN INVALID PUSH1 0x80 PUSH1 0x40 MSTORE PUSH1 0x4 CALLDATASIZE LT PUSH2 0x54 JUMPI PUSH0 CALLDATALOAD PUSH1 0xE0 SHR DUP1 PUSH4 0x12065FE0 EQ PUSH2 0x58 JUMPI DUP1 PUSH4 0x2E1A7D4D EQ PUSH2 0x82 JUMPI DUP1 PUSH4 0xAC4B3C04 EQ PUSH2 0x9E JUMPI DUP1 PUSH4 0xD0E30DB0 EQ PUSH2 0xDA JUMPI DUP1 PUSH4 0xD8CB4AA3 EQ PUSH2 0xF8 JUMPI DUP1 PUSH4 0xE3D670D7 EQ PUSH2 0x134 JUMPI JUMPDEST PUSH0 DUP1 REVERT JUMPDEST CALLVALUE DUP1 ISZERO PUSH2 0x63 JUMPI PUSH0 DUP1 REVERT JUMPDEST POP PUSH2 0x6C PUSH2 0x170 JUMP JUMPDEST PUSH1 0x40 MLOAD PUSH2 0x79 SWAP2 SWAP1 PUSH2 0x521 JUMP JUMPDEST PUSH1 0x40 MLOAD DUP1 SWAP2 SUB SWAP1 RETURN JUMPDEST PUSH2 0x9C PUSH1 0x4 DUP1 CALLDATASIZE SUB DUP2 ADD SWAP1 PUSH2 0x97 SWAP2 SWAP1 PUSH2 0x568 JUMP JUMPDEST PUSH2 0x1B4 JUMP JUMPDEST STOP JUMPDEST CALLVALUE DUP1 ISZERO PUSH2 0xA9 JUMPI PUSH0 DUP1 REVERT JUMPDEST POP PUSH2 0xC4 PUSH1 0x4 DUP1 CALLDATASIZE SUB DUP2 ADD SWAP1 PUSH2 0xBF SWAP2 SWAP1 PUSH2 0x5ED JUMP JUMPDEST PUSH2 0x308 JUMP JUMPDEST PUSH1 0x40 MLOAD PUSH2 0xD1 SWAP2 SWAP1 PUSH2 0x632 JUMP JUMPDEST PUSH1 0x40 MLOAD DUP1 SWAP2 SUB SWAP1 RETURN JUMPDEST PUSH2 0xE2 PUSH2 0x325 JUMP JUMPDEST PUSH1 0x40 MLOAD PUSH2 0xEF SWAP2 SWAP1 PUSH2 0x521 JUMP JUMPDEST PUSH1 0x40 MLOAD DUP1 SWAP2 SUB SWAP1 RETURN JUMPDEST CALLVALUE DUP1 ISZERO PUSH2 0x103 JUMPI PUSH0 DUP1 REVERT JUMPDEST POP PUSH2 0x11E PUSH1 0x4 DUP1 CALLDATASIZE SUB DUP2 ADD SWAP1 PUSH2 0x119 SWAP2 SWAP1 PUSH2 0x5ED JUMP JUMPDEST PUSH2 0x4CF JUMP JUMPDEST PUSH1 0x40 MLOAD PUSH2 0x12B SWAP2 SWAP1 PUSH2 0x521 JUMP JUMPDEST PUSH1 0x40 MLOAD DUP1 SWAP2 SUB SWAP1 RETURN JUMPDEST CALLVALUE DUP1 ISZERO PUSH2 0x13F JUMPI PUSH0 DUP1 REVERT JUMPDEST POP PUSH2 0x15A PUSH1 0x4 DUP1 CALLDATASIZE SUB DUP2 ADD SWAP1 PUSH2 0x155 SWAP2 SWAP1 PUSH2 0x5ED JUMP JUMPDEST PUSH2 0x4E3 JUMP JUMPDEST PUSH1 0x40 MLOAD PUSH2 0x167 SWAP2 SWAP1 PUSH2 0x521 JUMP JUMPDEST PUSH1 0x40 MLOAD DUP1 SWAP2 SUB SWAP1 RETURN JUMPDEST PUSH0 PUSH1 0x1 PUSH0 CALLER PUSH20 0xFFFFFFFFFFFFFFFFFFFFFFFFFFFFFFFFFFFFFFFF AND PUSH20 0xFFFFFFFFFFFFFFFFFFFFFFFFFFFFFFFFFFFFFFFF AND DUP2 MSTORE PUSH1 0x20 ADD SWAP1 DUP2 MSTORE PUSH1 0x20 ADD PUSH0 KECCAK256 SLOAD SWAP1 POP SWAP1 JUMP JUMPDEST PUSH1 0x1 PUSH0 CALLER PUSH20 0xFFFFFFFFFFFFFFFFFFFFFFFFFFFFFFFFFFFFFFFF AND PUSH20 0xFFFFFFFFFFFFFFFFFFFFFFFFFFFFFFFFFFFFFFFF AND DUP2 MSTORE PUSH1 0x20 ADD SWAP1 DUP2 MSTORE PUSH1 0x20 ADD PUSH0 KECCAK256 SLOAD DUP2 GT ISZERO PUSH2 0x234 JUMPI PUSH1 0x40 MLOAD PUSH32 0x8C379A000000000000000000000000000000000000000000000000000000000 DUP2 MSTORE PUSH1 0x4 ADD PUSH2 0x22B SWAP1 PUSH2 0x6A5 JUMP JUMPDEST PUSH1 0x40 MLOAD DUP1 SWAP2 SUB SWAP1 REVERT JUMPDEST DUP1 PUSH1 0x1 PUSH0 CALLER PUSH20 0xFFFFFFFFFFFFFFFFFFFFFFFFFFFFFFFFFFFFFFFF AND PUSH20 0xFFFFFFFFFFFFFFFFFFFFFFFFFFFFFFFFFFFFFFFF AND DUP2 MSTORE PUSH1 0x20 ADD SWAP1 DUP2 MSTORE PUSH1 0x20 ADD PUSH0 KECCAK256 PUSH0 DUP3 DUP3 SLOAD PUSH2 0x280 SWAP2 SWAP1 PUSH2 0x6F0 JUMP JUMPDEST SWAP3 POP POP DUP2 SWAP1 SSTORE POP PUSH0 CALLER PUSH20 0xFFFFFFFFFFFFFFFFFFFFFFFFFFFFFFFFFFFFFFFF AND DUP3 PUSH1 0x40 MLOAD PUSH2 0x2AC SWAP1 PUSH2 0x750 JUMP JUMPDEST PUSH0 PUSH1 0x40 MLOAD DUP1 DUP4 SUB DUP2 DUP6 DUP8 GAS CALL SWAP3 POP POP POP RETURNDATASIZE DUP1 PUSH0 DUP2 EQ PUSH2 0x2E6 JUMPI PUSH1 0x40 MLOAD SWAP2 POP PUSH1 0x1F NOT PUSH1 0x3F RETURNDATASIZE ADD AND DUP3 ADD PUSH1 0x40 MSTORE RETURNDATASIZE DUP3 MSTORE RETURNDATASIZE PUSH0 PUSH1 0x20 DUP5 ADD RETURNDATACOPY PUSH2 0x2EB JUMP JUMPDEST PUSH1 0x60 SWAP2 POP JUMPDEST POP POP SWAP1 POP PUSH1 0x1 ISZERO ISZERO DUP2 ISZERO ISZERO EQ PUSH2 0x304 JUMPI PUSH2 0x303 PUSH2 0x764 JUMP JUMPDEST JUMPDEST POP POP JUMP JUMPDEST PUSH1 0x2 PUSH1 0x20 MSTORE DUP1 PUSH0 MSTORE PUSH1 0x40 PUSH0 KECCAK256 PUSH0 SWAP2 POP SLOAD SWAP1 PUSH2 0x100 EXP SWAP1 DIV PUSH1 0xFF AND DUP2 JUMP JUMPDEST PUSH0 CALLVALUE PUSH1 0x1 PUSH0 CALLER PUSH20 0xFFFFFFFFFFFFFFFFFFFFFFFFFFFFFFFFFFFFFFFF AND PUSH20 0xFFFFFFFFFFFFFFFFFFFFFFFFFFFFFFFFFFFFFFFF AND DUP2 MSTORE PUSH1 0x20 ADD SWAP1 DUP2 MSTORE PUSH1 0x20 ADD PUSH0 KECCAK256 PUSH0 DUP3 DUP3 SLOAD PUSH2 0x372 SWAP2 SWAP1 PUSH2 0x791 JUMP JUMPDEST SWAP3 POP POP DUP2 SWAP1 SSTORE POP PUSH0 ISZERO ISZERO PUSH1 0x2 PUSH0 CALLER PUSH20 0xFFFFFFFFFFFFFFFFFFFFFFFFFFFFFFFFFFFFFFFF AND PUSH20 0xFFFFFFFFFFFFFFFFFFFFFFFFFFFFFFFFFFFFFFFF AND DUP2 MSTORE PUSH1 0x20 ADD SWAP1 DUP2 MSTORE PUSH1 0x20 ADD PUSH0 KECCAK256 PUSH0 SWAP1 SLOAD SWAP1 PUSH2 0x100 EXP SWAP1 DIV PUSH1 0xFF AND ISZERO ISZERO SUB PUSH2 0x48C JUMPI PUSH1 0x1 PUSH1 0x2 PUSH0 CALLER PUSH20 0xFFFFFFFFFFFFFFFFFFFFFFFFFFFFFFFFFFFFFFFF AND PUSH20 0xFFFFFFFFFFFFFFFFFFFFFFFFFFFFFFFFFFFFFFFF AND DUP2 MSTORE PUSH1 0x20 ADD SWAP1 DUP2 MSTORE PUSH1 0x20 ADD PUSH0 KECCAK256 PUSH0 PUSH2 0x100 EXP DUP2 SLOAD DUP2 PUSH1 0xFF MUL NOT AND SWAP1 DUP4 ISZERO ISZERO MUL OR SWAP1 SSTORE POP PUSH2 0x42A PUSH2 0x4F8 JUMP JUMPDEST CALLVALUE LT PUSH2 0x48B JUMPI PUSH2 0x438 PUSH2 0x501 JUMP JUMPDEST PUSH1 0x1 PUSH0 CALLER PUSH20 0xFFFFFFFFFFFFFFFFFFFFFFFFFFFFFFFFFFFFFFFF AND PUSH20 0xFFFFFFFFFFFFFFFFFFFFFFFFFFFFFFFFFFFFFFFF AND DUP2 MSTORE PUSH1 0x20 ADD SWAP1 DUP2 MSTORE PUSH1 0x20 ADD PUSH0 KECCAK256 PUSH0 DUP3 DUP3 SLOAD PUSH2 0x483 SWAP2 SWAP1 PUSH2 0x791 JUMP JUMPDEST SWAP3 POP POP DUP2 SWAP1 SSTORE POP JUMPDEST JUMPDEST PUSH1 0x1 PUSH0 CALLER PUSH20 0xFFFFFFFFFFFFFFFFFFFFFFFFFFFFFFFFFFFFFFFF AND PUSH20 0xFFFFFFFFFFFFFFFFFFFFFFFFFFFFFFFFFFFFFFFF AND DUP2 MSTORE PUSH1 0x20 ADD SWAP1 DUP2 MSTORE PUSH1 0x20 ADD PUSH0 KECCAK256 SLOAD SWAP1 POP SWAP1 JUMP JUMPDEST PUSH0 PUSH1 0x20 MSTORE DUP1 PUSH0 MSTORE PUSH1 0x40 PUSH0 KECCAK256 PUSH0 SWAP2 POP SWAP1 POP SLOAD DUP2 JUMP JUMPDEST PUSH1 0x1 PUSH1 0x20 MSTORE DUP1 PUSH0 MSTORE PUSH1 0x40 PUSH0 KECCAK256 PUSH0 SWAP2 POP SWAP1 POP SLOAD DUP2 JUMP JUMPDEST PUSH0 PUSH2 0x3E8 SWAP1 POP SWAP1 JUMP JUMPDEST PUSH0 PUSH1 0x96 SWAP1 POP SWAP1 JUMP JUMPDEST PUSH0 DUP2 SWAP1 POP SWAP2 SWAP1 POP JUMP JUMPDEST PUSH2 0x51B DUP2 PUSH2 0x509 JUMP JUMPDEST DUP3 MSTORE POP POP JUMP JUMPDEST PUSH0 PUSH1 0x20 DUP3 ADD SWAP1 POP PUSH2 0x534 PUSH0 DUP4 ADD DUP5 PUSH2 0x512 JUMP JUMPDEST SWAP3 SWAP2 POP POP JUMP JUMPDEST PUSH0 DUP1 REVERT JUMPDEST PUSH2 0x547 DUP2 PUSH2 0x509 JUMP JUMPDEST DUP2 EQ PUSH2 0x551 JUMPI PUSH0 DUP1 REVERT JUMPDEST POP JUMP JUMPDEST PUSH0 DUP2 CALLDATALOAD SWAP1 POP PUSH2 0x562 DUP2 PUSH2 0x53E JUMP JUMPDEST SWAP3 SWAP2 POP POP JUMP JUMPDEST PUSH0 PUSH1 0x20 DUP3 DUP5 SUB SLT ISZERO PUSH2 0x57D JUMPI PUSH2 0x57C PUSH2 0x53A JUMP JUMPDEST JUMPDEST PUSH0 PUSH2 0x58A DUP5 DUP3 DUP6 ADD PUSH2 0x554 JUMP JUMPDEST SWAP2 POP POP SWAP3 SWAP2 POP POP JUMP JUMPDEST PUSH0 PUSH20 0xFFFFFFFFFFFFFFFFFFFFFFFFFFFFFFFFFFFFFFFF DUP3 AND SWAP1 POP SWAP2 SWAP1 POP JUMP JUMPDEST PUSH0 PUSH2 0x5BC DUP3 PUSH2 0x593 JUMP JUMPDEST SWAP1 POP SWAP2 SWAP1 POP JUMP JUMPDEST PUSH2 0x5CC DUP2 PUSH2 0x5B2 JUMP JUMPDEST DUP2 EQ PUSH2 0x5D6 JUMPI PUSH0 DUP1 REVERT JUMPDEST POP JUMP JUMPDEST PUSH0 DUP2 CALLDATALOAD SWAP1 POP PUSH2 0x5E7 DUP2 PUSH2 0x5C3 JUMP JUMPDEST SWAP3 SWAP2 POP POP JUMP JUMPDEST PUSH0 PUSH1 0x20 DUP3 DUP5 SUB SLT ISZERO PUSH2 0x602 JUMPI PUSH2 0x601 PUSH2 0x53A JUMP JUMPDEST JUMPDEST PUSH0 PUSH2 0x60F DUP5 DUP3 DUP6 ADD PUSH2 0x5D9 JUMP JUMPDEST SWAP2 POP POP SWAP3 SWAP2 POP POP JUMP JUMPDEST PUSH0 DUP2 ISZERO ISZERO SWAP1 POP SWAP2 SWAP1 POP JUMP JUMPDEST PUSH2 0x62C DUP2 PUSH2 0x618 JUMP JUMPDEST DUP3 MSTORE POP POP JUMP JUMPDEST PUSH0 PUSH1 0x20 DUP3 ADD SWAP1 POP PUSH2 0x645 PUSH0 DUP4 ADD DUP5 PUSH2 0x623 JUMP JUMPDEST SWAP3 SWAP2 POP POP JUMP JUMPDEST PUSH0 DUP3 DUP3 MSTORE PUSH1 0x20 DUP3 ADD SWAP1 POP SWAP3 SWAP2 POP POP JUMP JUMPDEST PUSH32 0x596F7520646F6E2774206861766520656E6F756768206D6F6E65790000000000 PUSH0 DUP3 ADD MSTORE POP JUMP JUMPDEST PUSH0 PUSH2 0x68F PUSH1 0x1B DUP4 PUSH2 0x64B JUMP JUMPDEST SWAP2 POP PUSH2 0x69A DUP3 PUSH2 0x65B JUMP JUMPDEST PUSH1 0x20 DUP3 ADD SWAP1 POP SWAP2 SWAP1 POP JUMP JUMPDEST PUSH0 PUSH1 0x20 DUP3 ADD SWAP1 POP DUP2 DUP2 SUB PUSH0 DUP4 ADD MSTORE PUSH2 0x6BC DUP2 PUSH2 0x683 JUMP JUMPDEST SWAP1 POP SWAP2 SWAP1 POP JUMP JUMPDEST PUSH32 0x4E487B7100000000000000000000000000000000000000000000000000000000 PUSH0 MSTORE PUSH1 0x11 PUSH1 0x4 MSTORE PUSH1 0x24 PUSH0 REVERT JUMPDEST PUSH0 PUSH2 0x6FA DUP3 PUSH2 0x509 JUMP JUMPDEST SWAP2 POP PUSH2 0x705 DUP4 PUSH2 0x509 JUMP JUMPDEST SWAP3 POP DUP3 DUP3 SUB SWAP1 POP DUP2 DUP2 GT ISZERO PUSH2 0x71D JUMPI PUSH2 0x71C PUSH2 0x6C3 JUMP JUMPDEST JUMPDEST SWAP3 SWAP2 POP POP JUMP JUMPDEST PUSH0 DUP2 SWAP1 POP SWAP3 SWAP2 POP POP JUMP JUMPDEST POP JUMP JUMPDEST PUSH0 PUSH2 0x73B PUSH0 DUP4 PUSH2 0x723 JUMP JUMPDEST SWAP2 POP PUSH2 0x746 DUP3 PUSH2 0x72D JUMP JUMPDEST PUSH0 DUP3 ADD SWAP1 POP SWAP2 SWAP1 POP JUMP JUMPDEST PUSH0 PUSH2 0x75A DUP3 PUSH2 0x730 JUMP JUMPDEST SWAP2 POP DUP2 SWAP1 POP SWAP2 SWAP1 POP JUMP JUMPDEST PUSH32 0x4E487B7100000000000000000000000000000000000000000000000000000000 PUSH0 MSTORE PUSH1 0x1 PUSH1 0x4 MSTORE PUSH1 0x24 PUSH0 REVERT JUMPDEST PUSH0 PUSH2 0x79B DUP3 PUSH2 0x509 JUMP JUMPDEST SWAP2 POP PUSH2 0x7A6 DUP4 PUSH2 0x509 JUMP JUMPDEST SWAP3 POP DUP3 DUP3 ADD SWAP1 POP DUP1 DUP3 GT ISZERO PUSH2 0x7BE JUMPI PUSH2 0x7BD PUSH2 0x6C3 JUMP JUMPDEST JUMPDEST SWAP3 SWAP2 POP POP JUMP INVALID LOG2 PUSH5 0x6970667358 0x22 SLT KECCAK256 CALLDATASIZE GASLIMIT 0xA7 BYTE PUSH32 0x6846FCFFF71A21C9AD5E8DE526E00D0C9D76DE9CD9EC32E42E0D8364736F6C63 NUMBER STOP ADDMOD NOT STOP CALLER "
				},
				"gasEstimates": {
					"creation": {
						"codeDepositCost": "408400",
						"executionCost": "441",
						"totalCost": "408841"
					},
					"external": {
						"balance(address)": "2890",
						"bonus(address)": "2867",
						"deposit()": "infinite",
						"firstDeposit(address)": "2855",
						"getBalance()": "2497",
						"withdraw(uint256)": "infinite"
					},
					"internal": {
						"getBonusAmount()": "22",
						"getBonusRequirements()": "22"
					}
				},
				"methodIdentifiers": {
					"balance(address)": "e3d670d7",
					"bonus(address)": "d8cb4aa3",
					"deposit()": "d0e30db0",
					"firstDeposit(address)": "ac4b3c04",
					"getBalance()": "12065fe0",
					"withdraw(uint256)": "2e1a7d4d"
				}
			},
			"storageLayout": {
				"storage": [
					{
						"astId": 23,
						"contract": "7.AbstractContracts.sol:Bank",
						"label": "bonus",
						"offset": 0,
						"slot": "0",
						"type": "t_mapping(t_address,t_uint256)"
					},
					{
						"astId": 27,
						"contract": "7.AbstractContracts.sol:Bank",
						"label": "balance",
						"offset": 0,
						"slot": "1",
						"type": "t_mapping(t_address,t_uint256)"
					},
					{
						"astId": 31,
						"contract": "7.AbstractContracts.sol:Bank",
						"label": "firstDeposit",
						"offset": 0,
						"slot": "2",
						"type": "t_mapping(t_address,t_bool)"
					}
				],
				"types": {
					"t_address": {
						"encoding": "inplace",
						"label": "address",
						"numberOfBytes": "20"
					},
					"t_bool": {
						"encoding": "inplace",
						"label": "bool",
						"numberOfBytes": "1"
					},
					"t_mapping(t_address,t_bool)": {
						"encoding": "mapping",
						"key": "t_address",
						"label": "mapping(address => bool)",
						"numberOfBytes": "32",
						"value": "t_bool"
					},
					"t_mapping(t_address,t_uint256)": {
						"encoding": "mapping",
						"key": "t_address",
						"label": "mapping(address => uint256)",
						"numberOfBytes": "32",
						"value": "t_uint256"
					},
					"t_uint256": {
						"encoding": "inplace",
						"label": "uint256",
						"numberOfBytes": "32"
					}
				}
			},
			"userdoc": {
				"kind": "user",
				"methods": {},
				"version": 1
			}
		}
	}
}