{
	"5.FancyShirts.sol": {
		"FancyShirts": {
			"abi": [
				{
					"inputs": [
						{
							"internalType": "enum FancyShirts.Size",
							"name": "size",
							"type": "uint8"
						},
						{
							"internalType": "enum FancyShirts.Color",
							"name": "color",
							"type": "uint8"
						}
					],
					"name": "buyShirt",
					"outputs": [],
					"stateMutability": "payable",
					"type": "function"
				},
				{
					"inputs": [
						{
							"internalType": "enum FancyShirts.Size",
							"name": "size",
							"type": "uint8"
						},
						{
							"internalType": "enum FancyShirts.Color",
							"name": "color",
							"type": "uint8"
						}
					],
					"name": "getShirtPrice",
					"outputs": [
						{
							"internalType": "uint256",
							"name": "",
							"type": "uint256"
						}
					],
					"stateMutability": "pure",
					"type": "function"
				},
				{
					"inputs": [
						{
							"internalType": "enum FancyShirts.Size",
							"name": "size",
							"type": "uint8"
						},
						{
							"internalType": "enum FancyShirts.Color",
							"name": "color",
							"type": "uint8"
						}
					],
					"name": "getShirts",
					"outputs": [
						{
							"internalType": "uint256",
							"name": "",
							"type": "uint256"
						}
					],
					"stateMutability": "view",
					"type": "function"
				}
			],
			"devdoc": {
				"kind": "dev",
				"methods": {},
				"version": 1
			},
			"evm": {
				"assembly": "    /* \"5.FancyShirts.sol\":60:1600  contract FancyShirts {... */\n  mstore(0x40, 0x80)\n  callvalue\n  dup1\n  iszero\n  tag_1\n  jumpi\n  0x00\n  dup1\n  revert\ntag_1:\n  pop\n  dataSize(sub_0)\n  dup1\n  dataOffset(sub_0)\n  0x00\n  codecopy\n  0x00\n  return\nstop\n\nsub_0: assembly {\n        /* \"5.FancyShirts.sol\":60:1600  contract FancyShirts {... */\n      mstore(0x40, 0x80)\n      jumpi(tag_1, lt(calldatasize, 0x04))\n      shr(0xe0, calldataload(0x00))\n      dup1\n      0x6aa283a5\n      eq\n      tag_2\n      jumpi\n      dup1\n      0x71cc64b4\n      eq\n      tag_3\n      jumpi\n      dup1\n      0xb97461d3\n      eq\n      tag_4\n      jumpi\n    tag_1:\n      0x00\n      dup1\n      revert\n        /* \"5.FancyShirts.sol\":975:1190  function buyShirt(Size size, Color color)... */\n    tag_2:\n      tag_5\n      0x04\n      dup1\n      calldatasize\n      sub\n      dup2\n      add\n      swap1\n      tag_6\n      swap2\n      swap1\n      tag_7\n      jump\t// in\n    tag_6:\n      tag_8\n      jump\t// in\n    tag_5:\n      stop\n        /* \"5.FancyShirts.sol\":1198:1597  function getShirts(Size size, Color color) public view returns (uint256) {... */\n    tag_3:\n      callvalue\n      dup1\n      iszero\n      tag_9\n      jumpi\n      0x00\n      dup1\n      revert\n    tag_9:\n      pop\n      tag_10\n      0x04\n      dup1\n      calldatasize\n      sub\n      dup2\n      add\n      swap1\n      tag_11\n      swap2\n      swap1\n      tag_7\n      jump\t// in\n    tag_11:\n      tag_12\n      jump\t// in\n    tag_10:\n      mload(0x40)\n      tag_13\n      swap2\n      swap1\n      tag_14\n      jump\t// in\n    tag_13:\n      mload(0x40)\n      dup1\n      swap2\n      sub\n      swap1\n      return\n        /* \"5.FancyShirts.sol\":543:967  function getShirtPrice(Size size, Color color)... */\n    tag_4:\n      callvalue\n      dup1\n      iszero\n      tag_15\n      jumpi\n      0x00\n      dup1\n      revert\n    tag_15:\n      pop\n      tag_16\n      0x04\n      dup1\n      calldatasize\n      sub\n      dup2\n      add\n      swap1\n      tag_17\n      swap2\n      swap1\n      tag_7\n      jump\t// in\n    tag_17:\n      tag_18\n      jump\t// in\n    tag_16:\n      mload(0x40)\n      tag_19\n      swap2\n      swap1\n      tag_14\n      jump\t// in\n    tag_19:\n      mload(0x40)\n      dup1\n      swap2\n      sub\n      swap1\n      return\n        /* \"5.FancyShirts.sol\":975:1190  function buyShirt(Size size, Color color)... */\n    tag_8:\n        /* \"5.FancyShirts.sol\":1073:1077  size */\n      dup2\n        /* \"5.FancyShirts.sol\":1079:1084  color */\n      dup2\n        /* \"5.FancyShirts.sol\":457:466  msg.value */\n      callvalue\n        /* \"5.FancyShirts.sol\":427:453  getShirtPrice(size, color) */\n      tag_21\n        /* \"5.FancyShirts.sol\":441:445  size */\n      dup4\n        /* \"5.FancyShirts.sol\":447:452  color */\n      dup4\n        /* \"5.FancyShirts.sol\":427:440  getShirtPrice */\n      tag_18\n        /* \"5.FancyShirts.sol\":427:453  getShirtPrice(size, color) */\n      jump\t// in\n    tag_21:\n        /* \"5.FancyShirts.sol\":427:466  getShirtPrice(size, color) == msg.value */\n      eq\n        /* \"5.FancyShirts.sol\":405:515  require(... */\n      tag_22\n      jumpi\n      mload(0x40)\n      0x08c379a000000000000000000000000000000000000000000000000000000000\n      dup2\n      mstore\n      0x04\n      add\n      tag_23\n      swap1\n      tag_24\n      jump\t// in\n    tag_23:\n      mload(0x40)\n      dup1\n      swap2\n      sub\n      swap1\n      revert\n    tag_22:\n        /* \"5.FancyShirts.sol\":1102:1120  Shirt memory shirt */\n      0x00\n        /* \"5.FancyShirts.sol\":1123:1141  Shirt(size, color) */\n      mload(0x40)\n      dup1\n      0x40\n      add\n      0x40\n      mstore\n      dup1\n        /* \"5.FancyShirts.sol\":1129:1133  size */\n      dup7\n        /* \"5.FancyShirts.sol\":1123:1141  Shirt(size, color) */\n      0x02\n      dup2\n      gt\n      iszero\n      tag_26\n      jumpi\n      tag_27\n      tag_28\n      jump\t// in\n    tag_27:\n    tag_26:\n      dup2\n      mstore\n      0x20\n      add\n        /* \"5.FancyShirts.sol\":1135:1140  color */\n      dup6\n        /* \"5.FancyShirts.sol\":1123:1141  Shirt(size, color) */\n      0x02\n      dup2\n      gt\n      iszero\n      tag_29\n      jumpi\n      tag_30\n      tag_28\n      jump\t// in\n    tag_30:\n    tag_29:\n      dup2\n      mstore\n      pop\n        /* \"5.FancyShirts.sol\":1102:1141  Shirt memory shirt = Shirt(size, color) */\n      swap1\n      pop\n        /* \"5.FancyShirts.sol\":1152:1158  shirts */\n      0x00\n        /* \"5.FancyShirts.sol\":1152:1170  shirts[msg.sender] */\n      dup1\n        /* \"5.FancyShirts.sol\":1159:1169  msg.sender */\n      caller\n        /* \"5.FancyShirts.sol\":1152:1170  shirts[msg.sender] */\n      0xffffffffffffffffffffffffffffffffffffffff\n      and\n      0xffffffffffffffffffffffffffffffffffffffff\n      and\n      dup2\n      mstore\n      0x20\n      add\n      swap1\n      dup2\n      mstore\n      0x20\n      add\n      0x00\n      keccak256\n        /* \"5.FancyShirts.sol\":1176:1181  shirt */\n      dup2\n        /* \"5.FancyShirts.sol\":1152:1182  shirts[msg.sender].push(shirt) */\n      swap1\n      dup1\n      0x01\n      dup2\n      sload\n      add\n      dup1\n      dup3\n      sstore\n      dup1\n      swap2\n      pop\n      pop\n      0x01\n      swap1\n      sub\n      swap1\n      0x00\n      mstore\n      keccak256(0x00, 0x20)\n      add\n      0x00\n      swap1\n      swap2\n      swap1\n      swap2\n      swap1\n      swap2\n      pop\n      0x00\n      dup3\n      add\n      mload\n      dup2\n      0x00\n      add\n      exp(0x0100, 0x00)\n      dup2\n      sload\n      dup2\n      0xff\n      mul\n      not\n      and\n      swap1\n      dup4\n      0x02\n      dup2\n      gt\n      iszero\n      tag_32\n      jumpi\n      tag_33\n      tag_28\n      jump\t// in\n    tag_33:\n    tag_32:\n      mul\n      or\n      swap1\n      sstore\n      pop\n      0x20\n      dup3\n      add\n      mload\n      dup2\n      0x00\n      add\n      exp(0x0100, 0x01)\n      dup2\n      sload\n      dup2\n      0xff\n      mul\n      not\n      and\n      swap1\n      dup4\n      0x02\n      dup2\n      gt\n      iszero\n      tag_34\n      jumpi\n      tag_35\n      tag_28\n      jump\t// in\n    tag_35:\n    tag_34:\n      mul\n      or\n      swap1\n      sstore\n      pop\n      pop\n      pop\n        /* \"5.FancyShirts.sol\":1091:1190  {... */\n      pop\n        /* \"5.FancyShirts.sol\":975:1190  function buyShirt(Size size, Color color)... */\n      pop\n      pop\n      pop\n      pop\n      jump\t// out\n        /* \"5.FancyShirts.sol\":1198:1597  function getShirts(Size size, Color color) public view returns (uint256) {... */\n    tag_12:\n        /* \"5.FancyShirts.sol\":1262:1269  uint256 */\n      0x00\n        /* \"5.FancyShirts.sol\":1282:1295  uint256 count */\n      dup1\n        /* \"5.FancyShirts.sol\":1313:1324  uint256 idx */\n      0x00\n        /* \"5.FancyShirts.sol\":1308:1567  for (uint256 idx; idx < shirts[msg.sender].length; idx++) {... */\n    tag_37:\n        /* \"5.FancyShirts.sol\":1332:1338  shirts */\n      0x00\n        /* \"5.FancyShirts.sol\":1332:1350  shirts[msg.sender] */\n      dup1\n        /* \"5.FancyShirts.sol\":1339:1349  msg.sender */\n      caller\n        /* \"5.FancyShirts.sol\":1332:1350  shirts[msg.sender] */\n      0xffffffffffffffffffffffffffffffffffffffff\n      and\n      0xffffffffffffffffffffffffffffffffffffffff\n      and\n      dup2\n      mstore\n      0x20\n      add\n      swap1\n      dup2\n      mstore\n      0x20\n      add\n      0x00\n      keccak256\n        /* \"5.FancyShirts.sol\":1332:1357  shirts[msg.sender].length */\n      dup1\n      sload\n      swap1\n      pop\n        /* \"5.FancyShirts.sol\":1326:1329  idx */\n      dup2\n        /* \"5.FancyShirts.sol\":1326:1357  idx < shirts[msg.sender].length */\n      lt\n        /* \"5.FancyShirts.sol\":1308:1567  for (uint256 idx; idx < shirts[msg.sender].length; idx++) {... */\n      iszero\n      tag_38\n      jumpi\n        /* \"5.FancyShirts.sol\":1435:1439  size */\n      dup5\n        /* \"5.FancyShirts.sol\":1403:1439  shirts[msg.sender][idx].size == size */\n      0x02\n      dup2\n      gt\n      iszero\n      tag_40\n      jumpi\n      tag_41\n      tag_28\n      jump\t// in\n    tag_41:\n    tag_40:\n        /* \"5.FancyShirts.sol\":1403:1409  shirts */\n      0x00\n        /* \"5.FancyShirts.sol\":1403:1421  shirts[msg.sender] */\n      dup1\n        /* \"5.FancyShirts.sol\":1410:1420  msg.sender */\n      caller\n        /* \"5.FancyShirts.sol\":1403:1421  shirts[msg.sender] */\n      0xffffffffffffffffffffffffffffffffffffffff\n      and\n      0xffffffffffffffffffffffffffffffffffffffff\n      and\n      dup2\n      mstore\n      0x20\n      add\n      swap1\n      dup2\n      mstore\n      0x20\n      add\n      0x00\n      keccak256\n        /* \"5.FancyShirts.sol\":1422:1425  idx */\n      dup3\n        /* \"5.FancyShirts.sol\":1403:1426  shirts[msg.sender][idx] */\n      dup2\n      sload\n      dup2\n      lt\n      tag_42\n      jumpi\n      tag_43\n      tag_44\n      jump\t// in\n    tag_43:\n    tag_42:\n      swap1\n      0x00\n      mstore\n      keccak256(0x00, 0x20)\n      add\n        /* \"5.FancyShirts.sol\":1403:1431  shirts[msg.sender][idx].size */\n      0x00\n      add\n      0x00\n      swap1\n      sload\n      swap1\n      0x0100\n      exp\n      swap1\n      div\n      0xff\n      and\n        /* \"5.FancyShirts.sol\":1403:1439  shirts[msg.sender][idx].size == size */\n      0x02\n      dup2\n      gt\n      iszero\n      tag_46\n      jumpi\n      tag_47\n      tag_28\n      jump\t// in\n    tag_47:\n    tag_46:\n      eq\n        /* \"5.FancyShirts.sol\":1403:1498  shirts[msg.sender][idx].size == size &&... */\n      dup1\n      iszero\n      tag_48\n      jumpi\n      pop\n        /* \"5.FancyShirts.sol\":1493:1498  color */\n      dup4\n        /* \"5.FancyShirts.sol\":1460:1498  shirts[msg.sender][idx].color == color */\n      0x02\n      dup2\n      gt\n      iszero\n      tag_49\n      jumpi\n      tag_50\n      tag_28\n      jump\t// in\n    tag_50:\n    tag_49:\n        /* \"5.FancyShirts.sol\":1460:1466  shirts */\n      0x00\n        /* \"5.FancyShirts.sol\":1460:1478  shirts[msg.sender] */\n      dup1\n        /* \"5.FancyShirts.sol\":1467:1477  msg.sender */\n      caller\n        /* \"5.FancyShirts.sol\":1460:1478  shirts[msg.sender] */\n      0xffffffffffffffffffffffffffffffffffffffff\n      and\n      0xffffffffffffffffffffffffffffffffffffffff\n      and\n      dup2\n      mstore\n      0x20\n      add\n      swap1\n      dup2\n      mstore\n      0x20\n      add\n      0x00\n      keccak256\n        /* \"5.FancyShirts.sol\":1479:1482  idx */\n      dup3\n        /* \"5.FancyShirts.sol\":1460:1483  shirts[msg.sender][idx] */\n      dup2\n      sload\n      dup2\n      lt\n      tag_51\n      jumpi\n      tag_52\n      tag_44\n      jump\t// in\n    tag_52:\n    tag_51:\n      swap1\n      0x00\n      mstore\n      keccak256(0x00, 0x20)\n      add\n        /* \"5.FancyShirts.sol\":1460:1489  shirts[msg.sender][idx].color */\n      0x00\n      add\n      0x01\n      swap1\n      sload\n      swap1\n      0x0100\n      exp\n      swap1\n      div\n      0xff\n      and\n        /* \"5.FancyShirts.sol\":1460:1498  shirts[msg.sender][idx].color == color */\n      0x02\n      dup2\n      gt\n      iszero\n      tag_54\n      jumpi\n      tag_55\n      tag_28\n      jump\t// in\n    tag_55:\n    tag_54:\n      eq\n        /* \"5.FancyShirts.sol\":1403:1498  shirts[msg.sender][idx].size == size &&... */\n    tag_48:\n        /* \"5.FancyShirts.sol\":1381:1556  if (... */\n      iszero\n      tag_56\n      jumpi\n        /* \"5.FancyShirts.sol\":1533:1540  count++ */\n      dup2\n      dup1\n      tag_57\n      swap1\n      tag_58\n      jump\t// in\n    tag_57:\n      swap3\n      pop\n      pop\n        /* \"5.FancyShirts.sol\":1381:1556  if (... */\n    tag_56:\n        /* \"5.FancyShirts.sol\":1359:1364  idx++ */\n      dup1\n      dup1\n      0x01\n      add\n      swap2\n      pop\n      pop\n        /* \"5.FancyShirts.sol\":1308:1567  for (uint256 idx; idx < shirts[msg.sender].length; idx++) {... */\n      jump(tag_37)\n    tag_38:\n      pop\n        /* \"5.FancyShirts.sol\":1584:1589  count */\n      dup1\n        /* \"5.FancyShirts.sol\":1577:1589  return count */\n      swap2\n      pop\n      pop\n        /* \"5.FancyShirts.sol\":1198:1597  function getShirts(Size size, Color color) public view returns (uint256) {... */\n      swap3\n      swap2\n      pop\n      pop\n      jump\t// out\n        /* \"5.FancyShirts.sol\":543:967  function getShirtPrice(Size size, Color color)... */\n    tag_18:\n        /* \"5.FancyShirts.sol\":638:645  uint256 */\n      0x00\n        /* \"5.FancyShirts.sol\":663:676  uint256 price */\n      dup1\n        /* \"5.FancyShirts.sol\":699:709  Size.Small */\n      0x00\n        /* \"5.FancyShirts.sol\":691:709  size == Size.Small */\n      0x02\n      dup2\n      gt\n      iszero\n      tag_60\n      jumpi\n      tag_61\n      tag_28\n      jump\t// in\n    tag_61:\n    tag_60:\n        /* \"5.FancyShirts.sol\":691:695  size */\n      dup5\n        /* \"5.FancyShirts.sol\":691:709  size == Size.Small */\n      0x02\n      dup2\n      gt\n      iszero\n      tag_62\n      jumpi\n      tag_63\n      tag_28\n      jump\t// in\n    tag_63:\n    tag_62:\n      sub\n        /* \"5.FancyShirts.sol\":687:862  if (size == Size.Small) {... */\n      tag_64\n      jumpi\n        /* \"5.FancyShirts.sol\":735:737  10 */\n      0x0a\n        /* \"5.FancyShirts.sol\":726:737  price += 10 */\n      dup2\n      tag_65\n      swap2\n      swap1\n      tag_66\n      jump\t// in\n    tag_65:\n      swap1\n      pop\n        /* \"5.FancyShirts.sol\":687:862  if (size == Size.Small) {... */\n      jump(tag_67)\n    tag_64:\n        /* \"5.FancyShirts.sol\":767:778  Size.Medium */\n      0x01\n        /* \"5.FancyShirts.sol\":759:778  size == Size.Medium */\n      0x02\n      dup2\n      gt\n      iszero\n      tag_68\n      jumpi\n      tag_69\n      tag_28\n      jump\t// in\n    tag_69:\n    tag_68:\n        /* \"5.FancyShirts.sol\":759:763  size */\n      dup5\n        /* \"5.FancyShirts.sol\":759:778  size == Size.Medium */\n      0x02\n      dup2\n      gt\n      iszero\n      tag_70\n      jumpi\n      tag_71\n      tag_28\n      jump\t// in\n    tag_71:\n    tag_70:\n      sub\n        /* \"5.FancyShirts.sol\":755:862  if (size == Size.Medium) {... */\n      tag_72\n      jumpi\n        /* \"5.FancyShirts.sol\":804:806  15 */\n      0x0f\n        /* \"5.FancyShirts.sol\":795:806  price += 15 */\n      dup2\n      tag_73\n      swap2\n      swap1\n      tag_66\n      jump\t// in\n    tag_73:\n      swap1\n      pop\n        /* \"5.FancyShirts.sol\":755:862  if (size == Size.Medium) {... */\n      jump(tag_74)\n    tag_72:\n        /* \"5.FancyShirts.sol\":848:850  20 */\n      0x14\n        /* \"5.FancyShirts.sol\":839:850  price += 20 */\n      dup2\n      tag_75\n      swap2\n      swap1\n      tag_66\n      jump\t// in\n    tag_75:\n      swap1\n      pop\n        /* \"5.FancyShirts.sol\":755:862  if (size == Size.Medium) {... */\n    tag_74:\n        /* \"5.FancyShirts.sol\":687:862  if (size == Size.Small) {... */\n    tag_67:\n        /* \"5.FancyShirts.sol\":887:896  Color.Red */\n      0x00\n        /* \"5.FancyShirts.sol\":878:896  color != Color.Red */\n      0x02\n      dup2\n      gt\n      iszero\n      tag_76\n      jumpi\n      tag_77\n      tag_28\n      jump\t// in\n    tag_77:\n    tag_76:\n        /* \"5.FancyShirts.sol\":878:883  color */\n      dup4\n        /* \"5.FancyShirts.sol\":878:896  color != Color.Red */\n      0x02\n      dup2\n      gt\n      iszero\n      tag_78\n      jumpi\n      tag_79\n      tag_28\n      jump\t// in\n    tag_79:\n    tag_78:\n      eq\n        /* \"5.FancyShirts.sol\":874:935  if (color != Color.Red) {... */\n      tag_80\n      jumpi\n        /* \"5.FancyShirts.sol\":922:923  5 */\n      0x05\n        /* \"5.FancyShirts.sol\":913:923  price += 5 */\n      dup2\n      tag_81\n      swap2\n      swap1\n      tag_66\n      jump\t// in\n    tag_81:\n      swap1\n      pop\n        /* \"5.FancyShirts.sol\":874:935  if (color != Color.Red) {... */\n    tag_80:\n        /* \"5.FancyShirts.sol\":954:959  price */\n      dup1\n        /* \"5.FancyShirts.sol\":947:959  return price */\n      swap2\n      pop\n      pop\n        /* \"5.FancyShirts.sol\":543:967  function getShirtPrice(Size size, Color color)... */\n      swap3\n      swap2\n      pop\n      pop\n      jump\t// out\n        /* \"#utility.yul\":88:205   */\n    tag_83:\n        /* \"#utility.yul\":197:198   */\n      0x00\n        /* \"#utility.yul\":194:195   */\n      dup1\n        /* \"#utility.yul\":187:199   */\n      revert\n        /* \"#utility.yul\":334:439   */\n    tag_85:\n        /* \"#utility.yul\":413:414   */\n      0x03\n        /* \"#utility.yul\":406:411   */\n      dup2\n        /* \"#utility.yul\":403:415   */\n      lt\n        /* \"#utility.yul\":393:433   */\n      tag_100\n      jumpi\n        /* \"#utility.yul\":429:430   */\n      0x00\n        /* \"#utility.yul\":426:427   */\n      dup1\n        /* \"#utility.yul\":419:431   */\n      revert\n        /* \"#utility.yul\":393:433   */\n    tag_100:\n        /* \"#utility.yul\":334:439   */\n      pop\n      jump\t// out\n        /* \"#utility.yul\":445:596   */\n    tag_86:\n        /* \"#utility.yul\":497:502   */\n      0x00\n        /* \"#utility.yul\":535:541   */\n      dup2\n        /* \"#utility.yul\":522:542   */\n      calldataload\n        /* \"#utility.yul\":513:542   */\n      swap1\n      pop\n        /* \"#utility.yul\":551:590   */\n      tag_102\n        /* \"#utility.yul\":584:589   */\n      dup2\n        /* \"#utility.yul\":551:590   */\n      tag_85\n      jump\t// in\n    tag_102:\n        /* \"#utility.yul\":445:596   */\n      swap3\n      swap2\n      pop\n      pop\n      jump\t// out\n        /* \"#utility.yul\":602:708   */\n    tag_87:\n        /* \"#utility.yul\":682:683   */\n      0x03\n        /* \"#utility.yul\":675:680   */\n      dup2\n        /* \"#utility.yul\":672:684   */\n      lt\n        /* \"#utility.yul\":662:702   */\n      tag_104\n      jumpi\n        /* \"#utility.yul\":698:699   */\n      0x00\n        /* \"#utility.yul\":695:696   */\n      dup1\n        /* \"#utility.yul\":688:700   */\n      revert\n        /* \"#utility.yul\":662:702   */\n    tag_104:\n        /* \"#utility.yul\":602:708   */\n      pop\n      jump\t// out\n        /* \"#utility.yul\":714:867   */\n    tag_88:\n        /* \"#utility.yul\":767:772   */\n      0x00\n        /* \"#utility.yul\":805:811   */\n      dup2\n        /* \"#utility.yul\":792:812   */\n      calldataload\n        /* \"#utility.yul\":783:812   */\n      swap1\n      pop\n        /* \"#utility.yul\":821:861   */\n      tag_106\n        /* \"#utility.yul\":855:860   */\n      dup2\n        /* \"#utility.yul\":821:861   */\n      tag_87\n      jump\t// in\n    tag_106:\n        /* \"#utility.yul\":714:867   */\n      swap3\n      swap2\n      pop\n      pop\n      jump\t// out\n        /* \"#utility.yul\":873:1373   */\n    tag_7:\n        /* \"#utility.yul\":954:960   */\n      0x00\n        /* \"#utility.yul\":962:968   */\n      dup1\n        /* \"#utility.yul\":1011:1013   */\n      0x40\n        /* \"#utility.yul\":999:1008   */\n      dup4\n        /* \"#utility.yul\":990:997   */\n      dup6\n        /* \"#utility.yul\":986:1009   */\n      sub\n        /* \"#utility.yul\":982:1014   */\n      slt\n        /* \"#utility.yul\":979:1098   */\n      iszero\n      tag_108\n      jumpi\n        /* \"#utility.yul\":1017:1096   */\n      tag_109\n      tag_83\n      jump\t// in\n    tag_109:\n        /* \"#utility.yul\":979:1098   */\n    tag_108:\n        /* \"#utility.yul\":1137:1138   */\n      0x00\n        /* \"#utility.yul\":1162:1221   */\n      tag_110\n        /* \"#utility.yul\":1213:1220   */\n      dup6\n        /* \"#utility.yul\":1204:1210   */\n      dup3\n        /* \"#utility.yul\":1193:1202   */\n      dup7\n        /* \"#utility.yul\":1189:1211   */\n      add\n        /* \"#utility.yul\":1162:1221   */\n      tag_86\n      jump\t// in\n    tag_110:\n        /* \"#utility.yul\":1152:1221   */\n      swap3\n      pop\n        /* \"#utility.yul\":1108:1231   */\n      pop\n        /* \"#utility.yul\":1270:1272   */\n      0x20\n        /* \"#utility.yul\":1296:1356   */\n      tag_111\n        /* \"#utility.yul\":1348:1355   */\n      dup6\n        /* \"#utility.yul\":1339:1345   */\n      dup3\n        /* \"#utility.yul\":1328:1337   */\n      dup7\n        /* \"#utility.yul\":1324:1346   */\n      add\n        /* \"#utility.yul\":1296:1356   */\n      tag_88\n      jump\t// in\n    tag_111:\n        /* \"#utility.yul\":1286:1356   */\n      swap2\n      pop\n        /* \"#utility.yul\":1241:1366   */\n      pop\n        /* \"#utility.yul\":873:1373   */\n      swap3\n      pop\n      swap3\n      swap1\n      pop\n      jump\t// out\n        /* \"#utility.yul\":1379:1456   */\n    tag_89:\n        /* \"#utility.yul\":1416:1423   */\n      0x00\n        /* \"#utility.yul\":1445:1450   */\n      dup2\n        /* \"#utility.yul\":1434:1450   */\n      swap1\n      pop\n        /* \"#utility.yul\":1379:1456   */\n      swap2\n      swap1\n      pop\n      jump\t// out\n        /* \"#utility.yul\":1462:1580   */\n    tag_90:\n        /* \"#utility.yul\":1549:1573   */\n      tag_114\n        /* \"#utility.yul\":1567:1572   */\n      dup2\n        /* \"#utility.yul\":1549:1573   */\n      tag_89\n      jump\t// in\n    tag_114:\n        /* \"#utility.yul\":1544:1547   */\n      dup3\n        /* \"#utility.yul\":1537:1574   */\n      mstore\n        /* \"#utility.yul\":1462:1580   */\n      pop\n      pop\n      jump\t// out\n        /* \"#utility.yul\":1586:1808   */\n    tag_14:\n        /* \"#utility.yul\":1679:1683   */\n      0x00\n        /* \"#utility.yul\":1717:1719   */\n      0x20\n        /* \"#utility.yul\":1706:1715   */\n      dup3\n        /* \"#utility.yul\":1702:1720   */\n      add\n        /* \"#utility.yul\":1694:1720   */\n      swap1\n      pop\n        /* \"#utility.yul\":1730:1801   */\n      tag_116\n        /* \"#utility.yul\":1798:1799   */\n      0x00\n        /* \"#utility.yul\":1787:1796   */\n      dup4\n        /* \"#utility.yul\":1783:1800   */\n      add\n        /* \"#utility.yul\":1774:1780   */\n      dup5\n        /* \"#utility.yul\":1730:1801   */\n      tag_90\n      jump\t// in\n    tag_116:\n        /* \"#utility.yul\":1586:1808   */\n      swap3\n      swap2\n      pop\n      pop\n      jump\t// out\n        /* \"#utility.yul\":1814:1983   */\n    tag_91:\n        /* \"#utility.yul\":1898:1909   */\n      0x00\n        /* \"#utility.yul\":1932:1938   */\n      dup3\n        /* \"#utility.yul\":1927:1930   */\n      dup3\n        /* \"#utility.yul\":1920:1939   */\n      mstore\n        /* \"#utility.yul\":1972:1976   */\n      0x20\n        /* \"#utility.yul\":1967:1970   */\n      dup3\n        /* \"#utility.yul\":1963:1977   */\n      add\n        /* \"#utility.yul\":1948:1977   */\n      swap1\n      pop\n        /* \"#utility.yul\":1814:1983   */\n      swap3\n      swap2\n      pop\n      pop\n      jump\t// out\n        /* \"#utility.yul\":1989:2160   */\n    tag_92:\n        /* \"#utility.yul\":2129:2152   */\n      0x496e636f727265637420616d6f756e742073656e740000000000000000000000\n        /* \"#utility.yul\":2125:2126   */\n      0x00\n        /* \"#utility.yul\":2117:2123   */\n      dup3\n        /* \"#utility.yul\":2113:2127   */\n      add\n        /* \"#utility.yul\":2106:2153   */\n      mstore\n        /* \"#utility.yul\":1989:2160   */\n      pop\n      jump\t// out\n        /* \"#utility.yul\":2166:2532   */\n    tag_93:\n        /* \"#utility.yul\":2308:2311   */\n      0x00\n        /* \"#utility.yul\":2329:2396   */\n      tag_120\n        /* \"#utility.yul\":2393:2395   */\n      0x15\n        /* \"#utility.yul\":2388:2391   */\n      dup4\n        /* \"#utility.yul\":2329:2396   */\n      tag_91\n      jump\t// in\n    tag_120:\n        /* \"#utility.yul\":2322:2396   */\n      swap2\n      pop\n        /* \"#utility.yul\":2405:2498   */\n      tag_121\n        /* \"#utility.yul\":2494:2497   */\n      dup3\n        /* \"#utility.yul\":2405:2498   */\n      tag_92\n      jump\t// in\n    tag_121:\n        /* \"#utility.yul\":2523:2525   */\n      0x20\n        /* \"#utility.yul\":2518:2521   */\n      dup3\n        /* \"#utility.yul\":2514:2526   */\n      add\n        /* \"#utility.yul\":2507:2526   */\n      swap1\n      pop\n        /* \"#utility.yul\":2166:2532   */\n      swap2\n      swap1\n      pop\n      jump\t// out\n        /* \"#utility.yul\":2538:2957   */\n    tag_24:\n        /* \"#utility.yul\":2704:2708   */\n      0x00\n        /* \"#utility.yul\":2742:2744   */\n      0x20\n        /* \"#utility.yul\":2731:2740   */\n      dup3\n        /* \"#utility.yul\":2727:2745   */\n      add\n        /* \"#utility.yul\":2719:2745   */\n      swap1\n      pop\n        /* \"#utility.yul\":2791:2800   */\n      dup2\n        /* \"#utility.yul\":2785:2789   */\n      dup2\n        /* \"#utility.yul\":2781:2801   */\n      sub\n        /* \"#utility.yul\":2777:2778   */\n      0x00\n        /* \"#utility.yul\":2766:2775   */\n      dup4\n        /* \"#utility.yul\":2762:2779   */\n      add\n        /* \"#utility.yul\":2755:2802   */\n      mstore\n        /* \"#utility.yul\":2819:2950   */\n      tag_123\n        /* \"#utility.yul\":2945:2949   */\n      dup2\n        /* \"#utility.yul\":2819:2950   */\n      tag_93\n      jump\t// in\n    tag_123:\n        /* \"#utility.yul\":2811:2950   */\n      swap1\n      pop\n        /* \"#utility.yul\":2538:2957   */\n      swap2\n      swap1\n      pop\n      jump\t// out\n        /* \"#utility.yul\":2963:3143   */\n    tag_28:\n        /* \"#utility.yul\":3011:3088   */\n      0x4e487b7100000000000000000000000000000000000000000000000000000000\n        /* \"#utility.yul\":3008:3009   */\n      0x00\n        /* \"#utility.yul\":3001:3089   */\n      mstore\n        /* \"#utility.yul\":3108:3112   */\n      0x21\n        /* \"#utility.yul\":3105:3106   */\n      0x04\n        /* \"#utility.yul\":3098:3113   */\n      mstore\n        /* \"#utility.yul\":3132:3136   */\n      0x24\n        /* \"#utility.yul\":3129:3130   */\n      0x00\n        /* \"#utility.yul\":3122:3137   */\n      revert\n        /* \"#utility.yul\":3149:3329   */\n    tag_44:\n        /* \"#utility.yul\":3197:3274   */\n      0x4e487b7100000000000000000000000000000000000000000000000000000000\n        /* \"#utility.yul\":3194:3195   */\n      0x00\n        /* \"#utility.yul\":3187:3275   */\n      mstore\n        /* \"#utility.yul\":3294:3298   */\n      0x32\n        /* \"#utility.yul\":3291:3292   */\n      0x04\n        /* \"#utility.yul\":3284:3299   */\n      mstore\n        /* \"#utility.yul\":3318:3322   */\n      0x24\n        /* \"#utility.yul\":3315:3316   */\n      0x00\n        /* \"#utility.yul\":3308:3323   */\n      revert\n        /* \"#utility.yul\":3335:3515   */\n    tag_94:\n        /* \"#utility.yul\":3383:3460   */\n      0x4e487b7100000000000000000000000000000000000000000000000000000000\n        /* \"#utility.yul\":3380:3381   */\n      0x00\n        /* \"#utility.yul\":3373:3461   */\n      mstore\n        /* \"#utility.yul\":3480:3484   */\n      0x11\n        /* \"#utility.yul\":3477:3478   */\n      0x04\n        /* \"#utility.yul\":3470:3485   */\n      mstore\n        /* \"#utility.yul\":3504:3508   */\n      0x24\n        /* \"#utility.yul\":3501:3502   */\n      0x00\n        /* \"#utility.yul\":3494:3509   */\n      revert\n        /* \"#utility.yul\":3521:3754   */\n    tag_58:\n        /* \"#utility.yul\":3560:3563   */\n      0x00\n        /* \"#utility.yul\":3583:3607   */\n      tag_128\n        /* \"#utility.yul\":3601:3606   */\n      dup3\n        /* \"#utility.yul\":3583:3607   */\n      tag_89\n      jump\t// in\n    tag_128:\n        /* \"#utility.yul\":3574:3607   */\n      swap2\n      pop\n        /* \"#utility.yul\":3629:3695   */\n      0xffffffffffffffffffffffffffffffffffffffffffffffffffffffffffffffff\n        /* \"#utility.yul\":3622:3627   */\n      dup3\n        /* \"#utility.yul\":3619:3696   */\n      sub\n        /* \"#utility.yul\":3616:3719   */\n      tag_129\n      jumpi\n        /* \"#utility.yul\":3699:3717   */\n      tag_130\n      tag_94\n      jump\t// in\n    tag_130:\n        /* \"#utility.yul\":3616:3719   */\n    tag_129:\n        /* \"#utility.yul\":3746:3747   */\n      0x01\n        /* \"#utility.yul\":3739:3744   */\n      dup3\n        /* \"#utility.yul\":3735:3748   */\n      add\n        /* \"#utility.yul\":3728:3748   */\n      swap1\n      pop\n        /* \"#utility.yul\":3521:3754   */\n      swap2\n      swap1\n      pop\n      jump\t// out\n        /* \"#utility.yul\":3760:3951   */\n    tag_66:\n        /* \"#utility.yul\":3800:3803   */\n      0x00\n        /* \"#utility.yul\":3819:3839   */\n      tag_132\n        /* \"#utility.yul\":3837:3838   */\n      dup3\n        /* \"#utility.yul\":3819:3839   */\n      tag_89\n      jump\t// in\n    tag_132:\n        /* \"#utility.yul\":3814:3839   */\n      swap2\n      pop\n        /* \"#utility.yul\":3853:3873   */\n      tag_133\n        /* \"#utility.yul\":3871:3872   */\n      dup4\n        /* \"#utility.yul\":3853:3873   */\n      tag_89\n      jump\t// in\n    tag_133:\n        /* \"#utility.yul\":3848:3873   */\n      swap3\n      pop\n        /* \"#utility.yul\":3896:3897   */\n      dup3\n        /* \"#utility.yul\":3893:3894   */\n      dup3\n        /* \"#utility.yul\":3889:3898   */\n      add\n        /* \"#utility.yul\":3882:3898   */\n      swap1\n      pop\n        /* \"#utility.yul\":3917:3920   */\n      dup1\n        /* \"#utility.yul\":3914:3915   */\n      dup3\n        /* \"#utility.yul\":3911:3921   */\n      gt\n        /* \"#utility.yul\":3908:3944   */\n      iszero\n      tag_134\n      jumpi\n        /* \"#utility.yul\":3924:3942   */\n      tag_135\n      tag_94\n      jump\t// in\n    tag_135:\n        /* \"#utility.yul\":3908:3944   */\n    tag_134:\n        /* \"#utility.yul\":3760:3951   */\n      swap3\n      swap2\n      pop\n      pop\n      jump\t// out\n\n    auxdata: 0xa264697066735822122053f14bd6eaf867d319ce048f8326a90df4ad2aad303182dff931f2f74f7018e064736f6c63430008190033\n}\n",
				"bytecode": {
					"linkReferences": {},
					"object": "6080604052348015600e575f80fd5b506106ed8061001c5f395ff3fe608060405260043610610033575f3560e01c80636aa283a51461003757806371cc64b414610053578063b97461d31461008f575b5f80fd5b610051600480360381019061004c91906104cf565b6100cb565b005b34801561005e575f80fd5b50610079600480360381019061007491906104cf565b610218565b6040516100869190610525565b60405180910390f35b34801561009a575f80fd5b506100b560048036038101906100b091906104cf565b6103ae565b6040516100c29190610525565b60405180910390f35b8181346100d883836103ae565b14610118576040517f08c379a000000000000000000000000000000000000000000000000000000000815260040161010f90610598565b60405180910390fd5b5f6040518060400160405280866002811115610137576101366105b6565b5b815260200185600281111561014f5761014e6105b6565b5b81525090505f803373ffffffffffffffffffffffffffffffffffffffff1673ffffffffffffffffffffffffffffffffffffffff1681526020019081526020015f2081908060018154018082558091505060019003905f5260205f20015f909190919091505f820151815f015f6101000a81548160ff021916908360028111156101db576101da6105b6565b5b02179055506020820151815f0160016101000a81548160ff0219169083600281111561020a576102096105b6565b5b021790555050505050505050565b5f805f5b5f803373ffffffffffffffffffffffffffffffffffffffff1673ffffffffffffffffffffffffffffffffffffffff1681526020019081526020015f20805490508110156103a357846002811115610276576102756105b6565b5b5f803373ffffffffffffffffffffffffffffffffffffffff1673ffffffffffffffffffffffffffffffffffffffff1681526020019081526020015f2082815481106102c4576102c36105e3565b5b905f5260205f20015f015f9054906101000a900460ff1660028111156102ed576102ec6105b6565b5b1480156103825750836002811115610308576103076105b6565b5b5f803373ffffffffffffffffffffffffffffffffffffffff1673ffffffffffffffffffffffffffffffffffffffff1681526020019081526020015f208281548110610356576103556105e3565b5b905f5260205f20015f0160019054906101000a900460ff1660028111156103805761037f6105b6565b5b145b156103965781806103929061063d565b9250505b808060010191505061021c565b508091505092915050565b5f805f60028111156103c3576103c26105b6565b5b8460028111156103d6576103d56105b6565b5b036103ef57600a816103e89190610684565b9050610440565b60016002811115610403576104026105b6565b5b846002811115610416576104156105b6565b5b0361042f57600f816104289190610684565b905061043f565b60148161043c9190610684565b90505b5b5f6002811115610453576104526105b6565b5b836002811115610466576104656105b6565b5b1461047b576005816104789190610684565b90505b8091505092915050565b5f80fd5b60038110610495575f80fd5b50565b5f813590506104a681610489565b92915050565b600381106104b8575f80fd5b50565b5f813590506104c9816104ac565b92915050565b5f80604083850312156104e5576104e4610485565b5b5f6104f285828601610498565b9250506020610503858286016104bb565b9150509250929050565b5f819050919050565b61051f8161050d565b82525050565b5f6020820190506105385f830184610516565b92915050565b5f82825260208201905092915050565b7f496e636f727265637420616d6f756e742073656e7400000000000000000000005f82015250565b5f61058260158361053e565b915061058d8261054e565b602082019050919050565b5f6020820190508181035f8301526105af81610576565b9050919050565b7f4e487b71000000000000000000000000000000000000000000000000000000005f52602160045260245ffd5b7f4e487b71000000000000000000000000000000000000000000000000000000005f52603260045260245ffd5b7f4e487b71000000000000000000000000000000000000000000000000000000005f52601160045260245ffd5b5f6106478261050d565b91507fffffffffffffffffffffffffffffffffffffffffffffffffffffffffffffffff820361067957610678610610565b5b600182019050919050565b5f61068e8261050d565b91506106998361050d565b92508282019050808211156106b1576106b0610610565b5b9291505056fea264697066735822122053f14bd6eaf867d319ce048f8326a90df4ad2aad303182dff931f2f74f7018e064736f6c63430008190033",
					"opcodes": "PUSH1 0x80 PUSH1 0x40 MSTORE CALLVALUE DUP1 ISZERO PUSH1 0xE JUMPI PUSH0 DUP1 REVERT JUMPDEST POP PUSH2 0x6ED DUP1 PUSH2 0x1C PUSH0 CODECOPY PUSH0 RETURN INVALID PUSH1 0x80 PUSH1 0x40 MSTORE PUSH1 0x4 CALLDATASIZE LT PUSH2 0x33 JUMPI PUSH0 CALLDATALOAD PUSH1 0xE0 SHR DUP1 PUSH4 0x6AA283A5 EQ PUSH2 0x37 JUMPI DUP1 PUSH4 0x71CC64B4 EQ PUSH2 0x53 JUMPI DUP1 PUSH4 0xB97461D3 EQ PUSH2 0x8F JUMPI JUMPDEST PUSH0 DUP1 REVERT JUMPDEST PUSH2 0x51 PUSH1 0x4 DUP1 CALLDATASIZE SUB DUP2 ADD SWAP1 PUSH2 0x4C SWAP2 SWAP1 PUSH2 0x4CF JUMP JUMPDEST PUSH2 0xCB JUMP JUMPDEST STOP JUMPDEST CALLVALUE DUP1 ISZERO PUSH2 0x5E JUMPI PUSH0 DUP1 REVERT JUMPDEST POP PUSH2 0x79 PUSH1 0x4 DUP1 CALLDATASIZE SUB DUP2 ADD SWAP1 PUSH2 0x74 SWAP2 SWAP1 PUSH2 0x4CF JUMP JUMPDEST PUSH2 0x218 JUMP JUMPDEST PUSH1 0x40 MLOAD PUSH2 0x86 SWAP2 SWAP1 PUSH2 0x525 JUMP JUMPDEST PUSH1 0x40 MLOAD DUP1 SWAP2 SUB SWAP1 RETURN JUMPDEST CALLVALUE DUP1 ISZERO PUSH2 0x9A JUMPI PUSH0 DUP1 REVERT JUMPDEST POP PUSH2 0xB5 PUSH1 0x4 DUP1 CALLDATASIZE SUB DUP2 ADD SWAP1 PUSH2 0xB0 SWAP2 SWAP1 PUSH2 0x4CF JUMP JUMPDEST PUSH2 0x3AE JUMP JUMPDEST PUSH1 0x40 MLOAD PUSH2 0xC2 SWAP2 SWAP1 PUSH2 0x525 JUMP JUMPDEST PUSH1 0x40 MLOAD DUP1 SWAP2 SUB SWAP1 RETURN JUMPDEST DUP2 DUP2 CALLVALUE PUSH2 0xD8 DUP4 DUP4 PUSH2 0x3AE JUMP JUMPDEST EQ PUSH2 0x118 JUMPI PUSH1 0x40 MLOAD PUSH32 0x8C379A000000000000000000000000000000000000000000000000000000000 DUP2 MSTORE PUSH1 0x4 ADD PUSH2 0x10F SWAP1 PUSH2 0x598 JUMP JUMPDEST PUSH1 0x40 MLOAD DUP1 SWAP2 SUB SWAP1 REVERT JUMPDEST PUSH0 PUSH1 0x40 MLOAD DUP1 PUSH1 0x40 ADD PUSH1 0x40 MSTORE DUP1 DUP7 PUSH1 0x2 DUP2 GT ISZERO PUSH2 0x137 JUMPI PUSH2 0x136 PUSH2 0x5B6 JUMP JUMPDEST JUMPDEST DUP2 MSTORE PUSH1 0x20 ADD DUP6 PUSH1 0x2 DUP2 GT ISZERO PUSH2 0x14F JUMPI PUSH2 0x14E PUSH2 0x5B6 JUMP JUMPDEST JUMPDEST DUP2 MSTORE POP SWAP1 POP PUSH0 DUP1 CALLER PUSH20 0xFFFFFFFFFFFFFFFFFFFFFFFFFFFFFFFFFFFFFFFF AND PUSH20 0xFFFFFFFFFFFFFFFFFFFFFFFFFFFFFFFFFFFFFFFF AND DUP2 MSTORE PUSH1 0x20 ADD SWAP1 DUP2 MSTORE PUSH1 0x20 ADD PUSH0 KECCAK256 DUP2 SWAP1 DUP1 PUSH1 0x1 DUP2 SLOAD ADD DUP1 DUP3 SSTORE DUP1 SWAP2 POP POP PUSH1 0x1 SWAP1 SUB SWAP1 PUSH0 MSTORE PUSH1 0x20 PUSH0 KECCAK256 ADD PUSH0 SWAP1 SWAP2 SWAP1 SWAP2 SWAP1 SWAP2 POP PUSH0 DUP3 ADD MLOAD DUP2 PUSH0 ADD PUSH0 PUSH2 0x100 EXP DUP2 SLOAD DUP2 PUSH1 0xFF MUL NOT AND SWAP1 DUP4 PUSH1 0x2 DUP2 GT ISZERO PUSH2 0x1DB JUMPI PUSH2 0x1DA PUSH2 0x5B6 JUMP JUMPDEST JUMPDEST MUL OR SWAP1 SSTORE POP PUSH1 0x20 DUP3 ADD MLOAD DUP2 PUSH0 ADD PUSH1 0x1 PUSH2 0x100 EXP DUP2 SLOAD DUP2 PUSH1 0xFF MUL NOT AND SWAP1 DUP4 PUSH1 0x2 DUP2 GT ISZERO PUSH2 0x20A JUMPI PUSH2 0x209 PUSH2 0x5B6 JUMP JUMPDEST JUMPDEST MUL OR SWAP1 SSTORE POP POP POP POP POP POP POP POP JUMP JUMPDEST PUSH0 DUP1 PUSH0 JUMPDEST PUSH0 DUP1 CALLER PUSH20 0xFFFFFFFFFFFFFFFFFFFFFFFFFFFFFFFFFFFFFFFF AND PUSH20 0xFFFFFFFFFFFFFFFFFFFFFFFFFFFFFFFFFFFFFFFF AND DUP2 MSTORE PUSH1 0x20 ADD SWAP1 DUP2 MSTORE PUSH1 0x20 ADD PUSH0 KECCAK256 DUP1 SLOAD SWAP1 POP DUP2 LT ISZERO PUSH2 0x3A3 JUMPI DUP5 PUSH1 0x2 DUP2 GT ISZERO PUSH2 0x276 JUMPI PUSH2 0x275 PUSH2 0x5B6 JUMP JUMPDEST JUMPDEST PUSH0 DUP1 CALLER PUSH20 0xFFFFFFFFFFFFFFFFFFFFFFFFFFFFFFFFFFFFFFFF AND PUSH20 0xFFFFFFFFFFFFFFFFFFFFFFFFFFFFFFFFFFFFFFFF AND DUP2 MSTORE PUSH1 0x20 ADD SWAP1 DUP2 MSTORE PUSH1 0x20 ADD PUSH0 KECCAK256 DUP3 DUP2 SLOAD DUP2 LT PUSH2 0x2C4 JUMPI PUSH2 0x2C3 PUSH2 0x5E3 JUMP JUMPDEST JUMPDEST SWAP1 PUSH0 MSTORE PUSH1 0x20 PUSH0 KECCAK256 ADD PUSH0 ADD PUSH0 SWAP1 SLOAD SWAP1 PUSH2 0x100 EXP SWAP1 DIV PUSH1 0xFF AND PUSH1 0x2 DUP2 GT ISZERO PUSH2 0x2ED JUMPI PUSH2 0x2EC PUSH2 0x5B6 JUMP JUMPDEST JUMPDEST EQ DUP1 ISZERO PUSH2 0x382 JUMPI POP DUP4 PUSH1 0x2 DUP2 GT ISZERO PUSH2 0x308 JUMPI PUSH2 0x307 PUSH2 0x5B6 JUMP JUMPDEST JUMPDEST PUSH0 DUP1 CALLER PUSH20 0xFFFFFFFFFFFFFFFFFFFFFFFFFFFFFFFFFFFFFFFF AND PUSH20 0xFFFFFFFFFFFFFFFFFFFFFFFFFFFFFFFFFFFFFFFF AND DUP2 MSTORE PUSH1 0x20 ADD SWAP1 DUP2 MSTORE PUSH1 0x20 ADD PUSH0 KECCAK256 DUP3 DUP2 SLOAD DUP2 LT PUSH2 0x356 JUMPI PUSH2 0x355 PUSH2 0x5E3 JUMP JUMPDEST JUMPDEST SWAP1 PUSH0 MSTORE PUSH1 0x20 PUSH0 KECCAK256 ADD PUSH0 ADD PUSH1 0x1 SWAP1 SLOAD SWAP1 PUSH2 0x100 EXP SWAP1 DIV PUSH1 0xFF AND PUSH1 0x2 DUP2 GT ISZERO PUSH2 0x380 JUMPI PUSH2 0x37F PUSH2 0x5B6 JUMP JUMPDEST JUMPDEST EQ JUMPDEST ISZERO PUSH2 0x396 JUMPI DUP2 DUP1 PUSH2 0x392 SWAP1 PUSH2 0x63D JUMP JUMPDEST SWAP3 POP POP JUMPDEST DUP1 DUP1 PUSH1 0x1 ADD SWAP2 POP POP PUSH2 0x21C JUMP JUMPDEST POP DUP1 SWAP2 POP POP SWAP3 SWAP2 POP POP JUMP JUMPDEST PUSH0 DUP1 PUSH0 PUSH1 0x2 DUP2 GT ISZERO PUSH2 0x3C3 JUMPI PUSH2 0x3C2 PUSH2 0x5B6 JUMP JUMPDEST JUMPDEST DUP5 PUSH1 0x2 DUP2 GT ISZERO PUSH2 0x3D6 JUMPI PUSH2 0x3D5 PUSH2 0x5B6 JUMP JUMPDEST JUMPDEST SUB PUSH2 0x3EF JUMPI PUSH1 0xA DUP2 PUSH2 0x3E8 SWAP2 SWAP1 PUSH2 0x684 JUMP JUMPDEST SWAP1 POP PUSH2 0x440 JUMP JUMPDEST PUSH1 0x1 PUSH1 0x2 DUP2 GT ISZERO PUSH2 0x403 JUMPI PUSH2 0x402 PUSH2 0x5B6 JUMP JUMPDEST JUMPDEST DUP5 PUSH1 0x2 DUP2 GT ISZERO PUSH2 0x416 JUMPI PUSH2 0x415 PUSH2 0x5B6 JUMP JUMPDEST JUMPDEST SUB PUSH2 0x42F JUMPI PUSH1 0xF DUP2 PUSH2 0x428 SWAP2 SWAP1 PUSH2 0x684 JUMP JUMPDEST SWAP1 POP PUSH2 0x43F JUMP JUMPDEST PUSH1 0x14 DUP2 PUSH2 0x43C SWAP2 SWAP1 PUSH2 0x684 JUMP JUMPDEST SWAP1 POP JUMPDEST JUMPDEST PUSH0 PUSH1 0x2 DUP2 GT ISZERO PUSH2 0x453 JUMPI PUSH2 0x452 PUSH2 0x5B6 JUMP JUMPDEST JUMPDEST DUP4 PUSH1 0x2 DUP2 GT ISZERO PUSH2 0x466 JUMPI PUSH2 0x465 PUSH2 0x5B6 JUMP JUMPDEST JUMPDEST EQ PUSH2 0x47B JUMPI PUSH1 0x5 DUP2 PUSH2 0x478 SWAP2 SWAP1 PUSH2 0x684 JUMP JUMPDEST SWAP1 POP JUMPDEST DUP1 SWAP2 POP POP SWAP3 SWAP2 POP POP JUMP JUMPDEST PUSH0 DUP1 REVERT JUMPDEST PUSH1 0x3 DUP2 LT PUSH2 0x495 JUMPI PUSH0 DUP1 REVERT JUMPDEST POP JUMP JUMPDEST PUSH0 DUP2 CALLDATALOAD SWAP1 POP PUSH2 0x4A6 DUP2 PUSH2 0x489 JUMP JUMPDEST SWAP3 SWAP2 POP POP JUMP JUMPDEST PUSH1 0x3 DUP2 LT PUSH2 0x4B8 JUMPI PUSH0 DUP1 REVERT JUMPDEST POP JUMP JUMPDEST PUSH0 DUP2 CALLDATALOAD SWAP1 POP PUSH2 0x4C9 DUP2 PUSH2 0x4AC JUMP JUMPDEST SWAP3 SWAP2 POP POP JUMP JUMPDEST PUSH0 DUP1 PUSH1 0x40 DUP4 DUP6 SUB SLT ISZERO PUSH2 0x4E5 JUMPI PUSH2 0x4E4 PUSH2 0x485 JUMP JUMPDEST JUMPDEST PUSH0 PUSH2 0x4F2 DUP6 DUP3 DUP7 ADD PUSH2 0x498 JUMP JUMPDEST SWAP3 POP POP PUSH1 0x20 PUSH2 0x503 DUP6 DUP3 DUP7 ADD PUSH2 0x4BB JUMP JUMPDEST SWAP2 POP POP SWAP3 POP SWAP3 SWAP1 POP JUMP JUMPDEST PUSH0 DUP2 SWAP1 POP SWAP2 SWAP1 POP JUMP JUMPDEST PUSH2 0x51F DUP2 PUSH2 0x50D JUMP JUMPDEST DUP3 MSTORE POP POP JUMP JUMPDEST PUSH0 PUSH1 0x20 DUP3 ADD SWAP1 POP PUSH2 0x538 PUSH0 DUP4 ADD DUP5 PUSH2 0x516 JUMP JUMPDEST SWAP3 SWAP2 POP POP JUMP JUMPDEST PUSH0 DUP3 DUP3 MSTORE PUSH1 0x20 DUP3 ADD SWAP1 POP SWAP3 SWAP2 POP POP JUMP JUMPDEST PUSH32 0x496E636F727265637420616D6F756E742073656E740000000000000000000000 PUSH0 DUP3 ADD MSTORE POP JUMP JUMPDEST PUSH0 PUSH2 0x582 PUSH1 0x15 DUP4 PUSH2 0x53E JUMP JUMPDEST SWAP2 POP PUSH2 0x58D DUP3 PUSH2 0x54E JUMP JUMPDEST PUSH1 0x20 DUP3 ADD SWAP1 POP SWAP2 SWAP1 POP JUMP JUMPDEST PUSH0 PUSH1 0x20 DUP3 ADD SWAP1 POP DUP2 DUP2 SUB PUSH0 DUP4 ADD MSTORE PUSH2 0x5AF DUP2 PUSH2 0x576 JUMP JUMPDEST SWAP1 POP SWAP2 SWAP1 POP JUMP JUMPDEST PUSH32 0x4E487B7100000000000000000000000000000000000000000000000000000000 PUSH0 MSTORE PUSH1 0x21 PUSH1 0x4 MSTORE PUSH1 0x24 PUSH0 REVERT JUMPDEST PUSH32 0x4E487B7100000000000000000000000000000000000000000000000000000000 PUSH0 MSTORE PUSH1 0x32 PUSH1 0x4 MSTORE PUSH1 0x24 PUSH0 REVERT JUMPDEST PUSH32 0x4E487B7100000000000000000000000000000000000000000000000000000000 PUSH0 MSTORE PUSH1 0x11 PUSH1 0x4 MSTORE PUSH1 0x24 PUSH0 REVERT JUMPDEST PUSH0 PUSH2 0x647 DUP3 PUSH2 0x50D JUMP JUMPDEST SWAP2 POP PUSH32 0xFFFFFFFFFFFFFFFFFFFFFFFFFFFFFFFFFFFFFFFFFFFFFFFFFFFFFFFFFFFFFFFF DUP3 SUB PUSH2 0x679 JUMPI PUSH2 0x678 PUSH2 0x610 JUMP JUMPDEST JUMPDEST PUSH1 0x1 DUP3 ADD SWAP1 POP SWAP2 SWAP1 POP JUMP JUMPDEST PUSH0 PUSH2 0x68E DUP3 PUSH2 0x50D JUMP JUMPDEST SWAP2 POP PUSH2 0x699 DUP4 PUSH2 0x50D JUMP JUMPDEST SWAP3 POP DUP3 DUP3 ADD SWAP1 POP DUP1 DUP3 GT ISZERO PUSH2 0x6B1 JUMPI PUSH2 0x6B0 PUSH2 0x610 JUMP JUMPDEST JUMPDEST SWAP3 SWAP2 POP POP JUMP INVALID LOG2 PUSH5 0x6970667358 0x22 SLT KECCAK256 MSTORE8 CALL 0x4B 0xD6 0xEA 0xF8 PUSH8 0xD319CE048F8326A9 0xD DELEGATECALL 0xAD 0x2A 0xAD ADDRESS BALANCE DUP3 0xDF 0xF9 BALANCE CALLCODE 0xF7 0x4F PUSH17 0x18E064736F6C6343000819003300000000 "
				},
				"gasEstimates": {
					"creation": {
						"codeDepositCost": "354600",
						"executionCost": "391",
						"totalCost": "354991"
					},
					"external": {
						"buyShirt(uint8,uint8)": "infinite",
						"getShirtPrice(uint8,uint8)": "infinite",
						"getShirts(uint8,uint8)": "infinite"
					}
				},
				"methodIdentifiers": {
					"buyShirt(uint8,uint8)": "6aa283a5",
					"getShirtPrice(uint8,uint8)": "b97461d3",
					"getShirts(uint8,uint8)": "71cc64b4"
				}
			},
			"storageLayout": {
				"storage": [
					{
						"astId": 22,
						"contract": "5.FancyShirts.sol:FancyShirts",
						"label": "shirts",
						"offset": 0,
						"slot": "0",
						"type": "t_mapping(t_address,t_array(t_struct(Shirt)16_storage)dyn_storage)"
					}
				],
				"types": {
					"t_address": {
						"encoding": "inplace",
						"label": "address",
						"numberOfBytes": "20"
					},
					"t_array(t_struct(Shirt)16_storage)dyn_storage": {
						"base": "t_struct(Shirt)16_storage",
						"encoding": "dynamic_array",
						"label": "struct FancyShirts.Shirt[]",
						"numberOfBytes": "32"
					},
					"t_enum(Color)9": {
						"encoding": "inplace",
						"label": "enum FancyShirts.Color",
						"numberOfBytes": "1"
					},
					"t_enum(Size)5": {
						"encoding": "inplace",
						"label": "enum FancyShirts.Size",
						"numberOfBytes": "1"
					},
					"t_mapping(t_address,t_array(t_struct(Shirt)16_storage)dyn_storage)": {
						"encoding": "mapping",
						"key": "t_address",
						"label": "mapping(address => struct FancyShirts.Shirt[])",
						"numberOfBytes": "32",
						"value": "t_array(t_struct(Shirt)16_storage)dyn_storage"
					},
					"t_struct(Shirt)16_storage": {
						"encoding": "inplace",
						"label": "struct FancyShirts.Shirt",
						"members": [
							{
								"astId": 12,
								"contract": "5.FancyShirts.sol:FancyShirts",
								"label": "size",
								"offset": 0,
								"slot": "0",
								"type": "t_enum(Size)5"
							},
							{
								"astId": 15,
								"contract": "5.FancyShirts.sol:FancyShirts",
								"label": "color",
								"offset": 1,
								"slot": "0",
								"type": "t_enum(Color)9"
							}
						],
						"numberOfBytes": "32"
					}
				}
			},
			"userdoc": {
				"kind": "user",
				"methods": {},
				"version": 1
			}
		}
	}
}