{
	"9.Libraries.sol": {
		"Array": {
			"abi": [
				{
					"inputs": [
						{
							"internalType": "int256[]",
							"name": "numbers",
							"type": "int256[]"
						},
						{
							"internalType": "int256",
							"name": "target",
							"type": "int256"
						}
					],
					"name": "count",
					"outputs": [
						{
							"internalType": "uint256",
							"name": "",
							"type": "uint256"
						}
					],
					"stateMutability": "pure",
					"type": "function"
				},
				{
					"inputs": [
						{
							"internalType": "int256[]",
							"name": "numbers",
							"type": "int256[]"
						},
						{
							"internalType": "int256",
							"name": "target",
							"type": "int256"
						}
					],
					"name": "indexOf",
					"outputs": [
						{
							"internalType": "int256",
							"name": "",
							"type": "int256"
						}
					],
					"stateMutability": "pure",
					"type": "function"
				},
				{
					"inputs": [
						{
							"internalType": "int256[]",
							"name": "numbers",
							"type": "int256[]"
						}
					],
					"name": "sum",
					"outputs": [
						{
							"internalType": "int256",
							"name": "",
							"type": "int256"
						}
					],
					"stateMutability": "pure",
					"type": "function"
				}
			],
			"devdoc": {
				"kind": "dev",
				"methods": {},
				"version": 1
			},
			"evm": {
				"assembly": "    /* \"9.Libraries.sol\":60:1076  library Array {... */\n  dataSize(sub_0)\n  dataOffset(sub_0)\n  0x0b\n  dup3\n  dup3\n  dup3\n  codecopy\n  dup1\n  mload\n  0x00\n  byte\n  0x73\n  eq\n  tag_1\n  jumpi\n  mstore(0x00, 0x4e487b7100000000000000000000000000000000000000000000000000000000)\n  mstore(0x04, 0x00)\n  revert(0x00, 0x24)\ntag_1:\n  mstore(0x00, address)\n  0x73\n  dup2\n  mstore8\n  dup3\n  dup2\n  return\nstop\n\nsub_0: assembly {\n        /* \"9.Libraries.sol\":60:1076  library Array {... */\n      eq(address, deployTimeAddress())\n      mstore(0x40, 0x80)\n      jumpi(tag_1, lt(calldatasize, 0x04))\n      shr(0xe0, calldataload(0x00))\n      dup1\n      0x3410e3f8\n      eq\n      tag_2\n      jumpi\n      dup1\n      0x60cb66d0\n      eq\n      tag_3\n      jumpi\n      dup1\n      0x6f5735fc\n      eq\n      tag_4\n      jumpi\n    tag_1:\n      0x00\n      dup1\n      revert\n        /* \"9.Libraries.sol\":110:407  function indexOf(int256[] memory numbers, int256 target)... */\n    tag_2:\n      tag_5\n      0x04\n      dup1\n      calldatasize\n      sub\n      dup2\n      add\n      swap1\n      tag_6\n      swap2\n      swap1\n      tag_7\n      jump\t// in\n    tag_6:\n      tag_8\n      jump\t// in\n    tag_5:\n      mload(0x40)\n      tag_9\n      swap2\n      swap1\n      tag_10\n      jump\t// in\n    tag_9:\n      mload(0x40)\n      dup1\n      swap2\n      sub\n      swap1\n      return\n        /* \"9.Libraries.sol\":740:1073  function sum(int256[] memory numbers)... */\n    tag_3:\n      tag_11\n      0x04\n      dup1\n      calldatasize\n      sub\n      dup2\n      add\n      swap1\n      tag_12\n      swap2\n      swap1\n      tag_13\n      jump\t// in\n    tag_12:\n      tag_14\n      jump\t// in\n    tag_11:\n      mload(0x40)\n      tag_15\n      swap2\n      swap1\n      tag_10\n      jump\t// in\n    tag_15:\n      mload(0x40)\n      dup1\n      swap2\n      sub\n      swap1\n      return\n        /* \"9.Libraries.sol\":415:732  function count(int256[] memory numbers, int target)... */\n    tag_4:\n      tag_16\n      0x04\n      dup1\n      calldatasize\n      sub\n      dup2\n      add\n      swap1\n      tag_17\n      swap2\n      swap1\n      tag_7\n      jump\t// in\n    tag_17:\n      tag_18\n      jump\t// in\n    tag_16:\n      mload(0x40)\n      tag_19\n      swap2\n      swap1\n      tag_20\n      jump\t// in\n    tag_19:\n      mload(0x40)\n      dup1\n      swap2\n      sub\n      swap1\n      return\n        /* \"9.Libraries.sol\":110:407  function indexOf(int256[] memory numbers, int256 target)... */\n    tag_8:\n        /* \"9.Libraries.sol\":214:220  int256 */\n      0x00\n        /* \"9.Libraries.sol\":242:251  uint256 i */\n      dup1\n        /* \"9.Libraries.sol\":238:380  for(uint256 i; i < numbers.length; i++) {... */\n    tag_22:\n        /* \"9.Libraries.sol\":257:264  numbers */\n      dup4\n        /* \"9.Libraries.sol\":257:271  numbers.length */\n      mload\n        /* \"9.Libraries.sol\":253:254  i */\n      dup2\n        /* \"9.Libraries.sol\":253:271  i < numbers.length */\n      lt\n        /* \"9.Libraries.sol\":238:380  for(uint256 i; i < numbers.length; i++) {... */\n      iszero\n      tag_23\n      jumpi\n        /* \"9.Libraries.sol\":310:316  target */\n      dup3\n        /* \"9.Libraries.sol\":296:303  numbers */\n      dup5\n        /* \"9.Libraries.sol\":304:305  i */\n      dup3\n        /* \"9.Libraries.sol\":296:306  numbers[i] */\n      dup2\n      mload\n      dup2\n      lt\n      tag_25\n      jumpi\n      tag_26\n      tag_27\n      jump\t// in\n    tag_26:\n    tag_25:\n      0x20\n      mul\n      0x20\n      add\n      add\n      mload\n        /* \"9.Libraries.sol\":296:316  numbers[i] == target */\n      sub\n        /* \"9.Libraries.sol\":293:369  if(numbers[i] == target) {... */\n      tag_28\n      jumpi\n        /* \"9.Libraries.sol\":351:352  i */\n      dup1\n        /* \"9.Libraries.sol\":337:353  return int256(i) */\n      swap2\n      pop\n      pop\n      jump(tag_21)\n        /* \"9.Libraries.sol\":293:369  if(numbers[i] == target) {... */\n    tag_28:\n        /* \"9.Libraries.sol\":273:276  i++ */\n      dup1\n      dup1\n      0x01\n      add\n      swap2\n      pop\n      pop\n        /* \"9.Libraries.sol\":238:380  for(uint256 i; i < numbers.length; i++) {... */\n      jump(tag_22)\n    tag_23:\n      pop\n        /* \"9.Libraries.sol\":397:399  -1 */\n      0xffffffffffffffffffffffffffffffffffffffffffffffffffffffffffffffff\n        /* \"9.Libraries.sol\":390:399  return -1 */\n      swap1\n      pop\n        /* \"9.Libraries.sol\":110:407  function indexOf(int256[] memory numbers, int256 target)... */\n    tag_21:\n      swap3\n      swap2\n      pop\n      pop\n      jump\t// out\n        /* \"9.Libraries.sol\":740:1073  function sum(int256[] memory numbers)... */\n    tag_14:\n        /* \"9.Libraries.sol\":825:831  int256 */\n      0x00\n        /* \"9.Libraries.sol\":870:871  0 */\n      dup1\n        /* \"9.Libraries.sol\":852:859  numbers */\n      dup3\n        /* \"9.Libraries.sol\":852:866  numbers.length */\n      mload\n        /* \"9.Libraries.sol\":852:871  numbers.length == 0 */\n      sub\n        /* \"9.Libraries.sol\":849:908  if(numbers.length == 0) {... */\n      tag_30\n      jumpi\n        /* \"9.Libraries.sol\":895:896  0 */\n      0x00\n        /* \"9.Libraries.sol\":888:896  return 0 */\n      swap1\n      pop\n      jump(tag_29)\n        /* \"9.Libraries.sol\":849:908  if(numbers.length == 0) {... */\n    tag_30:\n        /* \"9.Libraries.sol\":924:936  int256 adder */\n      0x00\n        /* \"9.Libraries.sol\":951:960  uint256 i */\n      dup1\n        /* \"9.Libraries.sol\":947:1033  for(uint256 i; i < numbers.length; i++) {... */\n    tag_31:\n        /* \"9.Libraries.sol\":966:973  numbers */\n      dup4\n        /* \"9.Libraries.sol\":966:980  numbers.length */\n      mload\n        /* \"9.Libraries.sol\":962:963  i */\n      dup2\n        /* \"9.Libraries.sol\":962:980  i < numbers.length */\n      lt\n        /* \"9.Libraries.sol\":947:1033  for(uint256 i; i < numbers.length; i++) {... */\n      iszero\n      tag_32\n      jumpi\n        /* \"9.Libraries.sol\":1011:1018  numbers */\n      dup4\n        /* \"9.Libraries.sol\":1019:1020  i */\n      dup2\n        /* \"9.Libraries.sol\":1011:1021  numbers[i] */\n      dup2\n      mload\n      dup2\n      lt\n      tag_34\n      jumpi\n      tag_35\n      tag_27\n      jump\t// in\n    tag_35:\n    tag_34:\n      0x20\n      mul\n      0x20\n      add\n      add\n      mload\n        /* \"9.Libraries.sol\":1002:1021  adder += numbers[i] */\n      dup3\n      tag_36\n      swap2\n      swap1\n      tag_37\n      jump\t// in\n    tag_36:\n      swap2\n      pop\n        /* \"9.Libraries.sol\":982:985  i++ */\n      dup1\n      dup1\n      0x01\n      add\n      swap2\n      pop\n      pop\n        /* \"9.Libraries.sol\":947:1033  for(uint256 i; i < numbers.length; i++) {... */\n      jump(tag_31)\n    tag_32:\n      pop\n        /* \"9.Libraries.sol\":1060:1065  adder */\n      dup1\n        /* \"9.Libraries.sol\":1053:1065  return adder */\n      swap2\n      pop\n      pop\n        /* \"9.Libraries.sol\":740:1073  function sum(int256[] memory numbers)... */\n    tag_29:\n      swap2\n      swap1\n      pop\n      jump\t// out\n        /* \"9.Libraries.sol\":415:732  function count(int256[] memory numbers, int target)... */\n    tag_18:\n        /* \"9.Libraries.sol\":514:521  uint256 */\n      0x00\n        /* \"9.Libraries.sol\":539:554  uint256 counter */\n      dup1\n        /* \"9.Libraries.sol\":569:578  uint256 i */\n      0x00\n        /* \"9.Libraries.sol\":565:700  for(uint256 i; i < numbers.length; i++) {... */\n    tag_39:\n        /* \"9.Libraries.sol\":584:591  numbers */\n      dup5\n        /* \"9.Libraries.sol\":584:598  numbers.length */\n      mload\n        /* \"9.Libraries.sol\":580:581  i */\n      dup2\n        /* \"9.Libraries.sol\":580:598  i < numbers.length */\n      lt\n        /* \"9.Libraries.sol\":565:700  for(uint256 i; i < numbers.length; i++) {... */\n      iszero\n      tag_40\n      jumpi\n        /* \"9.Libraries.sol\":637:643  target */\n      dup4\n        /* \"9.Libraries.sol\":623:630  numbers */\n      dup6\n        /* \"9.Libraries.sol\":631:632  i */\n      dup3\n        /* \"9.Libraries.sol\":623:633  numbers[i] */\n      dup2\n      mload\n      dup2\n      lt\n      tag_42\n      jumpi\n      tag_43\n      tag_27\n      jump\t// in\n    tag_43:\n    tag_42:\n      0x20\n      mul\n      0x20\n      add\n      add\n      mload\n        /* \"9.Libraries.sol\":623:643  numbers[i] == target */\n      sub\n        /* \"9.Libraries.sol\":620:689  if(numbers[i] == target) {... */\n      tag_44\n      jumpi\n        /* \"9.Libraries.sol\":664:673  counter++ */\n      dup2\n      dup1\n      tag_45\n      swap1\n      tag_46\n      jump\t// in\n    tag_45:\n      swap3\n      pop\n      pop\n        /* \"9.Libraries.sol\":620:689  if(numbers[i] == target) {... */\n    tag_44:\n        /* \"9.Libraries.sol\":600:603  i++ */\n      dup1\n      dup1\n      0x01\n      add\n      swap2\n      pop\n      pop\n        /* \"9.Libraries.sol\":565:700  for(uint256 i; i < numbers.length; i++) {... */\n      jump(tag_39)\n    tag_40:\n      pop\n        /* \"9.Libraries.sol\":717:724  counter */\n      dup1\n        /* \"9.Libraries.sol\":710:724  return counter */\n      swap2\n      pop\n      pop\n        /* \"9.Libraries.sol\":415:732  function count(int256[] memory numbers, int target)... */\n      swap3\n      swap2\n      pop\n      pop\n      jump\t// out\n        /* \"#utility.yul\":7:82   */\n    tag_47:\n        /* \"#utility.yul\":40:46   */\n      0x00\n        /* \"#utility.yul\":73:75   */\n      0x40\n        /* \"#utility.yul\":67:76   */\n      mload\n        /* \"#utility.yul\":57:76   */\n      swap1\n      pop\n        /* \"#utility.yul\":7:82   */\n      swap1\n      jump\t// out\n        /* \"#utility.yul\":88:205   */\n    tag_48:\n        /* \"#utility.yul\":197:198   */\n      0x00\n        /* \"#utility.yul\":194:195   */\n      dup1\n        /* \"#utility.yul\":187:199   */\n      revert\n        /* \"#utility.yul\":211:328   */\n    tag_49:\n        /* \"#utility.yul\":320:321   */\n      0x00\n        /* \"#utility.yul\":317:318   */\n      dup1\n        /* \"#utility.yul\":310:322   */\n      revert\n        /* \"#utility.yul\":334:451   */\n    tag_50:\n        /* \"#utility.yul\":443:444   */\n      0x00\n        /* \"#utility.yul\":440:441   */\n      dup1\n        /* \"#utility.yul\":433:445   */\n      revert\n        /* \"#utility.yul\":457:559   */\n    tag_51:\n        /* \"#utility.yul\":498:504   */\n      0x00\n        /* \"#utility.yul\":549:551   */\n      0x1f\n        /* \"#utility.yul\":545:552   */\n      not\n        /* \"#utility.yul\":540:542   */\n      0x1f\n        /* \"#utility.yul\":533:538   */\n      dup4\n        /* \"#utility.yul\":529:543   */\n      add\n        /* \"#utility.yul\":525:553   */\n      and\n        /* \"#utility.yul\":515:553   */\n      swap1\n      pop\n        /* \"#utility.yul\":457:559   */\n      swap2\n      swap1\n      pop\n      jump\t// out\n        /* \"#utility.yul\":565:745   */\n    tag_52:\n        /* \"#utility.yul\":613:690   */\n      0x4e487b7100000000000000000000000000000000000000000000000000000000\n        /* \"#utility.yul\":610:611   */\n      0x00\n        /* \"#utility.yul\":603:691   */\n      mstore\n        /* \"#utility.yul\":710:714   */\n      0x41\n        /* \"#utility.yul\":707:708   */\n      0x04\n        /* \"#utility.yul\":700:715   */\n      mstore\n        /* \"#utility.yul\":734:738   */\n      0x24\n        /* \"#utility.yul\":731:732   */\n      0x00\n        /* \"#utility.yul\":724:739   */\n      revert\n        /* \"#utility.yul\":751:1032   */\n    tag_53:\n        /* \"#utility.yul\":834:861   */\n      tag_74\n        /* \"#utility.yul\":856:860   */\n      dup3\n        /* \"#utility.yul\":834:861   */\n      tag_51\n      jump\t// in\n    tag_74:\n        /* \"#utility.yul\":826:832   */\n      dup2\n        /* \"#utility.yul\":822:862   */\n      add\n        /* \"#utility.yul\":964:970   */\n      dup2\n        /* \"#utility.yul\":952:962   */\n      dup2\n        /* \"#utility.yul\":949:971   */\n      lt\n        /* \"#utility.yul\":928:946   */\n      0xffffffffffffffff\n        /* \"#utility.yul\":916:926   */\n      dup3\n        /* \"#utility.yul\":913:947   */\n      gt\n        /* \"#utility.yul\":910:972   */\n      or\n        /* \"#utility.yul\":907:995   */\n      iszero\n      tag_75\n      jumpi\n        /* \"#utility.yul\":975:993   */\n      tag_76\n      tag_52\n      jump\t// in\n    tag_76:\n        /* \"#utility.yul\":907:995   */\n    tag_75:\n        /* \"#utility.yul\":1015:1025   */\n      dup1\n        /* \"#utility.yul\":1011:1013   */\n      0x40\n        /* \"#utility.yul\":1004:1026   */\n      mstore\n        /* \"#utility.yul\":794:1032   */\n      pop\n        /* \"#utility.yul\":751:1032   */\n      pop\n      pop\n      jump\t// out\n        /* \"#utility.yul\":1038:1167   */\n    tag_54:\n        /* \"#utility.yul\":1072:1078   */\n      0x00\n        /* \"#utility.yul\":1099:1119   */\n      tag_78\n      tag_47\n      jump\t// in\n    tag_78:\n        /* \"#utility.yul\":1089:1119   */\n      swap1\n      pop\n        /* \"#utility.yul\":1128:1161   */\n      tag_79\n        /* \"#utility.yul\":1156:1160   */\n      dup3\n        /* \"#utility.yul\":1148:1154   */\n      dup3\n        /* \"#utility.yul\":1128:1161   */\n      tag_53\n      jump\t// in\n    tag_79:\n        /* \"#utility.yul\":1038:1167   */\n      swap2\n      swap1\n      pop\n      jump\t// out\n        /* \"#utility.yul\":1173:1483   */\n    tag_55:\n        /* \"#utility.yul\":1249:1253   */\n      0x00\n        /* \"#utility.yul\":1339:1357   */\n      0xffffffffffffffff\n        /* \"#utility.yul\":1331:1337   */\n      dup3\n        /* \"#utility.yul\":1328:1358   */\n      gt\n        /* \"#utility.yul\":1325:1381   */\n      iszero\n      tag_81\n      jumpi\n        /* \"#utility.yul\":1361:1379   */\n      tag_82\n      tag_52\n      jump\t// in\n    tag_82:\n        /* \"#utility.yul\":1325:1381   */\n    tag_81:\n        /* \"#utility.yul\":1411:1415   */\n      0x20\n        /* \"#utility.yul\":1403:1409   */\n      dup3\n        /* \"#utility.yul\":1399:1416   */\n      mul\n        /* \"#utility.yul\":1391:1416   */\n      swap1\n      pop\n        /* \"#utility.yul\":1471:1475   */\n      0x20\n        /* \"#utility.yul\":1465:1469   */\n      dup2\n        /* \"#utility.yul\":1461:1476   */\n      add\n        /* \"#utility.yul\":1453:1476   */\n      swap1\n      pop\n        /* \"#utility.yul\":1173:1483   */\n      swap2\n      swap1\n      pop\n      jump\t// out\n        /* \"#utility.yul\":1489:1606   */\n    tag_56:\n        /* \"#utility.yul\":1598:1599   */\n      0x00\n        /* \"#utility.yul\":1595:1596   */\n      dup1\n        /* \"#utility.yul\":1588:1600   */\n      revert\n        /* \"#utility.yul\":1612:1688   */\n    tag_57:\n        /* \"#utility.yul\":1648:1655   */\n      0x00\n        /* \"#utility.yul\":1677:1682   */\n      dup2\n        /* \"#utility.yul\":1666:1682   */\n      swap1\n      pop\n        /* \"#utility.yul\":1612:1688   */\n      swap2\n      swap1\n      pop\n      jump\t// out\n        /* \"#utility.yul\":1694:1814   */\n    tag_58:\n        /* \"#utility.yul\":1766:1789   */\n      tag_86\n        /* \"#utility.yul\":1783:1788   */\n      dup2\n        /* \"#utility.yul\":1766:1789   */\n      tag_57\n      jump\t// in\n    tag_86:\n        /* \"#utility.yul\":1759:1764   */\n      dup2\n        /* \"#utility.yul\":1756:1790   */\n      eq\n        /* \"#utility.yul\":1746:1808   */\n      tag_87\n      jumpi\n        /* \"#utility.yul\":1804:1805   */\n      0x00\n        /* \"#utility.yul\":1801:1802   */\n      dup1\n        /* \"#utility.yul\":1794:1806   */\n      revert\n        /* \"#utility.yul\":1746:1808   */\n    tag_87:\n        /* \"#utility.yul\":1694:1814   */\n      pop\n      jump\t// out\n        /* \"#utility.yul\":1820:1957   */\n    tag_59:\n        /* \"#utility.yul\":1865:1870   */\n      0x00\n        /* \"#utility.yul\":1903:1909   */\n      dup2\n        /* \"#utility.yul\":1890:1910   */\n      calldataload\n        /* \"#utility.yul\":1881:1910   */\n      swap1\n      pop\n        /* \"#utility.yul\":1919:1951   */\n      tag_89\n        /* \"#utility.yul\":1945:1950   */\n      dup2\n        /* \"#utility.yul\":1919:1951   */\n      tag_58\n      jump\t// in\n    tag_89:\n        /* \"#utility.yul\":1820:1957   */\n      swap3\n      swap2\n      pop\n      pop\n      jump\t// out\n        /* \"#utility.yul\":1979:2686   */\n    tag_60:\n        /* \"#utility.yul\":2074:2079   */\n      0x00\n        /* \"#utility.yul\":2099:2179   */\n      tag_91\n        /* \"#utility.yul\":2115:2178   */\n      tag_92\n        /* \"#utility.yul\":2171:2177   */\n      dup5\n        /* \"#utility.yul\":2115:2178   */\n      tag_55\n      jump\t// in\n    tag_92:\n        /* \"#utility.yul\":2099:2179   */\n      tag_54\n      jump\t// in\n    tag_91:\n        /* \"#utility.yul\":2090:2179   */\n      swap1\n      pop\n        /* \"#utility.yul\":2199:2204   */\n      dup1\n        /* \"#utility.yul\":2228:2234   */\n      dup4\n        /* \"#utility.yul\":2221:2226   */\n      dup3\n        /* \"#utility.yul\":2214:2235   */\n      mstore\n        /* \"#utility.yul\":2262:2266   */\n      0x20\n        /* \"#utility.yul\":2255:2260   */\n      dup3\n        /* \"#utility.yul\":2251:2267   */\n      add\n        /* \"#utility.yul\":2244:2267   */\n      swap1\n      pop\n        /* \"#utility.yul\":2315:2319   */\n      0x20\n        /* \"#utility.yul\":2307:2313   */\n      dup5\n        /* \"#utility.yul\":2303:2320   */\n      mul\n        /* \"#utility.yul\":2295:2301   */\n      dup4\n        /* \"#utility.yul\":2291:2321   */\n      add\n        /* \"#utility.yul\":2344:2347   */\n      dup6\n        /* \"#utility.yul\":2336:2342   */\n      dup2\n        /* \"#utility.yul\":2333:2348   */\n      gt\n        /* \"#utility.yul\":2330:2452   */\n      iszero\n      tag_93\n      jumpi\n        /* \"#utility.yul\":2363:2442   */\n      tag_94\n      tag_56\n      jump\t// in\n    tag_94:\n        /* \"#utility.yul\":2330:2452   */\n    tag_93:\n        /* \"#utility.yul\":2478:2484   */\n      dup4\n        /* \"#utility.yul\":2461:2680   */\n    tag_95:\n        /* \"#utility.yul\":2495:2501   */\n      dup2\n        /* \"#utility.yul\":2490:2493   */\n      dup2\n        /* \"#utility.yul\":2487:2502   */\n      lt\n        /* \"#utility.yul\":2461:2680   */\n      iszero\n      tag_97\n      jumpi\n        /* \"#utility.yul\":2570:2573   */\n      dup1\n        /* \"#utility.yul\":2599:2635   */\n      tag_98\n        /* \"#utility.yul\":2631:2634   */\n      dup9\n        /* \"#utility.yul\":2619:2629   */\n      dup3\n        /* \"#utility.yul\":2599:2635   */\n      tag_59\n      jump\t// in\n    tag_98:\n        /* \"#utility.yul\":2594:2597   */\n      dup5\n        /* \"#utility.yul\":2587:2636   */\n      mstore\n        /* \"#utility.yul\":2665:2669   */\n      0x20\n        /* \"#utility.yul\":2660:2663   */\n      dup5\n        /* \"#utility.yul\":2656:2670   */\n      add\n        /* \"#utility.yul\":2649:2670   */\n      swap4\n      pop\n        /* \"#utility.yul\":2537:2680   */\n      pop\n        /* \"#utility.yul\":2521:2525   */\n      0x20\n        /* \"#utility.yul\":2516:2519   */\n      dup2\n        /* \"#utility.yul\":2512:2526   */\n      add\n        /* \"#utility.yul\":2505:2526   */\n      swap1\n      pop\n        /* \"#utility.yul\":2461:2680   */\n      jump(tag_95)\n    tag_97:\n        /* \"#utility.yul\":2465:2486   */\n      pop\n        /* \"#utility.yul\":2080:2686   */\n      pop\n      pop\n        /* \"#utility.yul\":1979:2686   */\n      swap4\n      swap3\n      pop\n      pop\n      pop\n      jump\t// out\n        /* \"#utility.yul\":2708:3076   */\n    tag_61:\n        /* \"#utility.yul\":2778:2783   */\n      0x00\n        /* \"#utility.yul\":2827:2830   */\n      dup3\n        /* \"#utility.yul\":2820:2824   */\n      0x1f\n        /* \"#utility.yul\":2812:2818   */\n      dup4\n        /* \"#utility.yul\":2808:2825   */\n      add\n        /* \"#utility.yul\":2804:2831   */\n      slt\n        /* \"#utility.yul\":2794:2916   */\n      tag_100\n      jumpi\n        /* \"#utility.yul\":2835:2914   */\n      tag_101\n      tag_50\n      jump\t// in\n    tag_101:\n        /* \"#utility.yul\":2794:2916   */\n    tag_100:\n        /* \"#utility.yul\":2952:2958   */\n      dup2\n        /* \"#utility.yul\":2939:2959   */\n      calldataload\n        /* \"#utility.yul\":2977:3070   */\n      tag_102\n        /* \"#utility.yul\":3066:3069   */\n      dup5\n        /* \"#utility.yul\":3058:3064   */\n      dup3\n        /* \"#utility.yul\":3051:3055   */\n      0x20\n        /* \"#utility.yul\":3043:3049   */\n      dup7\n        /* \"#utility.yul\":3039:3056   */\n      add\n        /* \"#utility.yul\":2977:3070   */\n      tag_60\n      jump\t// in\n    tag_102:\n        /* \"#utility.yul\":2968:3070   */\n      swap2\n      pop\n        /* \"#utility.yul\":2784:3076   */\n      pop\n        /* \"#utility.yul\":2708:3076   */\n      swap3\n      swap2\n      pop\n      pop\n      jump\t// out\n        /* \"#utility.yul\":3082:3762   */\n    tag_7:\n        /* \"#utility.yul\":3173:3179   */\n      0x00\n        /* \"#utility.yul\":3181:3187   */\n      dup1\n        /* \"#utility.yul\":3230:3232   */\n      0x40\n        /* \"#utility.yul\":3218:3227   */\n      dup4\n        /* \"#utility.yul\":3209:3216   */\n      dup6\n        /* \"#utility.yul\":3205:3228   */\n      sub\n        /* \"#utility.yul\":3201:3233   */\n      slt\n        /* \"#utility.yul\":3198:3317   */\n      iszero\n      tag_104\n      jumpi\n        /* \"#utility.yul\":3236:3315   */\n      tag_105\n      tag_48\n      jump\t// in\n    tag_105:\n        /* \"#utility.yul\":3198:3317   */\n    tag_104:\n        /* \"#utility.yul\":3384:3385   */\n      0x00\n        /* \"#utility.yul\":3373:3382   */\n      dup4\n        /* \"#utility.yul\":3369:3386   */\n      add\n        /* \"#utility.yul\":3356:3387   */\n      calldataload\n        /* \"#utility.yul\":3414:3432   */\n      0xffffffffffffffff\n        /* \"#utility.yul\":3406:3412   */\n      dup2\n        /* \"#utility.yul\":3403:3433   */\n      gt\n        /* \"#utility.yul\":3400:3517   */\n      iszero\n      tag_106\n      jumpi\n        /* \"#utility.yul\":3436:3515   */\n      tag_107\n      tag_49\n      jump\t// in\n    tag_107:\n        /* \"#utility.yul\":3400:3517   */\n    tag_106:\n        /* \"#utility.yul\":3541:3618   */\n      tag_108\n        /* \"#utility.yul\":3610:3617   */\n      dup6\n        /* \"#utility.yul\":3601:3607   */\n      dup3\n        /* \"#utility.yul\":3590:3599   */\n      dup7\n        /* \"#utility.yul\":3586:3608   */\n      add\n        /* \"#utility.yul\":3541:3618   */\n      tag_61\n      jump\t// in\n    tag_108:\n        /* \"#utility.yul\":3531:3618   */\n      swap3\n      pop\n        /* \"#utility.yul\":3327:3628   */\n      pop\n        /* \"#utility.yul\":3667:3669   */\n      0x20\n        /* \"#utility.yul\":3693:3745   */\n      tag_109\n        /* \"#utility.yul\":3737:3744   */\n      dup6\n        /* \"#utility.yul\":3728:3734   */\n      dup3\n        /* \"#utility.yul\":3717:3726   */\n      dup7\n        /* \"#utility.yul\":3713:3735   */\n      add\n        /* \"#utility.yul\":3693:3745   */\n      tag_59\n      jump\t// in\n    tag_109:\n        /* \"#utility.yul\":3683:3745   */\n      swap2\n      pop\n        /* \"#utility.yul\":3638:3755   */\n      pop\n        /* \"#utility.yul\":3082:3762   */\n      swap3\n      pop\n      swap3\n      swap1\n      pop\n      jump\t// out\n        /* \"#utility.yul\":3768:3891   */\n    tag_62:\n        /* \"#utility.yul\":3861:3884   */\n      tag_111\n        /* \"#utility.yul\":3878:3883   */\n      dup2\n        /* \"#utility.yul\":3861:3884   */\n      tag_57\n      jump\t// in\n    tag_111:\n        /* \"#utility.yul\":3856:3859   */\n      dup3\n        /* \"#utility.yul\":3849:3885   */\n      mstore\n        /* \"#utility.yul\":3768:3891   */\n      pop\n      pop\n      jump\t// out\n        /* \"#utility.yul\":3897:4131   */\n    tag_10:\n        /* \"#utility.yul\":3996:4000   */\n      0x00\n        /* \"#utility.yul\":4034:4036   */\n      0x20\n        /* \"#utility.yul\":4023:4032   */\n      dup3\n        /* \"#utility.yul\":4019:4037   */\n      add\n        /* \"#utility.yul\":4011:4037   */\n      swap1\n      pop\n        /* \"#utility.yul\":4047:4124   */\n      tag_113\n        /* \"#utility.yul\":4121:4122   */\n      0x00\n        /* \"#utility.yul\":4110:4119   */\n      dup4\n        /* \"#utility.yul\":4106:4123   */\n      add\n        /* \"#utility.yul\":4097:4103   */\n      dup5\n        /* \"#utility.yul\":4047:4124   */\n      tag_62\n      jump\t// in\n    tag_113:\n        /* \"#utility.yul\":3897:4131   */\n      swap3\n      swap2\n      pop\n      pop\n      jump\t// out\n        /* \"#utility.yul\":4137:4674   */\n    tag_13:\n        /* \"#utility.yul\":4220:4226   */\n      0x00\n        /* \"#utility.yul\":4269:4271   */\n      0x20\n        /* \"#utility.yul\":4257:4266   */\n      dup3\n        /* \"#utility.yul\":4248:4255   */\n      dup5\n        /* \"#utility.yul\":4244:4267   */\n      sub\n        /* \"#utility.yul\":4240:4272   */\n      slt\n        /* \"#utility.yul\":4237:4356   */\n      iszero\n      tag_115\n      jumpi\n        /* \"#utility.yul\":4275:4354   */\n      tag_116\n      tag_48\n      jump\t// in\n    tag_116:\n        /* \"#utility.yul\":4237:4356   */\n    tag_115:\n        /* \"#utility.yul\":4423:4424   */\n      0x00\n        /* \"#utility.yul\":4412:4421   */\n      dup3\n        /* \"#utility.yul\":4408:4425   */\n      add\n        /* \"#utility.yul\":4395:4426   */\n      calldataload\n        /* \"#utility.yul\":4453:4471   */\n      0xffffffffffffffff\n        /* \"#utility.yul\":4445:4451   */\n      dup2\n        /* \"#utility.yul\":4442:4472   */\n      gt\n        /* \"#utility.yul\":4439:4556   */\n      iszero\n      tag_117\n      jumpi\n        /* \"#utility.yul\":4475:4554   */\n      tag_118\n      tag_49\n      jump\t// in\n    tag_118:\n        /* \"#utility.yul\":4439:4556   */\n    tag_117:\n        /* \"#utility.yul\":4580:4657   */\n      tag_119\n        /* \"#utility.yul\":4649:4656   */\n      dup5\n        /* \"#utility.yul\":4640:4646   */\n      dup3\n        /* \"#utility.yul\":4629:4638   */\n      dup6\n        /* \"#utility.yul\":4625:4647   */\n      add\n        /* \"#utility.yul\":4580:4657   */\n      tag_61\n      jump\t// in\n    tag_119:\n        /* \"#utility.yul\":4570:4657   */\n      swap2\n      pop\n        /* \"#utility.yul\":4366:4667   */\n      pop\n        /* \"#utility.yul\":4137:4674   */\n      swap3\n      swap2\n      pop\n      pop\n      jump\t// out\n        /* \"#utility.yul\":4680:4757   */\n    tag_63:\n        /* \"#utility.yul\":4717:4724   */\n      0x00\n        /* \"#utility.yul\":4746:4751   */\n      dup2\n        /* \"#utility.yul\":4735:4751   */\n      swap1\n      pop\n        /* \"#utility.yul\":4680:4757   */\n      swap2\n      swap1\n      pop\n      jump\t// out\n        /* \"#utility.yul\":4763:4889   */\n    tag_64:\n        /* \"#utility.yul\":4858:4882   */\n      tag_122\n        /* \"#utility.yul\":4876:4881   */\n      dup2\n        /* \"#utility.yul\":4858:4882   */\n      tag_63\n      jump\t// in\n    tag_122:\n        /* \"#utility.yul\":4853:4856   */\n      dup3\n        /* \"#utility.yul\":4846:4883   */\n      mstore\n        /* \"#utility.yul\":4763:4889   */\n      pop\n      pop\n      jump\t// out\n        /* \"#utility.yul\":4895:5133   */\n    tag_20:\n        /* \"#utility.yul\":4996:5000   */\n      0x00\n        /* \"#utility.yul\":5034:5036   */\n      0x20\n        /* \"#utility.yul\":5023:5032   */\n      dup3\n        /* \"#utility.yul\":5019:5037   */\n      add\n        /* \"#utility.yul\":5011:5037   */\n      swap1\n      pop\n        /* \"#utility.yul\":5047:5126   */\n      tag_124\n        /* \"#utility.yul\":5123:5124   */\n      0x00\n        /* \"#utility.yul\":5112:5121   */\n      dup4\n        /* \"#utility.yul\":5108:5125   */\n      add\n        /* \"#utility.yul\":5099:5105   */\n      dup5\n        /* \"#utility.yul\":5047:5126   */\n      tag_64\n      jump\t// in\n    tag_124:\n        /* \"#utility.yul\":4895:5133   */\n      swap3\n      swap2\n      pop\n      pop\n      jump\t// out\n        /* \"#utility.yul\":5139:5319   */\n    tag_27:\n        /* \"#utility.yul\":5187:5264   */\n      0x4e487b7100000000000000000000000000000000000000000000000000000000\n        /* \"#utility.yul\":5184:5185   */\n      0x00\n        /* \"#utility.yul\":5177:5265   */\n      mstore\n        /* \"#utility.yul\":5284:5288   */\n      0x32\n        /* \"#utility.yul\":5281:5282   */\n      0x04\n        /* \"#utility.yul\":5274:5289   */\n      mstore\n        /* \"#utility.yul\":5308:5312   */\n      0x24\n        /* \"#utility.yul\":5305:5306   */\n      0x00\n        /* \"#utility.yul\":5298:5313   */\n      revert\n        /* \"#utility.yul\":5325:5505   */\n    tag_65:\n        /* \"#utility.yul\":5373:5450   */\n      0x4e487b7100000000000000000000000000000000000000000000000000000000\n        /* \"#utility.yul\":5370:5371   */\n      0x00\n        /* \"#utility.yul\":5363:5451   */\n      mstore\n        /* \"#utility.yul\":5470:5474   */\n      0x11\n        /* \"#utility.yul\":5467:5468   */\n      0x04\n        /* \"#utility.yul\":5460:5475   */\n      mstore\n        /* \"#utility.yul\":5494:5498   */\n      0x24\n        /* \"#utility.yul\":5491:5492   */\n      0x00\n        /* \"#utility.yul\":5484:5499   */\n      revert\n        /* \"#utility.yul\":5511:5886   */\n    tag_37:\n        /* \"#utility.yul\":5550:5553   */\n      0x00\n        /* \"#utility.yul\":5569:5588   */\n      tag_128\n        /* \"#utility.yul\":5586:5587   */\n      dup3\n        /* \"#utility.yul\":5569:5588   */\n      tag_57\n      jump\t// in\n    tag_128:\n        /* \"#utility.yul\":5564:5588   */\n      swap2\n      pop\n        /* \"#utility.yul\":5602:5621   */\n      tag_129\n        /* \"#utility.yul\":5619:5620   */\n      dup4\n        /* \"#utility.yul\":5602:5621   */\n      tag_57\n      jump\t// in\n    tag_129:\n        /* \"#utility.yul\":5597:5621   */\n      swap3\n      pop\n        /* \"#utility.yul\":5644:5645   */\n      dup3\n        /* \"#utility.yul\":5641:5642   */\n      dup3\n        /* \"#utility.yul\":5637:5646   */\n      add\n        /* \"#utility.yul\":5630:5646   */\n      swap1\n      pop\n        /* \"#utility.yul\":5842:5843   */\n      dup3\n        /* \"#utility.yul\":5837:5840   */\n      dup2\n        /* \"#utility.yul\":5833:5844   */\n      slt\n        /* \"#utility.yul\":5826:5845   */\n      iszero\n        /* \"#utility.yul\":5822:5823   */\n      0x00\n        /* \"#utility.yul\":5819:5820   */\n      dup4\n        /* \"#utility.yul\":5815:5824   */\n      slt\n        /* \"#utility.yul\":5811:5846   */\n      and\n        /* \"#utility.yul\":5794:5795   */\n      dup4\n        /* \"#utility.yul\":5789:5792   */\n      dup3\n        /* \"#utility.yul\":5785:5796   */\n      slt\n        /* \"#utility.yul\":5780:5781   */\n      0x00\n        /* \"#utility.yul\":5777:5778   */\n      dup5\n        /* \"#utility.yul\":5773:5782   */\n      slt\n        /* \"#utility.yul\":5766:5783   */\n      iszero\n        /* \"#utility.yul\":5762:5797   */\n      and\n        /* \"#utility.yul\":5746:5856   */\n      or\n        /* \"#utility.yul\":5743:5879   */\n      iszero\n      tag_130\n      jumpi\n        /* \"#utility.yul\":5859:5877   */\n      tag_131\n      tag_65\n      jump\t// in\n    tag_131:\n        /* \"#utility.yul\":5743:5879   */\n    tag_130:\n        /* \"#utility.yul\":5511:5886   */\n      swap3\n      swap2\n      pop\n      pop\n      jump\t// out\n        /* \"#utility.yul\":5892:6125   */\n    tag_46:\n        /* \"#utility.yul\":5931:5934   */\n      0x00\n        /* \"#utility.yul\":5954:5978   */\n      tag_133\n        /* \"#utility.yul\":5972:5977   */\n      dup3\n        /* \"#utility.yul\":5954:5978   */\n      tag_63\n      jump\t// in\n    tag_133:\n        /* \"#utility.yul\":5945:5978   */\n      swap2\n      pop\n        /* \"#utility.yul\":6000:6066   */\n      0xffffffffffffffffffffffffffffffffffffffffffffffffffffffffffffffff\n        /* \"#utility.yul\":5993:5998   */\n      dup3\n        /* \"#utility.yul\":5990:6067   */\n      sub\n        /* \"#utility.yul\":5987:6090   */\n      tag_134\n      jumpi\n        /* \"#utility.yul\":6070:6088   */\n      tag_135\n      tag_65\n      jump\t// in\n    tag_135:\n        /* \"#utility.yul\":5987:6090   */\n    tag_134:\n        /* \"#utility.yul\":6117:6118   */\n      0x01\n        /* \"#utility.yul\":6110:6115   */\n      dup3\n        /* \"#utility.yul\":6106:6119   */\n      add\n        /* \"#utility.yul\":6099:6119   */\n      swap1\n      pop\n        /* \"#utility.yul\":5892:6125   */\n      swap2\n      swap1\n      pop\n      jump\t// out\n\n    auxdata: 0xa2646970667358221220effd496ba5100e6c83c50a1083bbc8d4e1ee31d11170eb1d5b1bb461df3d650764736f6c63430008190033\n}\n",
				"bytecode": {
					"linkReferences": {},
					"object": "6105a461004d600b8282823980515f1a6073146041577f4e487b71000000000000000000000000000000000000000000000000000000005f525f60045260245ffd5b305f52607381538281f3fe730000000000000000000000000000000000000000301460806040526004361061004a575f3560e01c80633410e3f81461004e57806360cb66d01461007e5780636f5735fc146100ae575b5f80fd5b61006860048036038101906100639190610392565b6100de565b60405161007591906103fb565b60405180910390f35b61009860048036038101906100939190610414565b61014c565b6040516100a591906103fb565b60405180910390f35b6100c860048036038101906100c39190610392565b6101a9565b6040516100d59190610473565b60405180910390f35b5f805b835181101561012157828482815181106100fe576100fd61048c565b5b6020026020010151036101145780915050610146565b80806001019150506100e1565b507fffffffffffffffffffffffffffffffffffffffffffffffffffffffffffffffff90505b92915050565b5f8082510361015d575f90506101a4565b5f805b835181101561019e5783818151811061017c5761017b61048c565b5b60200260200101518261018f91906104e6565b91508080600101915050610160565b50809150505b919050565b5f805f5b84518110156101f357838582815181106101ca576101c961048c565b5b6020026020010151036101e65781806101e290610527565b9250505b80806001019150506101ad565b508091505092915050565b5f604051905090565b5f80fd5b5f80fd5b5f80fd5b5f601f19601f8301169050919050565b7f4e487b71000000000000000000000000000000000000000000000000000000005f52604160045260245ffd5b61025982610213565b810181811067ffffffffffffffff8211171561027857610277610223565b5b80604052505050565b5f61028a6101fe565b90506102968282610250565b919050565b5f67ffffffffffffffff8211156102b5576102b4610223565b5b602082029050602081019050919050565b5f80fd5b5f819050919050565b6102dc816102ca565b81146102e6575f80fd5b50565b5f813590506102f7816102d3565b92915050565b5f61030f61030a8461029b565b610281565b90508083825260208201905060208402830185811115610332576103316102c6565b5b835b8181101561035b578061034788826102e9565b845260208401935050602081019050610334565b5050509392505050565b5f82601f8301126103795761037861020f565b5b81356103898482602086016102fd565b91505092915050565b5f80604083850312156103a8576103a7610207565b5b5f83013567ffffffffffffffff8111156103c5576103c461020b565b5b6103d185828601610365565b92505060206103e2858286016102e9565b9150509250929050565b6103f5816102ca565b82525050565b5f60208201905061040e5f8301846103ec565b92915050565b5f6020828403121561042957610428610207565b5b5f82013567ffffffffffffffff8111156104465761044561020b565b5b61045284828501610365565b91505092915050565b5f819050919050565b61046d8161045b565b82525050565b5f6020820190506104865f830184610464565b92915050565b7f4e487b71000000000000000000000000000000000000000000000000000000005f52603260045260245ffd5b7f4e487b71000000000000000000000000000000000000000000000000000000005f52601160045260245ffd5b5f6104f0826102ca565b91506104fb836102ca565b92508282019050828112155f8312168382125f841215161715610521576105206104b9565b5b92915050565b5f6105318261045b565b91507fffffffffffffffffffffffffffffffffffffffffffffffffffffffffffffffff8203610563576105626104b9565b5b60018201905091905056fea2646970667358221220effd496ba5100e6c83c50a1083bbc8d4e1ee31d11170eb1d5b1bb461df3d650764736f6c63430008190033",
					"opcodes": "PUSH2 0x5A4 PUSH2 0x4D PUSH1 0xB DUP3 DUP3 DUP3 CODECOPY DUP1 MLOAD PUSH0 BYTE PUSH1 0x73 EQ PUSH1 0x41 JUMPI PUSH32 0x4E487B7100000000000000000000000000000000000000000000000000000000 PUSH0 MSTORE PUSH0 PUSH1 0x4 MSTORE PUSH1 0x24 PUSH0 REVERT JUMPDEST ADDRESS PUSH0 MSTORE PUSH1 0x73 DUP2 MSTORE8 DUP3 DUP2 RETURN INVALID PUSH20 0x0 ADDRESS EQ PUSH1 0x80 PUSH1 0x40 MSTORE PUSH1 0x4 CALLDATASIZE LT PUSH2 0x4A JUMPI PUSH0 CALLDATALOAD PUSH1 0xE0 SHR DUP1 PUSH4 0x3410E3F8 EQ PUSH2 0x4E JUMPI DUP1 PUSH4 0x60CB66D0 EQ PUSH2 0x7E JUMPI DUP1 PUSH4 0x6F5735FC EQ PUSH2 0xAE JUMPI JUMPDEST PUSH0 DUP1 REVERT JUMPDEST PUSH2 0x68 PUSH1 0x4 DUP1 CALLDATASIZE SUB DUP2 ADD SWAP1 PUSH2 0x63 SWAP2 SWAP1 PUSH2 0x392 JUMP JUMPDEST PUSH2 0xDE JUMP JUMPDEST PUSH1 0x40 MLOAD PUSH2 0x75 SWAP2 SWAP1 PUSH2 0x3FB JUMP JUMPDEST PUSH1 0x40 MLOAD DUP1 SWAP2 SUB SWAP1 RETURN JUMPDEST PUSH2 0x98 PUSH1 0x4 DUP1 CALLDATASIZE SUB DUP2 ADD SWAP1 PUSH2 0x93 SWAP2 SWAP1 PUSH2 0x414 JUMP JUMPDEST PUSH2 0x14C JUMP JUMPDEST PUSH1 0x40 MLOAD PUSH2 0xA5 SWAP2 SWAP1 PUSH2 0x3FB JUMP JUMPDEST PUSH1 0x40 MLOAD DUP1 SWAP2 SUB SWAP1 RETURN JUMPDEST PUSH2 0xC8 PUSH1 0x4 DUP1 CALLDATASIZE SUB DUP2 ADD SWAP1 PUSH2 0xC3 SWAP2 SWAP1 PUSH2 0x392 JUMP JUMPDEST PUSH2 0x1A9 JUMP JUMPDEST PUSH1 0x40 MLOAD PUSH2 0xD5 SWAP2 SWAP1 PUSH2 0x473 JUMP JUMPDEST PUSH1 0x40 MLOAD DUP1 SWAP2 SUB SWAP1 RETURN JUMPDEST PUSH0 DUP1 JUMPDEST DUP4 MLOAD DUP2 LT ISZERO PUSH2 0x121 JUMPI DUP3 DUP5 DUP3 DUP2 MLOAD DUP2 LT PUSH2 0xFE JUMPI PUSH2 0xFD PUSH2 0x48C JUMP JUMPDEST JUMPDEST PUSH1 0x20 MUL PUSH1 0x20 ADD ADD MLOAD SUB PUSH2 0x114 JUMPI DUP1 SWAP2 POP POP PUSH2 0x146 JUMP JUMPDEST DUP1 DUP1 PUSH1 0x1 ADD SWAP2 POP POP PUSH2 0xE1 JUMP JUMPDEST POP PUSH32 0xFFFFFFFFFFFFFFFFFFFFFFFFFFFFFFFFFFFFFFFFFFFFFFFFFFFFFFFFFFFFFFFF SWAP1 POP JUMPDEST SWAP3 SWAP2 POP POP JUMP JUMPDEST PUSH0 DUP1 DUP3 MLOAD SUB PUSH2 0x15D JUMPI PUSH0 SWAP1 POP PUSH2 0x1A4 JUMP JUMPDEST PUSH0 DUP1 JUMPDEST DUP4 MLOAD DUP2 LT ISZERO PUSH2 0x19E JUMPI DUP4 DUP2 DUP2 MLOAD DUP2 LT PUSH2 0x17C JUMPI PUSH2 0x17B PUSH2 0x48C JUMP JUMPDEST JUMPDEST PUSH1 0x20 MUL PUSH1 0x20 ADD ADD MLOAD DUP3 PUSH2 0x18F SWAP2 SWAP1 PUSH2 0x4E6 JUMP JUMPDEST SWAP2 POP DUP1 DUP1 PUSH1 0x1 ADD SWAP2 POP POP PUSH2 0x160 JUMP JUMPDEST POP DUP1 SWAP2 POP POP JUMPDEST SWAP2 SWAP1 POP JUMP JUMPDEST PUSH0 DUP1 PUSH0 JUMPDEST DUP5 MLOAD DUP2 LT ISZERO PUSH2 0x1F3 JUMPI DUP4 DUP6 DUP3 DUP2 MLOAD DUP2 LT PUSH2 0x1CA JUMPI PUSH2 0x1C9 PUSH2 0x48C JUMP JUMPDEST JUMPDEST PUSH1 0x20 MUL PUSH1 0x20 ADD ADD MLOAD SUB PUSH2 0x1E6 JUMPI DUP2 DUP1 PUSH2 0x1E2 SWAP1 PUSH2 0x527 JUMP JUMPDEST SWAP3 POP POP JUMPDEST DUP1 DUP1 PUSH1 0x1 ADD SWAP2 POP POP PUSH2 0x1AD JUMP JUMPDEST POP DUP1 SWAP2 POP POP SWAP3 SWAP2 POP POP JUMP JUMPDEST PUSH0 PUSH1 0x40 MLOAD SWAP1 POP SWAP1 JUMP JUMPDEST PUSH0 DUP1 REVERT JUMPDEST PUSH0 DUP1 REVERT JUMPDEST PUSH0 DUP1 REVERT JUMPDEST PUSH0 PUSH1 0x1F NOT PUSH1 0x1F DUP4 ADD AND SWAP1 POP SWAP2 SWAP1 POP JUMP JUMPDEST PUSH32 0x4E487B7100000000000000000000000000000000000000000000000000000000 PUSH0 MSTORE PUSH1 0x41 PUSH1 0x4 MSTORE PUSH1 0x24 PUSH0 REVERT JUMPDEST PUSH2 0x259 DUP3 PUSH2 0x213 JUMP JUMPDEST DUP2 ADD DUP2 DUP2 LT PUSH8 0xFFFFFFFFFFFFFFFF DUP3 GT OR ISZERO PUSH2 0x278 JUMPI PUSH2 0x277 PUSH2 0x223 JUMP JUMPDEST JUMPDEST DUP1 PUSH1 0x40 MSTORE POP POP POP JUMP JUMPDEST PUSH0 PUSH2 0x28A PUSH2 0x1FE JUMP JUMPDEST SWAP1 POP PUSH2 0x296 DUP3 DUP3 PUSH2 0x250 JUMP JUMPDEST SWAP2 SWAP1 POP JUMP JUMPDEST PUSH0 PUSH8 0xFFFFFFFFFFFFFFFF DUP3 GT ISZERO PUSH2 0x2B5 JUMPI PUSH2 0x2B4 PUSH2 0x223 JUMP JUMPDEST JUMPDEST PUSH1 0x20 DUP3 MUL SWAP1 POP PUSH1 0x20 DUP2 ADD SWAP1 POP SWAP2 SWAP1 POP JUMP JUMPDEST PUSH0 DUP1 REVERT JUMPDEST PUSH0 DUP2 SWAP1 POP SWAP2 SWAP1 POP JUMP JUMPDEST PUSH2 0x2DC DUP2 PUSH2 0x2CA JUMP JUMPDEST DUP2 EQ PUSH2 0x2E6 JUMPI PUSH0 DUP1 REVERT JUMPDEST POP JUMP JUMPDEST PUSH0 DUP2 CALLDATALOAD SWAP1 POP PUSH2 0x2F7 DUP2 PUSH2 0x2D3 JUMP JUMPDEST SWAP3 SWAP2 POP POP JUMP JUMPDEST PUSH0 PUSH2 0x30F PUSH2 0x30A DUP5 PUSH2 0x29B JUMP JUMPDEST PUSH2 0x281 JUMP JUMPDEST SWAP1 POP DUP1 DUP4 DUP3 MSTORE PUSH1 0x20 DUP3 ADD SWAP1 POP PUSH1 0x20 DUP5 MUL DUP4 ADD DUP6 DUP2 GT ISZERO PUSH2 0x332 JUMPI PUSH2 0x331 PUSH2 0x2C6 JUMP JUMPDEST JUMPDEST DUP4 JUMPDEST DUP2 DUP2 LT ISZERO PUSH2 0x35B JUMPI DUP1 PUSH2 0x347 DUP9 DUP3 PUSH2 0x2E9 JUMP JUMPDEST DUP5 MSTORE PUSH1 0x20 DUP5 ADD SWAP4 POP POP PUSH1 0x20 DUP2 ADD SWAP1 POP PUSH2 0x334 JUMP JUMPDEST POP POP POP SWAP4 SWAP3 POP POP POP JUMP JUMPDEST PUSH0 DUP3 PUSH1 0x1F DUP4 ADD SLT PUSH2 0x379 JUMPI PUSH2 0x378 PUSH2 0x20F JUMP JUMPDEST JUMPDEST DUP2 CALLDATALOAD PUSH2 0x389 DUP5 DUP3 PUSH1 0x20 DUP7 ADD PUSH2 0x2FD JUMP JUMPDEST SWAP2 POP POP SWAP3 SWAP2 POP POP JUMP JUMPDEST PUSH0 DUP1 PUSH1 0x40 DUP4 DUP6 SUB SLT ISZERO PUSH2 0x3A8 JUMPI PUSH2 0x3A7 PUSH2 0x207 JUMP JUMPDEST JUMPDEST PUSH0 DUP4 ADD CALLDATALOAD PUSH8 0xFFFFFFFFFFFFFFFF DUP2 GT ISZERO PUSH2 0x3C5 JUMPI PUSH2 0x3C4 PUSH2 0x20B JUMP JUMPDEST JUMPDEST PUSH2 0x3D1 DUP6 DUP3 DUP7 ADD PUSH2 0x365 JUMP JUMPDEST SWAP3 POP POP PUSH1 0x20 PUSH2 0x3E2 DUP6 DUP3 DUP7 ADD PUSH2 0x2E9 JUMP JUMPDEST SWAP2 POP POP SWAP3 POP SWAP3 SWAP1 POP JUMP JUMPDEST PUSH2 0x3F5 DUP2 PUSH2 0x2CA JUMP JUMPDEST DUP3 MSTORE POP POP JUMP JUMPDEST PUSH0 PUSH1 0x20 DUP3 ADD SWAP1 POP PUSH2 0x40E PUSH0 DUP4 ADD DUP5 PUSH2 0x3EC JUMP JUMPDEST SWAP3 SWAP2 POP POP JUMP JUMPDEST PUSH0 PUSH1 0x20 DUP3 DUP5 SUB SLT ISZERO PUSH2 0x429 JUMPI PUSH2 0x428 PUSH2 0x207 JUMP JUMPDEST JUMPDEST PUSH0 DUP3 ADD CALLDATALOAD PUSH8 0xFFFFFFFFFFFFFFFF DUP2 GT ISZERO PUSH2 0x446 JUMPI PUSH2 0x445 PUSH2 0x20B JUMP JUMPDEST JUMPDEST PUSH2 0x452 DUP5 DUP3 DUP6 ADD PUSH2 0x365 JUMP JUMPDEST SWAP2 POP POP SWAP3 SWAP2 POP POP JUMP JUMPDEST PUSH0 DUP2 SWAP1 POP SWAP2 SWAP1 POP JUMP JUMPDEST PUSH2 0x46D DUP2 PUSH2 0x45B JUMP JUMPDEST DUP3 MSTORE POP POP JUMP JUMPDEST PUSH0 PUSH1 0x20 DUP3 ADD SWAP1 POP PUSH2 0x486 PUSH0 DUP4 ADD DUP5 PUSH2 0x464 JUMP JUMPDEST SWAP3 SWAP2 POP POP JUMP JUMPDEST PUSH32 0x4E487B7100000000000000000000000000000000000000000000000000000000 PUSH0 MSTORE PUSH1 0x32 PUSH1 0x4 MSTORE PUSH1 0x24 PUSH0 REVERT JUMPDEST PUSH32 0x4E487B7100000000000000000000000000000000000000000000000000000000 PUSH0 MSTORE PUSH1 0x11 PUSH1 0x4 MSTORE PUSH1 0x24 PUSH0 REVERT JUMPDEST PUSH0 PUSH2 0x4F0 DUP3 PUSH2 0x2CA JUMP JUMPDEST SWAP2 POP PUSH2 0x4FB DUP4 PUSH2 0x2CA JUMP JUMPDEST SWAP3 POP DUP3 DUP3 ADD SWAP1 POP DUP3 DUP2 SLT ISZERO PUSH0 DUP4 SLT AND DUP4 DUP3 SLT PUSH0 DUP5 SLT ISZERO AND OR ISZERO PUSH2 0x521 JUMPI PUSH2 0x520 PUSH2 0x4B9 JUMP JUMPDEST JUMPDEST SWAP3 SWAP2 POP POP JUMP JUMPDEST PUSH0 PUSH2 0x531 DUP3 PUSH2 0x45B JUMP JUMPDEST SWAP2 POP PUSH32 0xFFFFFFFFFFFFFFFFFFFFFFFFFFFFFFFFFFFFFFFFFFFFFFFFFFFFFFFFFFFFFFFF DUP3 SUB PUSH2 0x563 JUMPI PUSH2 0x562 PUSH2 0x4B9 JUMP JUMPDEST JUMPDEST PUSH1 0x1 DUP3 ADD SWAP1 POP SWAP2 SWAP1 POP JUMP INVALID LOG2 PUSH5 0x6970667358 0x22 SLT KECCAK256 0xEF REVERT BLOBHASH PUSH12 0xA5100E6C83C50A1083BBC8D4 0xE1 0xEE BALANCE 0xD1 GT PUSH17 0xEB1D5B1BB461DF3D650764736F6C634300 ADDMOD NOT STOP CALLER "
				},
				"gasEstimates": {
					"creation": {
						"codeDepositCost": "288800",
						"executionCost": "354",
						"totalCost": "289154"
					},
					"external": {
						"count(int256[],int256)": "infinite",
						"indexOf(int256[],int256)": "infinite",
						"sum(int256[])": "infinite"
					}
				},
				"methodIdentifiers": {
					"count(int256[],int256)": "6f5735fc",
					"indexOf(int256[],int256)": "3410e3f8",
					"sum(int256[])": "60cb66d0"
				}
			},
			"storageLayout": {
				"storage": [],
				"types": null
			},
			"userdoc": {
				"kind": "user",
				"methods": {},
				"version": 1
			}
		}
	}
}