{
	"data": {
		"bytecode": {
			"linkReferences": {},
			"object": "6080604052348015600e575f80fd5b506106398061001c5f395ff3fe608060405234801561000f575f80fd5b506004361061003f575f3560e01c80633f02179b1461004357806342fba7ae14610073578063da3ff648146100a3575b5f80fd5b61005d600480360381019061005891906103b6565b6100d3565b60405161006a919061041f565b60405180910390f35b61008d60048036038101906100889190610438565b61015e565b60405161009a919061041f565b60405180910390f35b6100bd60048036038101906100b89190610438565b6101c8565b6040516100ca919061041f565b60405180910390f35b5f808351036100e4575f9050610158565b5f805b84518110156101255784818151811061010357610102610463565b5b60200260200101518261011691906104bd565b915080806001019150506100e7565b505f845182610134919061052b565b905083610149576101448161015e565b610153565b610152816101c8565b5b925050505b92915050565b5f80600a8361016d9190610593565b90505f8113156101975780600a61018491906105c3565b8361018f91906104bd565b9150506101c3565b5f81036101a757829150506101c3565b80600a846101b591906105c3565b6101bf91906105c3565b9150505b919050565b5f80600a836101d79190610593565b905080836101e591906105c3565b915050919050565b5f604051905090565b5f80fd5b5f80fd5b5f80fd5b5f601f19601f8301169050919050565b7f4e487b71000000000000000000000000000000000000000000000000000000005f52604160045260245ffd5b61024882610202565b810181811067ffffffffffffffff8211171561026757610266610212565b5b80604052505050565b5f6102796101ed565b9050610285828261023f565b919050565b5f67ffffffffffffffff8211156102a4576102a3610212565b5b602082029050602081019050919050565b5f80fd5b5f819050919050565b6102cb816102b9565b81146102d5575f80fd5b50565b5f813590506102e6816102c2565b92915050565b5f6102fe6102f98461028a565b610270565b90508083825260208201905060208402830185811115610321576103206102b5565b5b835b8181101561034a578061033688826102d8565b845260208401935050602081019050610323565b5050509392505050565b5f82601f830112610368576103676101fe565b5b81356103788482602086016102ec565b91505092915050565b5f8115159050919050565b61039581610381565b811461039f575f80fd5b50565b5f813590506103b08161038c565b92915050565b5f80604083850312156103cc576103cb6101f6565b5b5f83013567ffffffffffffffff8111156103e9576103e86101fa565b5b6103f585828601610354565b9250506020610406858286016103a2565b9150509250929050565b610419816102b9565b82525050565b5f6020820190506104325f830184610410565b92915050565b5f6020828403121561044d5761044c6101f6565b5b5f61045a848285016102d8565b91505092915050565b7f4e487b71000000000000000000000000000000000000000000000000000000005f52603260045260245ffd5b7f4e487b71000000000000000000000000000000000000000000000000000000005f52601160045260245ffd5b5f6104c7826102b9565b91506104d2836102b9565b92508282019050828112155f8312168382125f8412151617156104f8576104f7610490565b5b92915050565b7f4e487b71000000000000000000000000000000000000000000000000000000005f52601260045260245ffd5b5f610535826102b9565b9150610540836102b9565b9250826105505761054f6104fe565b5b60015f0383147f80000000000000000000000000000000000000000000000000000000000000008314161561058857610587610490565b5b828205905092915050565b5f61059d826102b9565b91506105a8836102b9565b9250826105b8576105b76104fe565b5b828207905092915050565b5f6105cd826102b9565b91506105d8836102b9565b925082820390508181125f8412168282135f8512151617156105fd576105fc610490565b5b9291505056fea2646970667358221220fccfc12b42167ed397f82e171440930507b89d3e6351eb27f96341cd6040855e64736f6c634300081a0033",
			"opcodes": "PUSH1 0x80 PUSH1 0x40 MSTORE CALLVALUE DUP1 ISZERO PUSH1 0xE JUMPI PUSH0 DUP1 REVERT JUMPDEST POP PUSH2 0x639 DUP1 PUSH2 0x1C PUSH0 CODECOPY PUSH0 RETURN INVALID PUSH1 0x80 PUSH1 0x40 MSTORE CALLVALUE DUP1 ISZERO PUSH2 0xF JUMPI PUSH0 DUP1 REVERT JUMPDEST POP PUSH1 0x4 CALLDATASIZE LT PUSH2 0x3F JUMPI PUSH0 CALLDATALOAD PUSH1 0xE0 SHR DUP1 PUSH4 0x3F02179B EQ PUSH2 0x43 JUMPI DUP1 PUSH4 0x42FBA7AE EQ PUSH2 0x73 JUMPI DUP1 PUSH4 0xDA3FF648 EQ PUSH2 0xA3 JUMPI JUMPDEST PUSH0 DUP1 REVERT JUMPDEST PUSH2 0x5D PUSH1 0x4 DUP1 CALLDATASIZE SUB DUP2 ADD SWAP1 PUSH2 0x58 SWAP2 SWAP1 PUSH2 0x3B6 JUMP JUMPDEST PUSH2 0xD3 JUMP JUMPDEST PUSH1 0x40 MLOAD PUSH2 0x6A SWAP2 SWAP1 PUSH2 0x41F JUMP JUMPDEST PUSH1 0x40 MLOAD DUP1 SWAP2 SUB SWAP1 RETURN JUMPDEST PUSH2 0x8D PUSH1 0x4 DUP1 CALLDATASIZE SUB DUP2 ADD SWAP1 PUSH2 0x88 SWAP2 SWAP1 PUSH2 0x438 JUMP JUMPDEST PUSH2 0x15E JUMP JUMPDEST PUSH1 0x40 MLOAD PUSH2 0x9A SWAP2 SWAP1 PUSH2 0x41F JUMP JUMPDEST PUSH1 0x40 MLOAD DUP1 SWAP2 SUB SWAP1 RETURN JUMPDEST PUSH2 0xBD PUSH1 0x4 DUP1 CALLDATASIZE SUB DUP2 ADD SWAP1 PUSH2 0xB8 SWAP2 SWAP1 PUSH2 0x438 JUMP JUMPDEST PUSH2 0x1C8 JUMP JUMPDEST PUSH1 0x40 MLOAD PUSH2 0xCA SWAP2 SWAP1 PUSH2 0x41F JUMP JUMPDEST PUSH1 0x40 MLOAD DUP1 SWAP2 SUB SWAP1 RETURN JUMPDEST PUSH0 DUP1 DUP4 MLOAD SUB PUSH2 0xE4 JUMPI PUSH0 SWAP1 POP PUSH2 0x158 JUMP JUMPDEST PUSH0 DUP1 JUMPDEST DUP5 MLOAD DUP2 LT ISZERO PUSH2 0x125 JUMPI DUP5 DUP2 DUP2 MLOAD DUP2 LT PUSH2 0x103 JUMPI PUSH2 0x102 PUSH2 0x463 JUMP JUMPDEST JUMPDEST PUSH1 0x20 MUL PUSH1 0x20 ADD ADD MLOAD DUP3 PUSH2 0x116 SWAP2 SWAP1 PUSH2 0x4BD JUMP JUMPDEST SWAP2 POP DUP1 DUP1 PUSH1 0x1 ADD SWAP2 POP POP PUSH2 0xE7 JUMP JUMPDEST POP PUSH0 DUP5 MLOAD DUP3 PUSH2 0x134 SWAP2 SWAP1 PUSH2 0x52B JUMP JUMPDEST SWAP1 POP DUP4 PUSH2 0x149 JUMPI PUSH2 0x144 DUP2 PUSH2 0x15E JUMP JUMPDEST PUSH2 0x153 JUMP JUMPDEST PUSH2 0x152 DUP2 PUSH2 0x1C8 JUMP JUMPDEST JUMPDEST SWAP3 POP POP POP JUMPDEST SWAP3 SWAP2 POP POP JUMP JUMPDEST PUSH0 DUP1 PUSH1 0xA DUP4 PUSH2 0x16D SWAP2 SWAP1 PUSH2 0x593 JUMP JUMPDEST SWAP1 POP PUSH0 DUP2 SGT ISZERO PUSH2 0x197 JUMPI DUP1 PUSH1 0xA PUSH2 0x184 SWAP2 SWAP1 PUSH2 0x5C3 JUMP JUMPDEST DUP4 PUSH2 0x18F SWAP2 SWAP1 PUSH2 0x4BD JUMP JUMPDEST SWAP2 POP POP PUSH2 0x1C3 JUMP JUMPDEST PUSH0 DUP2 SUB PUSH2 0x1A7 JUMPI DUP3 SWAP2 POP POP PUSH2 0x1C3 JUMP JUMPDEST DUP1 PUSH1 0xA DUP5 PUSH2 0x1B5 SWAP2 SWAP1 PUSH2 0x5C3 JUMP JUMPDEST PUSH2 0x1BF SWAP2 SWAP1 PUSH2 0x5C3 JUMP JUMPDEST SWAP2 POP POP JUMPDEST SWAP2 SWAP1 POP JUMP JUMPDEST PUSH0 DUP1 PUSH1 0xA DUP4 PUSH2 0x1D7 SWAP2 SWAP1 PUSH2 0x593 JUMP JUMPDEST SWAP1 POP DUP1 DUP4 PUSH2 0x1E5 SWAP2 SWAP1 PUSH2 0x5C3 JUMP JUMPDEST SWAP2 POP POP SWAP2 SWAP1 POP JUMP JUMPDEST PUSH0 PUSH1 0x40 MLOAD SWAP1 POP SWAP1 JUMP JUMPDEST PUSH0 DUP1 REVERT JUMPDEST PUSH0 DUP1 REVERT JUMPDEST PUSH0 DUP1 REVERT JUMPDEST PUSH0 PUSH1 0x1F NOT PUSH1 0x1F DUP4 ADD AND SWAP1 POP SWAP2 SWAP1 POP JUMP JUMPDEST PUSH32 0x4E487B7100000000000000000000000000000000000000000000000000000000 PUSH0 MSTORE PUSH1 0x41 PUSH1 0x4 MSTORE PUSH1 0x24 PUSH0 REVERT JUMPDEST PUSH2 0x248 DUP3 PUSH2 0x202 JUMP JUMPDEST DUP2 ADD DUP2 DUP2 LT PUSH8 0xFFFFFFFFFFFFFFFF DUP3 GT OR ISZERO PUSH2 0x267 JUMPI PUSH2 0x266 PUSH2 0x212 JUMP JUMPDEST JUMPDEST DUP1 PUSH1 0x40 MSTORE POP POP POP JUMP JUMPDEST PUSH0 PUSH2 0x279 PUSH2 0x1ED JUMP JUMPDEST SWAP1 POP PUSH2 0x285 DUP3 DUP3 PUSH2 0x23F JUMP JUMPDEST SWAP2 SWAP1 POP JUMP JUMPDEST PUSH0 PUSH8 0xFFFFFFFFFFFFFFFF DUP3 GT ISZERO PUSH2 0x2A4 JUMPI PUSH2 0x2A3 PUSH2 0x212 JUMP JUMPDEST JUMPDEST PUSH1 0x20 DUP3 MUL SWAP1 POP PUSH1 0x20 DUP2 ADD SWAP1 POP SWAP2 SWAP1 POP JUMP JUMPDEST PUSH0 DUP1 REVERT JUMPDEST PUSH0 DUP2 SWAP1 POP SWAP2 SWAP1 POP JUMP JUMPDEST PUSH2 0x2CB DUP2 PUSH2 0x2B9 JUMP JUMPDEST DUP2 EQ PUSH2 0x2D5 JUMPI PUSH0 DUP1 REVERT JUMPDEST POP JUMP JUMPDEST PUSH0 DUP2 CALLDATALOAD SWAP1 POP PUSH2 0x2E6 DUP2 PUSH2 0x2C2 JUMP JUMPDEST SWAP3 SWAP2 POP POP JUMP JUMPDEST PUSH0 PUSH2 0x2FE PUSH2 0x2F9 DUP5 PUSH2 0x28A JUMP JUMPDEST PUSH2 0x270 JUMP JUMPDEST SWAP1 POP DUP1 DUP4 DUP3 MSTORE PUSH1 0x20 DUP3 ADD SWAP1 POP PUSH1 0x20 DUP5 MUL DUP4 ADD DUP6 DUP2 GT ISZERO PUSH2 0x321 JUMPI PUSH2 0x320 PUSH2 0x2B5 JUMP JUMPDEST JUMPDEST DUP4 JUMPDEST DUP2 DUP2 LT ISZERO PUSH2 0x34A JUMPI DUP1 PUSH2 0x336 DUP9 DUP3 PUSH2 0x2D8 JUMP JUMPDEST DUP5 MSTORE PUSH1 0x20 DUP5 ADD SWAP4 POP POP PUSH1 0x20 DUP2 ADD SWAP1 POP PUSH2 0x323 JUMP JUMPDEST POP POP POP SWAP4 SWAP3 POP POP POP JUMP JUMPDEST PUSH0 DUP3 PUSH1 0x1F DUP4 ADD SLT PUSH2 0x368 JUMPI PUSH2 0x367 PUSH2 0x1FE JUMP JUMPDEST JUMPDEST DUP2 CALLDATALOAD PUSH2 0x378 DUP5 DUP3 PUSH1 0x20 DUP7 ADD PUSH2 0x2EC JUMP JUMPDEST SWAP2 POP POP SWAP3 SWAP2 POP POP JUMP JUMPDEST PUSH0 DUP2 ISZERO ISZERO SWAP1 POP SWAP2 SWAP1 POP JUMP JUMPDEST PUSH2 0x395 DUP2 PUSH2 0x381 JUMP JUMPDEST DUP2 EQ PUSH2 0x39F JUMPI PUSH0 DUP1 REVERT JUMPDEST POP JUMP JUMPDEST PUSH0 DUP2 CALLDATALOAD SWAP1 POP PUSH2 0x3B0 DUP2 PUSH2 0x38C JUMP JUMPDEST SWAP3 SWAP2 POP POP JUMP JUMPDEST PUSH0 DUP1 PUSH1 0x40 DUP4 DUP6 SUB SLT ISZERO PUSH2 0x3CC JUMPI PUSH2 0x3CB PUSH2 0x1F6 JUMP JUMPDEST JUMPDEST PUSH0 DUP4 ADD CALLDATALOAD PUSH8 0xFFFFFFFFFFFFFFFF DUP2 GT ISZERO PUSH2 0x3E9 JUMPI PUSH2 0x3E8 PUSH2 0x1FA JUMP JUMPDEST JUMPDEST PUSH2 0x3F5 DUP6 DUP3 DUP7 ADD PUSH2 0x354 JUMP JUMPDEST SWAP3 POP POP PUSH1 0x20 PUSH2 0x406 DUP6 DUP3 DUP7 ADD PUSH2 0x3A2 JUMP JUMPDEST SWAP2 POP POP SWAP3 POP SWAP3 SWAP1 POP JUMP JUMPDEST PUSH2 0x419 DUP2 PUSH2 0x2B9 JUMP JUMPDEST DUP3 MSTORE POP POP JUMP JUMPDEST PUSH0 PUSH1 0x20 DUP3 ADD SWAP1 POP PUSH2 0x432 PUSH0 DUP4 ADD DUP5 PUSH2 0x410 JUMP JUMPDEST SWAP3 SWAP2 POP POP JUMP JUMPDEST PUSH0 PUSH1 0x20 DUP3 DUP5 SUB SLT ISZERO PUSH2 0x44D JUMPI PUSH2 0x44C PUSH2 0x1F6 JUMP JUMPDEST JUMPDEST PUSH0 PUSH2 0x45A DUP5 DUP3 DUP6 ADD PUSH2 0x2D8 JUMP JUMPDEST SWAP2 POP POP SWAP3 SWAP2 POP POP JUMP JUMPDEST PUSH32 0x4E487B7100000000000000000000000000000000000000000000000000000000 PUSH0 MSTORE PUSH1 0x32 PUSH1 0x4 MSTORE PUSH1 0x24 PUSH0 REVERT JUMPDEST PUSH32 0x4E487B7100000000000000000000000000000000000000000000000000000000 PUSH0 MSTORE PUSH1 0x11 PUSH1 0x4 MSTORE PUSH1 0x24 PUSH0 REVERT JUMPDEST PUSH0 PUSH2 0x4C7 DUP3 PUSH2 0x2B9 JUMP JUMPDEST SWAP2 POP PUSH2 0x4D2 DUP4 PUSH2 0x2B9 JUMP JUMPDEST SWAP3 POP DUP3 DUP3 ADD SWAP1 POP DUP3 DUP2 SLT ISZERO PUSH0 DUP4 SLT AND DUP4 DUP3 SLT PUSH0 DUP5 SLT ISZERO AND OR ISZERO PUSH2 0x4F8 JUMPI PUSH2 0x4F7 PUSH2 0x490 JUMP JUMPDEST JUMPDEST SWAP3 SWAP2 POP POP JUMP JUMPDEST PUSH32 0x4E487B7100000000000000000000000000000000000000000000000000000000 PUSH0 MSTORE PUSH1 0x12 PUSH1 0x4 MSTORE PUSH1 0x24 PUSH0 REVERT JUMPDEST PUSH0 PUSH2 0x535 DUP3 PUSH2 0x2B9 JUMP JUMPDEST SWAP2 POP PUSH2 0x540 DUP4 PUSH2 0x2B9 JUMP JUMPDEST SWAP3 POP DUP3 PUSH2 0x550 JUMPI PUSH2 0x54F PUSH2 0x4FE JUMP JUMPDEST JUMPDEST PUSH1 0x1 PUSH0 SUB DUP4 EQ PUSH32 0x8000000000000000000000000000000000000000000000000000000000000000 DUP4 EQ AND ISZERO PUSH2 0x588 JUMPI PUSH2 0x587 PUSH2 0x490 JUMP JUMPDEST JUMPDEST DUP3 DUP3 SDIV SWAP1 POP SWAP3 SWAP2 POP POP JUMP JUMPDEST PUSH0 PUSH2 0x59D DUP3 PUSH2 0x2B9 JUMP JUMPDEST SWAP2 POP PUSH2 0x5A8 DUP4 PUSH2 0x2B9 JUMP JUMPDEST SWAP3 POP DUP3 PUSH2 0x5B8 JUMPI PUSH2 0x5B7 PUSH2 0x4FE JUMP JUMPDEST JUMPDEST DUP3 DUP3 SMOD SWAP1 POP SWAP3 SWAP2 POP POP JUMP JUMPDEST PUSH0 PUSH2 0x5CD DUP3 PUSH2 0x2B9 JUMP JUMPDEST SWAP2 POP PUSH2 0x5D8 DUP4 PUSH2 0x2B9 JUMP JUMPDEST SWAP3 POP DUP3 DUP3 SUB SWAP1 POP DUP2 DUP2 SLT PUSH0 DUP5 SLT AND DUP3 DUP3 SGT PUSH0 DUP6 SLT ISZERO AND OR ISZERO PUSH2 0x5FD JUMPI PUSH2 0x5FC PUSH2 0x490 JUMP JUMPDEST JUMPDEST SWAP3 SWAP2 POP POP JUMP INVALID LOG2 PUSH5 0x6970667358 0x22 SLT KECCAK256 0xFC 0xCF 0xC1 0x2B TIMESTAMP AND PUSH31 0xD397F82E171440930507B89D3E6351EB27F96341CD6040855E64736F6C6343 STOP ADDMOD BYTE STOP CALLER "
		},
		"gasEstimates": {
			"creation": {
				"codeDepositCost": "318600",
				"executionCost": "353",
				"totalCost": "318953"
			},
			"external": {
				"avarage(int256[],bool)": "infinite",
				"ceil(int256)": "infinite",
				"floor(int256)": "infinite"
			}
		},
		"methodIdentifiers": {
			"avarage(int256[],bool)": "3f02179b",
			"ceil(int256)": "42fba7ae",
			"floor(int256)": "da3ff648"
		}
	},
	"abi": [
		{
			"inputs": [
				{
					"internalType": "int256[]",
					"name": "values",
					"type": "int256[]"
				},
				{
					"internalType": "bool",
					"name": "down",
					"type": "bool"
				}
			],
			"name": "avarage",
			"outputs": [
				{
					"internalType": "int256",
					"name": "",
					"type": "int256"
				}
			],
			"stateMutability": "pure",
			"type": "function"
		},
		{
			"inputs": [
				{
					"internalType": "int256",
					"name": "value",
					"type": "int256"
				}
			],
			"name": "ceil",
			"outputs": [
				{
					"internalType": "int256",
					"name": "",
					"type": "int256"
				}
			],
			"stateMutability": "pure",
			"type": "function"
		},
		{
			"inputs": [
				{
					"internalType": "int256",
					"name": "value",
					"type": "int256"
				}
			],
			"name": "floor",
			"outputs": [
				{
					"internalType": "int256",
					"name": "",
					"type": "int256"
				}
			],
			"stateMutability": "pure",
			"type": "function"
		}
	]
}